:02000002F0000C
:1040000000000420DDB70F0005B80F0007B80F004F
:1040100009B80F000BB80F000DB80F00000000002A
:10402000000000000000000000000000558D0F009F
:1040300011B80F000000000013B80F0015B80F00F2
:10404000B1770F0017B80F00C1770F0017B80F0036
:1040500017B80F0017B80F0017B80F0017B80F00E8
:1040600017B80F0017B80F0017B80F0017B80F00D8
:1040700017B80F0017B80F0017B80F0017B80F00C8
:1040800017B80F0017B80F0017B80F0017B80F00B8
:1040900017B80F0017B80F00696E0F0017B80F00A0
:1040A00017B80F0017B80F0017B80F0017B80F0098
:1040B00017B80F0017B80F00000000000000000044
:1040C00017B80F0017B80F0017B80F0017B80F0078
:1040D00041910F0017B80F0017B80F0085880F0027
:1040E00001790F0017B80F0079BB0F000000000026
:1040F0000000000017B80F000000000017B80F0004
:1041000000000000000000000000000000000000AF
:10411000000000000000000000000000000000009F
:10412000000000000000000000000000000000008F
:10413000000000000000000000000000000000007F
:10414000000000000000000000000000000000006F
:10415000000000000000000000000000000000005F
:10416000000000000000000000000000000000004F
:10417000000000000000000000000000000000003F
:10418000000000000000000000000000000000002F
:10419000000000000000000000000000000000001F
:1041A000000000000000000000000000000000000F
:1041B00000000000000000000000000000000000FF
:1041C00000000000000000000000000000000000EF
:1041D00000000000000000000000000000000000DF
:1041E00000000000000000000000000000000000CF
:1041F00000000000000000000000000000000000BF
:1042000010B5054C237833B9044B13B10448AFF310
:1042100000800123237010BD385A002000000000E8
:10422000B8CA0F0008B5034B1BB103490348AFF3ED
:10423000008008BD000000003C5A0020B8CA0F00F2
:10424000A3F5803A704700BF174B002B08BF134BF4
:104250009D46FFF7F5FF00218B460F461348144A91
:10426000121A07F00BFD0E4B002B00D098470D4B98
:10427000002B00D098470020002104000D000D48BD
:10428000002802D00C48AFF3008007F09BFC200010
:10429000290000F039F807F081FC00BF0000080099
:1042A000000000000000000000000420385A002038
:1042B000C0AC00200000000000000000BFF34F8FE2
:1042C0000549064BCA6802F4E0621343CB60BFF3B2
:1042D0004F8F00BFFDE700BF00ED00E00400FA05CE
:1042E00008B550B9012000F02EFA4FF08043D3F802
:1042F0001824D2035CBF01229A6008BD08B5FFF7FD
:10430000DDFF08B5FFF7DAFF08B54FF01023D3F84B
:10431000043303F00703052B1BD0184A0123C2F80E
:104320000435D2F80034002BFBD04FF01021D1F827
:10433000043323F0070343F00503C1F804330023DB
:10434000C2F804350D4AD2F80034002BFBD0FFF739
:10435000B5FF05F04BF84FF48051002004F032FE19
:104360000028F4D10648C0F57E2104F02BFE002879
:10437000EDD1044804F048FDE9E700BF00E001404A
:1043800000400F00E1420F004FF08053D3F830217E
:10439000082A03BFD3F83401B0FA80F040090020A6
:1043A0007047000008B54FF080430022C3F80C218D
:1043B000C3F81021C3F838254FF0805203F540436D
:1043C000D2F80414C3F82015D2F80814C3F8241541
:1043D000D2F80C14C3F82815D2F81014C3F82C1511
:1043E000D2F81414C3F83015D2F81814C3F83415E1
:1043F000D2F81C14C3F84015D2F82014C3F84415A1
:10440000D2F82414C3F84815D2F82814C3F84C1570
:10441000D2F82C14C3F85015D2F83014C3F8541540
:10442000D2F83414C3F86015D2F83814C3F8641500
:10443000D2F83C14C3F86815D2F84014C3F86C15D0
:10444000D2F84424C3F87025FFF79EFF18B13B4B08
:104450003B4AC3F88C26FFF797FF18B1394BFB2274
:10446000C3F81825FFF790FF70B14FF080414FF06F
:104470008053D1F8E42ED3F8583222F00F0203F023
:104480000F031343C1F8E43EFFF77EFF20B12E4B2C
:104490004FF40072C3F840264FF08043D3F8002455
:1044A000D20744BF6FF00102C3F80024274AD2F8B4
:1044B000883043F47003C2F88830BFF34F8FBFF3E6
:1044C0006F8F4FF01023D3F80022002A03DBD3F8BC
:1044D0000432002B2EDA1E4B0122C3F80425D3F838
:1044E0000024002AFBD04FF010221221C2F8001243
:1044F000D3F80024002AFBD04FF010231222C3F877
:104500000422134BD3F80024002AFBD00022C3F866
:104510000425D3F80024002AFBD0BFF34F8F0B49AA
:104520000C4BCA6802F4E0621343CB60BFF34F8FB9
:1045300000BFFDE7084B094A1A6008BD0050004063
:104540004881030000F000400090024000ED00E0D0
:1045500000E001400400FA05785900200090D003E3
:104560000020704710B504461A4802F0DBF81A4BD9
:1045700018481C6002F0EDF848B3184B002140F6D3
:1045800003020330C3E9021258601970144B154935
:1045900059601549C3E90212144A1A61144A5A6152
:1045A00002F0D6FD852800D090B9002002F014FF5B
:1045B00070B901F019FF0F4800F070FB40B90E48C8
:1045C00000F00EFC20B9BDE8104000F0D3BB032082
:1045D00010BD00BFE0CA0F00DC5A0020807300202D
:1045E0006873002009460F00FD450F00107300207E
:1045F000C4CA0F00D0C50F00ACC50F00011F014891
:1046000002F0CDB8E0CA0F0013B5074C0A4601AB63
:104610000146204602F000FD019A0448214601F0BF
:104620004BFB02B010BD00BFF7720020ACC50F00FD
:1046300000F034BD083810B5062820D8DFE800F0B7
:1046400008141B1F1F1F0400BDE8104000F0ACBB86
:1046500003F02AFE08B900F0A5FB094B1B6873B1F3
:104660000120BDE81040184700F0B0FB044B1B6868
:104670002BB10220F5E7BDE8104000F097BB10BD5C
:10468000DC5A002003780BB900F008BD014A042170
:1046900000F07AB931460F00F8B5E9B9134E144C61
:1046A000144F3178124802F0EBFC054660B93846E9
:1046B000D4E9011207F048F80F4802F04AF818B19F
:1046C0000330C4E9010525700C480122314601F090
:1046D00015FB0028E5D0F8BD0229FCD1BDE8F84063
:1046E00002490648012201F009BB00BF28730020DF
:1046F0008073002068730020E0CA0F00ACC50F0073
:10470000074B1B5C1F2B86BF064903F01F034FF0AE
:10471000A041012202FA03F3C1F80835704700BF37
:10472000DCC50F000003005008B50020FFF7E8FFCC
:104730000120FFF7E5FF0220FFF7E2FFBDE8084098
:104740000320FFF7DDBFC20710B504460CD54FF0BC
:10475000A0430322C3F83427C3F83827C3F83C2703
:10476000C3F84027FFF7E0FFA3070AD54FF0A043A7
:104770000C22C3F82C27C3F83027C3F86027C3F8EE
:10478000642710BD0E4B984214D00AD8B8B10D4919
:1047900048F2165248F20153884214BF1046184698
:1047A0007047094B984208D0084948F2165248F21F
:1047B0000353F1E748F20350704748F20250704744
:1047C0000102F0000002F0000202F0000F02F0000F
:1047D00008B5083007F076F8BDE80840FFF7D2BF0B
:1047E00013681F2B2DE9F34106460F46144620D9C6
:1047F000DFF84C800121404601F05CFF0546BFF325
:104800005F8FC8B900F07CF8394606F1080007F060
:10481000C5F8019000F082F8BFF35F8F0198C8F8E7
:104820000050FFF7AFFF08B92023236002B0BDE8B6
:10483000F08148F21450F9E748F20450F6E700BF5F
:10484000908300202DE9F04105460E4619480121CC
:10485000144601F02FFFBFF35F8F38BB00F050F814
:10486000DFF854800835B4F5805F274628BF4FF441
:10487000805731463A46404607F0D8F93A46414615
:10488000284607F039F8E41B3E4468B9002CEAD109
:1048900000F044F8BFF35F8F064B00221A602046F9
:1048A000BDE8F041FFF76EBF0446F1E748F204505F
:1048B000BDE8F0819083002090730020024B00201F
:1048C000C3F80005704700BF00A0025038B50A4B7E
:1048D00000251D60BFF35F8F084C0123C4F800352D
:1048E00007F08CF8C4F8005520B1052848F20350B1
:1048F00018BF032038BD00BF9083002000A00250E5
:10490000044B0122C3F80025034B4FF480625A6028
:10491000704700BF00A0025000E100E0064B0022FB
:10492000C3F80025054B4FF48062C3F88420BFF321
:104930004F8FBFF36F8F704700A0025000E100E07F
:104940004B1C30B5DB00044612F003009BB20DD1C6
:10495000074D2A601A44074B1A60074B1870074B23
:104960001870074B1C80074B198030BD0720FCE7EF
:104970009C8300209883002094830020A48300203F
:10498000A0830020A28300202DE9F347DFF8C08038
:10499000B8F800308B4206460D4617464CD300242B
:1049A0000DF107008DF8074001F084FD244B254AE6
:1049B00025481B78008892F800C084455FFA8CF186
:1049C00038BF4C1CDBB238BFE4B2A3422ED01478FF
:1049D0001178CBB2884286BF0133DBB2002313705B
:1049E0009DF8070001F08AFD4FF6FF739C4225D029
:1049F000DFF86090D9F800204FEAC40A42F834701A
:104A000002EBC403AEB1A5B1104BB8F800001B68AF
:104A10002A4604FB0030314607F008F9D9F8003087
:104A2000534400209D8002B0BDE8F0874FF6FF742C
:104A3000D6E700209880F6E70920F4E70420F2E7A3
:104A4000A483002094830020A28300209883002068
:104A5000A08300209C83002070B5104C104D22785C
:104A60002B789A4200D170BD0E480F4A2378126805
:104A700006880E4802EBC301006852F8332089888B
:104A800003FB060090470A4922780988D3B2914275
:104A900086BF0133DBB200232370E0E7A48300204C
:104AA00094830020A08300209C8300209883002012
:104AB000A283002043681B6818470000024B5B6814
:104AC00003B11847704700BFA8830020020600F01A
:104AD0000F034CBF02480348DB001844704700BF77
:104AE000B4830020FC83002008B5FFF7EFFF0160CE
:104AF00009B14B681968416008BD0000024B0146CE
:104B0000D3E90002104700BFFC83002038B5831EA4
:104B1000DBB2062B98BF1A4A1A4D98BFD25C2B788D
:104B2000A3F10203DBB288BF0022062B9ABF14490F
:104B3000CB5C00239342044603D0B2B1124802F08A
:104B40007DFB022C14D0A4F10800424242412B7894
:104B5000022B0FD0A3F108014B424B41934202D0EC
:104B600052B103F0EBFB2C7038BD02F0A1FBE8E77B
:104B70000122ECE70123F1E703F0D6FBF3E700BFE6
:104B8000F8C50F004D840020805900202DE9F04F1A
:104B900087B000260546884691461F4602966B68F8
:104BA00000225C682946012302A8A047044638B9C0
:104BB0008DF8060004908246564503D8052028E06B
:104BC0000136ECE76B680DF10602D3F804B0294614
:104BD000012304A8D8476B680DF10702D3F804B08D
:104BE0002946012304A8D8479DF8073043459DF87E
:104BF000063013D14C450FD1109A13603B7087F8E3
:104C000001806A68023B54682946BA1C04A8A04780
:104C1000002007B0BDE8F08F0134E4B26A68023BBF
:104C2000D2F804B02946002204A8D8479DF80630DF
:104C30009A44C1E70378052B0BD1074AD2F8843494
:104C4000D2F88024D2B222B9044ADBB2052B08BFC5
:104C50001046034B1B6818470070024010C60F0037
:104C6000A8830020FFF7E6BF012805D0022805D061
:104C700030B90448FFF7DEBF0348FBE70348F9E714
:104C8000704700BF0CC60F0008C60F0004C60F0017
:104C90000148FFF7CFBF00BF14C60F002DE9F7434F
:104CA00005462B4803F060FB044600284CD1294BF5
:104CB0001870294B1860294B014618604822284873
:104CC00006F0DCFF27484822214606F0D7FF264B96
:104CD00095B9264A1D72C3E90025002002F07CFB2D
:104CE00018B1852801D0FFF70CFB214F002697F85B
:104CF000089007F1090814E095E8070083E8070029
:104D00000028EAD1194A1A60E7E7A3782344394614
:104D1000985CFFF7E9FE01356378EAB29342F4D874
:104D20000136F4B2A14504D904EB440444440025FF
:104D3000F2E70B230E488DF8043001A9FFF7BAFE05
:104D4000044608B103F0D8F9204603B0BDE8F0836B
:104D5000654C0F004D8400204484002048840020CE
:104D6000B4830020FC830020A88300209D500F0006
:104D700030C60F0010B503F08FFA10B9082318469B
:104D800010BD03F091FA04460028F7D1044802F060
:104D900057FB03460028F2D0FFF7B3FA2346EEE7AD
:104DA00000C60F0003F0B2B903F0FABD4FF0804324
:104DB000D3F83824920702D50348FFF73BBFD3F856
:104DC0003824D107F4D4704719C60F0007B58223E1
:104DD00001A88DF80430FFF72DFF03B05DF804FB48
:104DE0002DE9F74300F1090190F8089005460027E6
:104DF0000E46FBB24B452AD291F801800024E3B263
:104E000098450AD98B780A190134D05CFFF75EFE09
:104E10000368002BF3D0112028E001370331E8E7C5
:104E2000A27823442946985CFFF75EFE013762783A
:104E3000FBB29A42F4D808F101082B7A5FFA88F4A1
:104E4000A34216D904EB440434440027EFE74FF0A3
:104E50000008F2E713681A68002AFBD11D6001A957
:104E60000B2328468DF80430FFF724FE03B0BDE87D
:104E7000F083014BEFE700BF44840020024B187819
:104E8000003818BF012070474C840020030710B57C
:104E9000044604D403F08CFB204603F04FFE20466A
:104EA000BDE8104003F0F4BD03F0C0BD014B18682D
:104EB000704700BF44840020F0B50A4B02461868D2
:104EC00078B1057A0023861DDCB2A54201D80368BB
:104ED000F5E7013303EB4307F75D9742F4D101B1E6
:104EE0000C70F0BD448400201146FFF7E3BD08B507
:104EF00000F00F03082B07D8FFF7E8FD006818B192
:104F0000BDE80840FFF7D6BD102008BD38B5054BF9
:104F100005461C6804B938BD29462046FFF7CAFD7E
:104F20002368F6E74484002038B5074B05461C6823
:104F30000CB9062038BD29462046FFF7BBFD0628E0
:104F4000F8D12368F3E700BF4484002013B504467A
:104F5000019103F04FFA50B1064B1B78022B06D19A
:104F60000199204602B0BDE8104003F053BA082072
:104F700002B010BD4D84002013B50446019103F02A
:104F800039FA50B1064B1B78022B06D10199204605
:104F900002B0BDE8104003F0B7BA082002B010BD5F
:104FA0004D840020F8B543689B6805460C461646BC
:104FB00013B92EB1072002E098470628F9D0F8BDB2
:104FC0002B7AA34213D9093504EB44042C446778A7
:104FD000F3B29F4201D80020F1E762789A4208D9E3
:104FE000A219A378D05CFFF751FF0136F0E7737880
:104FF000FFDE00231B78FBE770B54368DB680546DE
:105000000C4603B198472B7AA34213D9093504EB18
:1050100044042C4400256678EBB29E4200D870BD53
:1050200062789A4209D96219A378D05C03F0FEFC39
:105030000135F1E700235B78FFDE00231B78FBE7F7
:1050400043681B6903B118471846704770B5084B91
:105050001C6804B970BD267A0025E9B28E4201D8D9
:105060002368F5E700222046FFF79CFF0135F4E7AF
:105070004484002070B5084B1C6804B970BD267AC2
:105080000025E9B28E4201D82368F5E72046FFF7F4
:10509000B3FF0135F5E700BF4484002038B503783D
:1050A0000F2B044610D9A3F1800283F08003052B57
:1050B00000D938BD052AFCD8DFE812F067002C00C3
:1050C000490073007E00E0000F2BF2D801A252F8D5
:1050D00023F000BFDB510F000B520F006B520F008B
:1050E0002F520F004D520F007D520F008F520F00B4
:1050F000B3500F00B9520F00BD520F00C1520F0044
:10510000B3500F00B3500F00B3500F00B3500F0057
:1051100087520F006B48FFF7F1FC6A48FFF7F6FE75
:105120000D20FFF7CBFCFFF7A5FF00F0DEFE664B7E
:105130001B6853B9654B187A00F0010003F088F83A
:105140000120BDE83840FFF7E1BC0120F4E7FFF79C
:1051500091FF03F003FC0020FFF7D8FC5C48FFF749
:10516000D5FE5B48FFF7CAFC0E20FFF7A7FC594BA2
:105170001B78023BDBB2062B9BD8574AD35C002B33
:1051800097D0BDE8384002F093B8524B1B78062BFD
:1051900005D003F0FD03052B8BD10220D1E70820B9
:1051A000CFE74C4B1B78032B83D103F013FC002873
:1051B0003FF47FAF0420C4E7464B1B78032B05D197
:1051C00003F008FC10B10420FFF7A0FC03F076F810
:1051D00000283FF46EAF0620B3E73E4B1B78032B4D
:1051E00001D0082B02D13D48FFF758FF0020FFF700
:1051F00065FC354B1D68002D3FF45BAF284621460A
:10520000FFF758FC2B685D68F5E7FFF733FF00F008
:1052100063FE0220FFF77AFC0120FFF74FFC2046D7
:10522000FFF76CFC2046BDE83840FFF76FBE294B06
:105230001B78082B06D10220FFF768FC03F088F8E2
:105240000320EAE70520FFF761FCF9E70320FFF7F9
:1052500035FC2348FFF752FC2148FFF757FE1D4B52
:105260001B78062B99D107206BE70320FFF74EFC34
:105270000220FFF723FC2046FFF748FE2046BDE84A
:105280003840FFF73BBC0F20FFF718FCCAE78078D7
:10529000FFF71CFC214643680068984700283FF44C
:1052A00008AFA07802073FF404AF03073FF501AF52
:1052B000BDE8384003F06EB90820E5E70920E3E7D0
:1052C0000A20E1E718C60F0048840020A8830020C8
:1052D00017C60F004D840020F8C50F0016C60F003A
:1052E00015C60F00C36903B1184770470368002251
:1052F000C3E91E22C3E920221A845A62DA6203F14A
:1053000034025A67704710B5044658B90868037BE1
:10531000202B09D100F10E010722183006F086FC7F
:10532000204610BD0320FCE70620FAE74360CA6967
:105330009A420DD38A690260C8691A448A610A6F69
:10534000C01A1A44C86100380A6718BF01207047A4
:1053500001F1280202608B6700207047F0B50468F5
:105360000D7A002C00F08780A4F213347C2C00F21C
:1053700022837C2C00F21F83DFE814F085008F006D
:105380009D00A900B500C100CD00D9001D031D037B
:105390001D031D031D031D03EF00FB001D031D0363
:1053A0001D031D031801240132011D031D031D03EC
:1053B000450151017F011D031D031D031D036701ED
:1053C00073017F011D031D031D031D031D031D0329
:1053D0008B011D031D031D031D039F01AB01B701BD
:1053E000C301CF011D031D03DB01E701F301FF0131
:1053F0000B021D031D031C022802340240021D0380
:105400001D034C025802640270027C021D031D033E
:105410001D031D031D031D031D031D031D031D038C
:105420001D031D031D031D031D031D031D031D037C
:105430001D039B02A7021D031D031D03C0021D03C4
:105440001D031D031D03DD021D031D031D031D039D
:10545000DD021D031D031D031D031D031D03E902C2
:10546000F5021D031D031D031D0313031D031D036F
:105470001D031D0313030824047123B940F21333E1
:1054800003600120F0BD0AB1047914700B24012BD4
:1054900004710ED84FF44573F2E700240AB106797F
:1054A000165501340E7D06719C4205D340F215332A
:1054B000E6E70124F2E700240AB106791655013423
:1054C00002269C42067103D340F21633D8E700242B
:1054D0000AB106791655013402269C42067103D39F
:1054E00040F21733CCE700240AB10679165501348F
:1054F00002269C42067103D34FF44673C0E7002492
:105500000AB10679165501344E7E06719C4203D3CA
:1055100040F21933B4E700240AB106791655013474
:1055200000269C42067103D340F21A33A8E70024F8
:105530000AB1067916559D4E0027013437709B4EEF
:105540003678AE4202D340F29A3399E70926A34255
:10555000067103D840F2213392E700240AB106799C
:105560001655013404269C42067103D340F22233BF
:1055700086E700240AB1067916558C4E0F7A3678E4
:10558000DFF82CC2B74204F1010440F2188201F1A5
:10559000090706EB460607EB060E9C42BE5DCCF8FB
:1055A00000E0067103D340F2273369E700240AB113
:1055B00006791655013400269C42067103D34FF438
:1055C0004A735DE700240AB106791655784E3668AD
:1055D0000134767806719C4203D340F229334FE7B9
:1055E00000240AB106791655714E0F7D366836785B
:1055F000B74204F101041ED102269C42067103D376
:1056000040F22D333CE700240AB1067916550134E7
:1056100002269C42067103D340F22E3330E7002469
:105620000AB10679165501344E7E06719C4225D387
:1056300040F22F3324E78F7DB74223D10A269C42C4
:10564000067103D34FF44D731AE700240AB10679AB
:105650001655013400269C42067103D340F23533BF
:105660000EE700240AB106791655013400269C4243
:10567000067103D340F2363302E700240AB10679FB
:10568000165501340026A342067103D840F23D337B
:10569000F6E600240AB106791655454E0F7D3668A8
:1056A0003678B74204F1010440F0E98005269C42B7
:1056B000067103D340F24233E2E600240AB10679D0
:1056C0001655013424269C42067103D340F243331D
:1056D000D6E600240AB106791655013400269C420C
:1056E000067103D34FF45173CAE600240AB1067958
:1056F0001655013410269C42067103D340F24533FF
:10570000BEE600240AB106791655013401269C42F2
:10571000067103D340F24633B2E600240AB106799B
:105720001655013405269C42067103D340F24933D5
:10573000A6E600240AB106791655013424269C42B7
:10574000067103D340F24A339AE600240AB106797F
:105750001655013401269C42067103D340F24B33A7
:105760008EE600240AB106791655013403269C42C0
:10577000067103D34FF4537382E600240AB106790D
:10578000165501348E7D06719C4203D340F24D3391
:1057900076E600240AB106791655013404269C42A7
:1057A000067108D34FF454736AE600BF4F8400209B
:1057B0005484002000240AB10679165501342426A9
:1057C0009C42067103D340F2513359E600240AB1DA
:1057D00006791655013402269C42067103D340F225
:1057E00052334DE600240AB10679165501340226DB
:1057F0009C42067103D340F2533341E600240AB1C0
:1058000006791655013405269C42067103D340F2F1
:10581000563335E600240AB106791655013424269C
:105820009C42067103D340F2573329E600240AB1A3
:1058300006791655013406269C42067103D34FF4AF
:1058400056731DE600240AB10679165501340E7D03
:1058500006719C4203D340F2593311E600240AB189
:105860000679165501348E7D06719C4203D340F2B1
:105870005A3305E600240AB1067916550134534E11
:1058800036687778524E3770524E00273770514E37
:1058900037784F4E3678B74204D34F4F3E780136B3
:1058A0003E704CE60726A342067103D840F26E33E1
:1058B000E6E500240AB106791655013405269C4216
:1058C000067103D340F26F33DAE500240AB106799A
:1058D00016553E4E3F4F36683F7896F801C0BC459E
:1058E00004F1010470D996F802C03E449C4216F8B7
:1058F0000C60067103D340F27333C1E500240AB192
:1059000006791655314E0F7D36683678B74204F168
:10591000010406D103269C4206710DD34FF45E7339
:10592000AEE58F7DB7420BD102269C42067103D3B0
:1059300040F27D33A4E500240AB1067916550134FE
:105940004026A342067103D84FF4617398E5002402
:105950000AB106791655013400269C42067103D31C
:1059600040F285338CE500240AB106791655174EAE
:105970000F7D36683678B74204F1010407D10E6A0C
:105980009C42367806710DD340F28A3378E58F7DDC
:10599000B7420BD100269C42067103D340F28F33ED
:1059A0006EE500240AB1067916550134094F3E7898
:1059B00001363E706BE700230360184662E5002362
:1059C000CCF800301B78FFDE0023FBE75484002076
:1059D0004E840020508400204F840020037A012B45
:1059E00008D9427B012A00F10C0306D9827B1344BB
:1059F0005878704700235B78FFDE00231B78FBE7B5
:105A00002DE9F0470B7888B005460E460E2B1AD8C4
:105A1000DFE813F0600042016000600019000F0031
:105A2000AD00190019003F0119006000600060001E
:105A300060004A78D1094FEA521335D013F00303BE
:105A400003D0012B21D006241BE002F01F02012A03
:105A5000F9D1B478062CF6D105A8039300F0BCFC6C
:105A600003AB0093F2783179034607462846FFF7E7
:105A70008DF8052805D0039A3946701C00F050FABD
:105A80000446204608B0BDE8F087B378212BDAD170
:105A9000B6F80720072AD6D10168701C183108B063
:105AA000BDE8F04700F03CBA012BCCD1B3780768D1
:105AB000202B11D0222BC6D1B6F80730002BC2D133
:105AC0003A8CB6F803303B8402F0010203F0010186
:105AD0008A4227D10024D4E7B6F80720072AB2D19A
:105AE0003B73B6F80730DBB27B7300240DF10B007B
:105AF0000E37CDE9057307948DF80B4000F0DAFC02
:105B0000204605A9FFF722FA044630B9684B03A9DD
:105B1000CDE9033500F0F2F904469DF80B0000F0E2
:105B2000EDFCAEE78CB2C1F10301C9B2FFF7DAFBBD
:105B3000002CCFD12B7A012B40F2B4806B7B05F186
:105B40000C02002B00F0B080AB7BD05C02F05CFE5E
:105B50002846FFF743FF02F057FE07F13403C7E979
:105B60001E44C7E920447C62FC627B6789E7037AB4
:105B7000002B00F09B80837A00F10901002B00F0DC
:105B80009380C27AB3788A5C9A42A3D01B06F778D6
:105B900009D527B1032F14BF0324002471E7012185
:105BA000FFF7A0FB96E707F0FD03012B92D0002F33
:105BB00076D10668FFF712FF3E4B059306F10C0302
:105BC0000693B46A8146C4B9F36FB467C6E91F434C
:105BD000F36A63B1D6E90B0106F1240383E80300FD
:105BE000F46205A94846FFF7C7F9044600E074626D
:105BF00000212846FFF776FB43E7D6F884A0706AB9
:105C0000544528BF544606F134082246414606F062
:105C10000DF8F36F2344C6E91F73AAEB0403B367BF
:105C2000F36A444474672BB306F1240406F12C088C
:105C300098E8030084E80300B36F706AF7621BB949
:105C4000736A002BCDD116E0B26A716F9A4214D8F4
:105C500005F0ECFFB36AB26FC6F88030D21AB267B3
:105C6000726F1A44726700212846FFF73BFBF36A04
:105C7000002BDDD173620024BAE71A4605F0D6FF87
:105C8000B26FB36AF2679B1AB362736A13447362AA
:105C9000D6E70321FFF726FB2846FFF727FB19E786
:105CA0000324EEE66378FFDE1B78FCE75B78FAE717
:105CB00007530F002D530F001FB503681B8CDC0723
:105CC00014D5037A012B13D9437B00F10C0493B153
:105CD000837BE05C9306CDE901120CBF0123002316
:105CE00001A90393FFF732F904B010BD0820FBE7C8
:105CF00000235B78FFDE1B78FCE700002DE9FF4105
:105D00000468238CDB0780460F4616464BD50023DC
:105D10000DF107008DF8073000F0CCFB656A002D0F
:105D200039D1A16FB14214D3616F3246384605F0C4
:105D30007DFFA36FC4F880609B1BA367636F334430
:105D400063679DF8070000F0D9FB284604B0BDE862
:105D5000F081C4E909764046FFF740FE134B0293F9
:105D600004F10C030646039369B10A463846616F95
:105D700005F05CFFA36FA26AD21AA262626AC4E94C
:105D80001E531A44626202A93046FFF7F5F8051E59
:105D900008BF9225D5E7E36A1BB9C4E90B769225C3
:105DA000CFE71125CDE70825CFE700BF2D530F0022
:105DB000002070472DE9F04F2DED028B85B04B6828
:105DC000019280460C466BB90B681B681B684BB987
:105DD0008D683DB9C0E90055284605B0BDEC028B81
:105DE000BDE8F08F02F0D2FB019BE7689F4228BF1D
:105DF0001F4604F110034FF0000A08EE103A8146E6
:105E0000564601254FB3A3686168BB429B4628BF35
:105E1000BB4629B35A4609EB060005F007FF0023ED
:105E20006360A268E368A2EB0B02A3EB0B03A26022
:105E3000E360A7EB0B075E440ABBBAF1000F03D087
:105E40002268126812682260DBB12368DBB96360E4
:105E50001EB1019BB34288BF0025C8E90096BBE78D
:105E6000002BDED021684B6818EE100AD3F804A08E
:105E700009EB06025B46D0474FF0010AD1E7002B41
:105E8000C0D10025BEE70023029321684B680022A1
:105E9000D3F804B002A80123D84708B92061B1E7BC
:105EA000A3680133A360F0E7084B1A7882420CD054
:105EB000052818BF064A187018BF137805481CBF7C
:105EC00023F002031370FFF7E9B8704764840020E1
:105ED0008084002040C60F0008B50020FEF7D6FFE2
:105EE000BDE808408020FEF7D1BF08B50020FEF7CE
:105EF000DBFFBDE808408020FEF7D6BF38B5054679
:105F00000C4602F0D5FBA84203BFD4E90001034BC5
:105F1000C3E90001102008BF002038BD84840020A0
:105F20007FB5C38893421E4628BF164693420D464E
:105F3000144625D9802002F057FAB4FBF0F202FB98
:105F40001044B4FA84F4640900230DF103000394AF
:105F50008DF80330CDE9015600F0ACFA01A980209C
:105F6000FEF7F4FF044620B906498020FFF7C6FF7C
:105F700004469DF8030000F0C1FA204604B070BD4D
:105F80000024E1E774C60F002DE9F04F0B780E2BCB
:105F900089B00D4613D8A3B1013B0D2B11D8DFE812
:105FA00013F012001A00160010002A00FA01100067
:105FB0001000100010001A00E401E801F801852B20
:105FC00013D00624E1E10320FFF76EFFF9E7A848AC
:105FD00000F0A2FB08B90024D7E1A64B0122DA6544
:105FE000BFF36F8FBFF34F8FF5E7A34B1B78032BE6
:105FF000E7D10420E8E70523A04D8DF814300DF11A
:10600000150002F0E5FA00232B609DF8153003F02F
:106010001F07032F00F26281DFE817F00400FB0086
:1060200057013E0013F0600FC3F3411834D1DB0970
:106030009DF8161000F0A680062916D0082900F059
:10604000938049BB8E4C0222204605F017FE237830
:1060500043F0010222708B4A1278920744BF43F04A
:1060600003032370022286490EE09DF81830022BAC
:1060700016D0032B68D0012B0ED1BDF81B30002B9E
:1060800000F07081804912220DF11500FFF748FFE2
:106090000446062C40F02A8105A8FEF745FF12E1D0
:1060A000BDF81B60002E00F05D81092E28BF092677
:1060B000FEF7FCFE4FF00909044674BB704C7349AF
:1060C0003246204605F0B2FD2771A4F80290FEF793
:1060D000D5FE18B1E37943F02003E371FEF7E6FE45
:1060E0006B4BC3E900049E60BDF81B20DA6003A877
:1060F00000238DF80C3000F0DDF966498020FEF7B2
:106100003BFF044620B964498020FFF7F7FE0446B0
:106110009DF80C0000F0F2F9BBE7CDF80C804FF0D1
:10612000000A63680022D3F804B02146012303A8C3
:10613000D84730B9237A1F442368D1441C68FFB282
:10614000BBE70AF1010AECE7BDF81B30002B00F0B9
:106150000981BDF819109DF8170000F08DF901466E
:10616000002899D002788FE7434A1278052A03D194
:10617000434A1370012276E7042A8DD1404B83F8FD
:106180000080F7E7032910D009292CD0012983D1F9
:10619000BDF81730012B7FF47FAFFEF76FFE60B1C3
:1061A000384A137823F002030FE0BDF81730012BB3
:1061B0007FF472AFFEF762FE18B90F2402F06EFA98
:1061C000E3E0304A137843F0020313702B68002B8E
:1061D00000F0C88002F06CFA044600287FF4FBAEA1
:1061E00002F01CFAD1E0244B1B78043B012B01D9AF
:1061F0000824E3E79DF817302BB9FEF73BFF042096
:10620000FFF752FEE2E7012B56D1FEF71FFF0520F4
:10621000F6E79DF8190003A9FEF74EFE064608B9F9
:106220001024CBE79DF80C1005AAFEF75DFE0628AA
:1062300004465BD19DF8152012F0600FBED10E4BC5
:106240009DF80C1018789DF81630D2092CD02BB37D
:106250000A2BB3D10528CBD130460192FEF7F0FED0
:106260000749019A08700DF11500FFF759FE2AE061
:106270008C8400200070024064840020848400200C
:10628000908400208084002060C60F0041C60F006B
:10629000688400207CC60F0074C60F000528A7D1B3
:1062A0004A490B800222DEE70B2B87D105289FD1BC
:1062B000BDF81730FF2B01D907247FE79DF8172081
:1062C0003046FEF76FFE044610E09DF81900070700
:1062D00006D19DF8153013F0600F0BD006246DE742
:1062E00005A9FEF704FE06280446F2D0002C3FF470
:1062F0006DAF63E79DF81620354B9DF819401B786C
:10630000012A1DD0032A0CD0002AE7D1052B02D088
:1063100026077FF46DAF204602F048F92B4908802C
:10632000C0E72007DAD4BDF81720002AD6D1052B04
:1063300002D021077FF45CAF204602F02BF945E73D
:106340002207CBD4BDF81720002AC7D1052B02D0D5
:1063500023077FF44DAF204602F02AF9204602F0D1
:10636000EDFB33E702F090F935E60020FFF79CFDE6
:1063700031E64FF08043D3F8384414F0010401D0E3
:106380000220F3E70120FFF78FFD204609B0BDE8AA
:10639000F08F0120EAE7C87803283FF412AE0D4ED3
:1063A00033688BB100227168326098470446002838
:1063B0007FF404AF336823B1AB78002B7FF40BAECE
:1063C0000EE702F061F9E0E70E24F7E69084002082
:1063D000648400208484002008B1402303600148C5
:1063E000704700BF9084002070B54FF0805286B097
:1063F000D2F8A830D2F8A42000926FEA83436FEA63
:1064000093430B4A0B4E9BB20D2102A805F03EFCB4
:1064100002AD002402A805F06DFC844201D306B051
:1064200070BD15F8013B06F8013B0134F2E700BFEF
:1064300084C60F00D084002010B50E4B53F82040C6
:1064400023780BB9A01C10BD0020FFF7C5FF013C4D
:1064500000235A1CA15C39B9DBB201335B00DBB20B
:1064600043F440730380EEE7D3B220F813101346D1
:10647000EFE700BFDCC60F00034608B9FFF7DCBF3B
:10648000012807D0022805D0032803D0042801D012
:10649000052809D1054800EB4303587820B1044B87
:1064A00053F82030002BE9D100207047F4C60F00CC
:1064B000DCC60F0070B5EFF3108672B60C4A946814
:1064C00001239CB993600B4B0B4DD3F880102940EE
:1064D0001160C3F88050D3F8841051604FF0FF3240
:1064E000C3F88420047006B962B670BD0370FAE781
:1064F000E084002000E100E0FC06FFBD10B5084B81
:106500009A685AB150B9EFF3108172B6054A1C6807
:1065100014605C685460986001B962B610BD00BF39
:10652000E084002000E100E030B53AB11368DB43BD
:106530000A4D0144814204D1D84330BD4FF0FF33AE
:10654000F6E710F8012B5340082213F0010418BF9E
:106550002C46013A84EA5303F7D1EBE72083B8EDE8
:1065600010B561B1B2FBF3F403FB1424A4B244B937
:10657000C0E9001484608281C381204610BD0E20D2
:10658000FCE70920FAE782B050E8022FC188B2EB9D
:10659000324F4FF0000317BF92B241EA014142EA85
:1065A000014104E04268B2EB324F08BF012340E8EA
:1065B0000212002AE8D18DF807309DF80730002B31
:1065C0000CBF1120002002B0704737B550E8013FE2
:1065D0009DB2C48925448489A54228BF2D1B048906
:1065E000A54202BFBFF32F8F002207E0C5EA0305D3
:1065F00040E80154002CE9D14FF001028DF803204E
:106600000193019A0A609DF8031001F0FF0321B184
:10661000006810FA82F003B030BD1846FBE70A8824
:106620004B889A4209D150E8012FC2EA024240E861
:106630000123002BF7D1012070470020704737B5A8
:1066400050E8023F1FFAA3F5C488A54202BFBFF37A
:106650002F8F00220DE0C48925448489A54228BFDC
:106660002D1BC3EA054540E80254002CE8D14FF049
:1066700001028DF803200193019A0A609DF803102E
:1066800001F0FF0321B1006800EB124003B030BD00
:106690001846FBE70A884B889A4209D150E8022F36
:1066A000C2EA224240E80223002BF7D101207047C2
:1066B0000020704710B5034653E8000F0A4643E830
:1066C000002494F0000FF7D110BD10B5034653E835
:1066D000000F40EA010243E8002494F0000FF6D1D5
:1066E00010BD10B5034653E8000F00EA010243E86D
:1066F000002494F0000FF6D110BD10B5034653E806
:10670000002F02EA010043E8000494F0000FF6D1E4
:1067100010BD0121FFF7D9BF0021FFF7E2BF002123
:10672000FFF7EBBF10B590B1D0E9012301689B1AC8
:10673000DBB20A60013BDBB2FF2B026802D1002012
:10674000107110BD11684C1C14600B70F2E70E2024
:10675000F7E737B5044600250DF107008DF807501F
:10676000FFF7A8FE2268616813688B4210D9591E92
:10677000116013F8013C228AE56802FB0355226888
:10678000A36811685B1A1179DBB2994238BF1371A3
:106790009DF80700FFF7B2FE284603B030BD37B5BD
:1067A000054600230DF107000C468DF80730FFF772
:1067B00081FE2A681368591C1160E968641A298AE5
:1067C000B4FBF1F41C709DF80700FFF797FE03B0CF
:1067D00030BD01600B681146184710B40468E468C6
:1067E000A4465DF8044B604710B404682469A446CD
:1067F0005DF8044B6047000070B550B90E4D0F4C6A
:106800000026641B1423B4FBF3F4B44208D1002027
:1068100010E00368002BF1D0BDE87040DB69184739
:106820002B6813B901361435EFE7DB692846984722
:106830000028F7D070BD00BF245A0020385A00202D
:10684000014B43600020704700C70F0008467047A7
:1068500000207047024B1868003818BF01207047AD
:10686000EC84002008B50248FFF759FF002008BD5E
:10687000EC84002008B510461A4605F0D7F9002030
:1068800008BD00002DE9F041804686B011480F4652
:1068900016461D46FFF73DFF0446C8B9AA08314613
:1068A000384600F027FE0B48FFF739FFD8F80830CC
:1068B00053B101228DF800200C9A0592CDE90147D1
:1068C000CDE9036568469847204606B0BDE8F081EB
:1068D0001124F9E7EC8400202DE9F043814687B0CC
:1068E00014480E4615469846FFF713FF0446F0B9C4
:1068F0000746BD4215D10F48FFF711FFD9F8083000
:106900005BB102228DF800200022CDE90126CDE9FD
:106910000325CDF8148068469847204607B0BDE8A7
:10692000F08306EB073000F0B7FD0137E1E71124F3
:10693000F3E700BFEC84002029DF704728DF7047B1
:1069400070B50668B36886B004460D4673B114226C
:106950000021684605F092F9A36805932379019513
:1069600033B1012B0ED0B3686846984706B070BDAE
:1069700001238DF8003023690293E3680393636970
:106980000493F0E702238DF80030E3681B030293C1
:10699000F5E708467047002070470000024B187A60
:1069A000003818BF01207047DC860020034B187A9E
:1069B0000122B0FA80F05A7440097047DC8600204A
:1069C00008B510461A4605F031F9002008BD000050
:1069D00008B514220021044805F050F90348FFF7D8
:1069E000D2FD002008BD00BFDC860020CC86002040
:1069F00010B5094C094B43602046FFF78AFE48B9A1
:106A000000F018FA064920741C2306484FF4EE7271
:106A1000FFF7A6FD002010BDDC8600202CC70F006C
:106A2000F0840020CC86002038B5224D224C2B7AF1
:106A30003BB922492248FFF702FE206008B968608E
:106A400038BD022324682B72237973B1012B22D025
:106A500020460321FFF774FF00232B726B60174958
:106A60001748BDE83840FFF715BED4E90523D21A10
:106A7000142AD4E9031028BF14229208012A38BF2F
:106A8000012219441844FFF757FF50B11128DFD1F4
:106A900001232B72D4E7D4E903031844FFF74EFF18
:106AA000F3E72B7C002BCBD1BDE83840022000F06F
:106AB00009B800BFDC860020F4860020F0860020A4
:106AC000CC86002038B5224C237A002B3FD0022BF5
:106AD00009D103282ED01F4B00221B68E2601A79CF
:106AE0003AB1012A20D0637C6BBBBDE83840FFF788
:106AF0009BBFD3E905128D1A142D94BF521914327D
:106B00009A619142EFD102284FF0000308BF194665
:106B10002372104B18BF0D211868FFF711FF0E49A3
:106B20000E48FFF7B7FDDEE71A6901321A615B69AB
:106B30009A42E7E7E3680133082B01D8E360D2E724
:106B40000023E360DFE7BDE8384000F063B938BDFB
:106B5000DC860020F4860020F0860020CC86002011
:106B6000831E012B01D8FFF7ADBF704700F0FD0376
:106B7000012B08D1044B00225A74421E504250414E
:106B80001874FFF751BF7047DC86002010B5064C23
:106B9000201DFFF7BEFD28B9637C1BB9BDE810407E
:106BA000FFF742BF10BD00BFDC8600202DE9F34196
:106BB00080460D460F4801A916461F46FFF705FD02
:106BC0000446A8B11C22002105F058F82D0B012322
:106BD000237101A90748C4F80080A760E5606661D9
:106BE000FFF71DFDFFF7D2FF002002B0BDE8F081E6
:106BF0000420FAE7CC8600202DE9F7438146884639
:106C0000104801A917461E46FFF7DFFC0446B0B145
:106C10001C22002105F032F800250A9BA36001A97F
:106C2000C4E9037807482571C4F800906661FFF74E
:106C3000F6FCFFF7ABFF284603B0BDE8F083042065
:106C4000FAE700BFCC86002001600B6843604A6809
:106C5000934204BF002343607047436843B1026816
:106C600091680B4443605268934204BF0023436021
:106C7000704710DF704711DF7047000013B50446FE
:106C800009496846FFF7E0FF019808B902B010BD56
:106C9000D0E900212046904718B16846FFF7DDFF94
:106CA000F2E71120F2E700BF5CC70F0013B50446FE
:106CB00007496846FFF7C8FF019B0BB902B010BD3A
:106CC0002046D3E9002190476846FFF7C6FFF3E767
:106CD00074C70F00084B9A6822B11A6822F4800228
:106CE0001A607047054B4FF48002C3F88020BFF351
:106CF0004F8FBFF36F8F7047E084002000E100E00A
:106D00000B4991F816335A09EC231341DB0706D5DA
:106D1000084B9A683AB94FF480030B60704742F20F
:106D20000200FDF7EEBA1A6842F480021A6070475A
:106D300000E100E0E0840020F7B5194F3C7864BB27
:106D4000184E012520463570FFF798FF112821D0F5
:106D50002046FFF7ABFF144B8DF8034018680190F5
:106D60000DF10300FFF7A6FB104901A8FFF781FF13
:106D70000446B0FA80F0400938709DF80300FFF730
:106D8000BDFB3CB90A4B34701C70FFF7B9FF2846B5
:106D9000FFF78CFF204603B0F0BD0824FAE700BFE0
:106DA000F9860020F886002058C70F00FD420F002A
:106DB000FA860020F7B5154F3B781BB3144E01201F
:106DC0003070FFF75BFF11284FF000051CD0022048
:106DD000FFF76CFF0DF107008DF80750FFF76AFB16
:106DE000FFF749FF04469DF807003D70FFF786FB5B
:106DF0002CB903203470FFF76DFFFFF757FF2046D3
:106E000003B0F0BD0824FAE72C46F8E7F986002025
:106E1000F8860020054B1B7833B1054B1B780BB16E
:106E2000FFF7C8BFFFF788BF08207047F88600202B
:106E3000F9860020014B1878704700BFF9860020C2
:106E400007B508496846FFF7FFFE019B13B903B079
:106E50005DF804FBD3E9002090476846FFF7FDFE8C
:106E6000F3E700BF68C70F00FFF7EABF60DF7047B6
:106E700069DF704761DF704730B5134DADF5017DB7
:106E80004FF4FA740DF1020103A8ADF80240FFF7C8
:106E9000F1FF70B9294601A8FFF7D6FE029B002B2F
:106EA000F0D003A8D3E90021904701A8FFF7D5FE51
:106EB000F4E7052805D00DF5017DBDE83040FDF76C
:106EC00020BA0DF5017D30BD80C70F00024B1B7845
:106ED0000BB1FFF7D1BF7047FB86002018B1034B01
:106EE0000360002070470E20704700BF78590020D3
:106EF000F0B5074685B00D4600295DD02F4B0B60DD
:106F00000C22002101A804F0B9FE012606232A68FC
:106F1000ADF8083001A920208DF804708DF80660C6
:106F2000FFF7A6FF0C22002101A804F0A7FE002411
:106F30002A688DF8056001A94020ADF80640FFF7EA
:106F400097FF0C22214601A804F098FEF7232A6837
:106F5000ADF8063001A923208DF80470FFF788FFF3
:106F60000C22214601A804F089FE2A688DF80460ED
:106F700001A93046FFF77CFF0C22214601A804F04E
:106F80007DFE4FF4B0632A68019301A9A120FFF7A9
:106F90006FFF0C22214601A804F070FE9DF804301A
:106FA0002A6864F3000301A9A0208DF80430FFF7DC
:106FB0005FFF204605B0F0BD0E20FBE778590020AA
:106FC00008B5FFF753FF10B9014B01221A7008BD35
:106FD000FB8600204BDF70471FB50E4C01A8FFF762
:106FE000F9FF70B9214602A8FFF72EFE039B002B84
:106FF000F4D00198D3E90021904702A8FFF72DFEB5
:10700000F4E7052804D004B0BDE81040FDF779B9D5
:1070100004B010BD8CC70F00F0B578B371B36BB37B
:1070200000241C608E18DB274FF0DC0C4FF0DD0EC7
:107030001A688E4202F1010400EB020504D11C60C3
:10704000C0232B700020F0BD0D78C02D05D0DB2DA6
:107050000CD01C600C78845406E01C6087541A68BD
:10706000541C1C6000F802C00131E1E71C6085542B
:107070001A68541C1C6000F802E0F5E70E20E2E7F5
:1070800010B580B3D0E902239A422ED00378012BA9
:107090000FD0022B21D053B9C02928D0DB2902D12F
:1070A0000123037003E04368541C84609954112049
:1070B00006E0DC2905D0DD290AD0022303700B206D
:1070C00010BD511C43688160C02199540023E8E73A
:1070D000511C81604368DB21F7E7C029E7D1002319
:1070E00003708360E3E70E20EAE70420E8E7184630
:1070F000E6E742DF704743DF7047000038B5074CD2
:10710000051E04F1080318BF1C4623682BB11A683A
:1071100022605B6828469847F7E738BD048700205F
:1071200020B9054B01225A70FFF7E8BF012802D1B0
:10713000014A9070F8E77047FC86002020B9034BA5
:1071400001225A70FFF7DABF704700BFFC860020AB
:1071500038B50E4C2378B3B90D486360A360236142
:10716000E36000F0FDF90546FFF764FE08B900F0A2
:1071700003FA01232370074BD3F800340BB101232A
:10718000A370284638BD8525F5E700BFFC860020A2
:1071900021710F000000014037B50D4C00230DF1A7
:1071A00007008DF80730FFF785F9E368013BE360DE
:1071B000E36833B9074BD3F8005415B900F0F2F97E
:1071C000A5709DF80700FFF799F903B030BD00BF27
:1071D000FC86002000000140012813B50CD00328D4
:1071E00020D038B9134B0122C3F88020BFF34F8F52
:1071F000BFF36F8F02B010BD0F4C00230DF10700DD
:107200008DF80730FFF756F923780BB9FFF7A0FF89
:10721000E3689DF807000133E3600123A370FFF7E3
:107220006DF9E7E700F0A8F902B0BDE81040FFF7FC
:10723000B3BF00BF00E100E0FC86002037B51B4C67
:107240006378054603F0FF029BB110B1436800204C
:10725000984700230DF107008DF80730FFF72AF952
:1072600063689DF8070001336360FFF747F903B0D7
:1072700030BD0DF107008DF80720FFF71BF925B190
:10728000A268134653B92A60A5606368002BE7D152
:10729000FFF7D0FD30B1FFF72CFFE1E79D42F4D0BE
:1072A0001B68EFE700F08FF9DAE700BFFC860020EB
:1072B00073B50F4C00230DF107008DF80730FFF771
:1072C000F9F86368013B6360666836B9FFF7B2FDA1
:1072D000054640B1FFF70FFF66709DF80700FFF706
:1072E0000DF902B070BD00F07BF96570F5E700BFE5
:1072F000FC86002036DF70474DDF70474EDF704759
:107300004FDF704750DF704710B50446FFF7F6FFB8
:1073100040B92046FFF7F0FF20B92046BDE81040F5
:10732000FFF7EEBF10BD012810B5044602D100F0F2
:10733000A7F9804700F0AAF9034668B10A2C07D0E4
:107340000B2C07D0092C07D10220BDE810401847AC
:107350000020FAE70120F8E710BD0000012813B56E
:10736000044603D003281CD002B010BD00230DF149
:1073700007008DF80730FFF79DF800F081F910B194
:107380002046FFF7B7FF9DF80700FFF7B7F800F0BA
:107390007DF90028E8D0012002B0BDE81040FFF7D9
:1073A000B3BF0C4BC02283F8002301221A6000F007
:1073B00067F920B14FF080430422C3F8042300F0A2
:1073C00065F90028D0D04FF080434FF46072C3F8C5
:1073D0000423C9E700E100E038B50A4D2B780446E4
:1073E00063B9FFF727FD58B90748002C18BF20469E
:1073F00000F052F908B901232B7038BD8520FCE755
:107400000820FAE71087002098C70F0013B5002462
:107410000DF107008DF80740FFF74CF8FFF70AFD64
:1074200058B12046FFF770FF9DF80700FFF766F898
:1074300002B0BDE8104000F065B900F05CF9F3E778
:107440001FB50190FFF7E2FF019800F047F9FFF741
:10745000F1FC0446A0B10120FFF756FF044660B9D5
:1074600003A8FFF74FFF044638B9039BDB0704D599
:1074700000F00CF9034620469847204604B010BDA2
:1074800000F032F9F9E70000024AD2F80034002B8C
:10749000FBD0704700E001400A4908B50223C1F85B
:1074A0000435BFF36F8FBFF34F8FC1F80805FFF7A7
:1074B000EBFF0023C1F80435BFF36F8FBFF34F8F8D
:1074C00008BD00BF00E0014010B5094C0123C4F81D
:1074D0000435BFF36F8FBFF34F8F0160FFF7D4FF09
:1074E0000023C4F80435BFF36F8FBFF34F8F10BD77
:1074F00000E0014070B50E4E01231546C6F8043574
:10750000BFF36F8FBFF34F8F0024AC4207D100232E
:10751000C6F80435BFF36F8FBFF34F8F70BD51F8BE
:10752000243040F82430FFF7AFFF0134EDE700BF0F
:1075300000E0014010B5034653E8000F00EA0102E5
:1075400043E8002494F0000FF6D110BD00F1804014
:10755000002382B0036003680193019B02B070476F
:10756000044A137923B901211060918018467047AD
:107570008520704714870020084B1A68D20704D46E
:10758000C02283F8002301221A604FF080420123B9
:10759000C2F81835024A1370704700BF00E100E0DE
:1075A0001C8700204FF0804208B50223C2F8083340
:1075B0004FF48270FFF7CAFF0123D360D2F818346A
:1075C000DB03FBD408BD08B54FF48070FFF7BEFFA6
:1075D0004FF080430122C3F804231A6008BD000065
:1075E0004FF08042012108B54FF48070C2F80813B3
:1075F000FFF7ACFF5160D2F80C3403F00113B3F184
:10760000011FF8D0014B00225A7108BD14870020D9
:1076100010B54FF08041D1F8003163B14FF4807064
:10762000FFF794FF01220D4BC1F80823587910B9D8
:107630005A711B6898474FF08042D2F8043163B109
:107640004FF48270FFF782FF0223C2F80833034B26
:10765000BDE810401B680120184710BD14870020AA
:1076600000F1804382B01A68002A14BF0120002074
:1076700004D000221A601B680193019B02B070477E
:10768000014B1868704700BF20870020014B186825
:10769000704700BF288700200E4A1378C3B90378CB
:1076A0004FF08041C3F34003C1F88035037803F005
:1076B0000103C1F87835084B1968C90704D4C02103
:1076C00083F8001301211960012313700020704713
:1076D000852070472C87002000E100E0014B026804
:1076E0001A607047288700204FF080434FF4607283
:1076F000C3F8042370474FF080434FF46072C3F81F
:1077000008237047014B00221A6070472887002029
:1077100010B54FF08043D3F80443620707D54FF408
:107720008470FFF79DFF10B11E4B1B689847A3069E
:1077300008D54FF48A70FFF793FF18B11A4B002059
:107740001B689847600608D54FF48C70FFF788FFD8
:1077500018B1154B01201B689847210608D54FF436
:107760008E70FFF77DFF18B1104B00201B68984703
:10777000E20508D54FF49070FFF772FF18B10B4B7C
:1077800001201B689847A3050AD54FF49270FFF7B4
:1077900067FF28B1054BBDE810401B680220184761
:1077A00010BD00BF208700202487002028870020EC
:1077B00008B5FFF7ADFFBDE80840FFF729BF00009F
:1077C000014B1B68184700BF30870020002343503F
:1077D00082B043580193019B02B070471FB501234B
:1077E000CDE901218DF80030D0E9001368469847B3
:1077F00005B05DF804FB7FB5D0F8246105460C4662
:10780000002E5CD04FF49271FFF7E0FF02238DF859
:107810000030D0F88034C0F880340393D0F83C3581
:107820000293E36801930023C4E906336846D4E970
:1078300000139847D5F844317BB14FF4A271284624
:10784000FFF7C4FFA36943B10023C4E90633E2682C
:10785000D5F83C152046FFF7C1FFD5F82031ABB174
:107860004FF490712846FFF7B1FF0123EB60636985
:1078700063B1D5F84C2502920023A2688DF8003040
:1078800063610192D4E9001368469847D5F85831EE
:107890009BB14FF4AC712846FFF798FF636963B161
:1078A000D5F84C2502920023A2688DF80030636160
:1078B0000192D4E900136846984704B070BDD0F82F
:1078C0001031002BB6D04FF48871FFF77FFFD0F84E
:1078D0003C35A1699942ADD1E369E26873B1D0F852
:1078E000003223F02003C0F80032E369A36123696A
:1078F000E360E6612046FFF771FF9BE7A361F9E7CC
:1079000001490248FFF777BF5C87002000800240F2
:10791000020713D400F00F0310F0800F084A0BBFCA
:1079200003F5887303F5847302EB830352F8230095
:1079300008BF5868431E584258417047002070479E
:107940000070024010F0080F074B06D0D3F8C004B7
:1079500010F4803F18BF0020704700F00F0000F5C2
:10796000947053F820007047007002404FF080532D
:10797000D3F83001A0F10803584258417047000085
:107980004FF08053D3F83021082A06D1D3F8343190
:10799000032B04D8034AD05C7047002070470120B5
:1079A000704700BF99C70F0030B54C689C4209D2A0
:1079B000002545600968016093420CD1201E18BF64
:1079C000012030BD43600D6805600868E41A184462
:1079D0004C600860F0E70020F3E74B689A4228BF4C
:1079E0001A460B68C0E9003248680B68801A486084
:1079F0001A4400380A6018BF012070474B689A4249
:107A000028BF1A4662B10B68C0E900324B689B1A66
:107A10004B600B68101E13440B6018BF01207047A9
:107A20001346F1E7054B10F0800FA3F1900208BF59
:107A3000134600F00F0003EB00107047F48800209D
:107A400010F0800F14BF0023102300F00F00184423
:107A50007047000008B5FFF789FF18B1034B0022FB
:107A6000C3F81C2C024B00221A7008BD00700240A3
:107A70008187002007B5094A00231370084AADF832
:107A8000053013708DF8073001238DF80430054B55
:107A900001A81B68984703B05DF804FB80870020AD
:107AA000888900208489002070470000F8B54B6861
:107AB0000B4F934228BF13460C461D4606461A46F6
:107AC0000968384604F0B2F8C6E9007560682268B3
:107AD000401B60602A440038226018BF0120F8BDB6
:107AE0008C890020F8B54B68934228BF13460646A0
:107AF0000D461C468BB10A4F09681A46384604F0F9
:107B000095F8376074606B681B1B6B602B68201ED8
:107B100023442B6018BF0120F8BD0360F2E700BFCB
:107B20008C89002007B500230DF107008DF8073080
:107B3000FEF7C0FC0B4BD3F8001C032271B949F2CD
:107B40007531C3F8001CC3F8142DC3F8001C9DF850
:107B50000700FEF7D3FC03B05DF804FBC3F8142D57
:107B6000F5E700BF00E0064013B500240DF1070063
:107B70008DF80740FEF79EFC0A4BD3F8001C69B94C
:107B800049F27532C3F8002CC3F8141DC3F8002C59
:107B90009DF80700FEF7B2FC02B010BDC3F8144D0B
:107BA000F6E700BF00E0064008B50146FFF752FFC8
:107BB0000846FFF737FF827B032A0AD10846FFF702
:107BC0003FFF01218140BDE808400448C943FFF759
:107BD000B1BC0368002BF1D008BD00BFF0870020C6
:107BE0008720FFF7E1BF8620FFF7DEBF8520FFF784
:107BF000DBBF8420FFF7D8BF8320FFF7D5BF8220EB
:107C0000FFF7D2BF8120FFF7CFBF000008B5FFF715
:107C100021FF084B93F89E20032A06D1BDE80840B7
:107C200005486FF00101FFF785BCD3F89030002BB9
:107C3000F4D008BD64880020F087002073B50122CD
:107C400002FA01F51E491F4E0B6810F0800F43EA3F
:107C5000050304460B6027D000F00F021A4B33F8DF
:107C6000123003F1804303F51C331A684AB1002235
:107C70001A60BFF36F8FBFF34F8F802811D0FFF7CB
:107C800093FF316829400AD106238DF804308DF81E
:107C900006408DF807100D4B01A81B68984702B0ED
:107CA00070BDFFF7B3FFECE733681D42F7D1062341
:107CB0008DF804308DF806008DF80720EBE700BF43
:107CC00060880020F0870020A6C70F00848900206C
:107CD00008B5054B1A781046FFF7B2FEBDE808401C
:107CE00001461046FFF7AABF88890020FFF78EBF24
:107CF00007B500238DF804300B4BD3F82025ADF8E1
:107D00000620D3F8C034094A002B13680CBF4FF487
:107D100080714FF001210B431360054B01A81B68D4
:107D2000984703B05DF804FB0070024060880020B3
:107D30008489002007B5FFF78DFE0D4B93F88E2048
:107D4000032A11D0D3F8803073B90A486FF08071DC
:107D5000FFF7F0FB06238DF804300823ADF806305A
:107D6000054B01A81B68984703B05DF804FB00BFF2
:107D700064880020F08700208489002007B5FFF781
:107D800069FE114B93F81E21032A07D10F486FF4A7
:107D9000807103B05DF804EBFFF7CCBBD3F8103172
:107DA00073B90A486FF48071FFF7C4FB06238DF89E
:107DB00004308823ADF80630054B01A81B689847AE
:107DC00003B05DF804FB00BF64880020F08700204A
:107DD000848900202DE9F04F5D4E337885B0002B6B
:107DE0006DD15C4C5C4B19682368194067D011F069
:107DF000012367D093FAA3F1002966D0B1FA81F18B
:107E00000F2964D9A1F110085FFA88F84046FFF7FE
:107E100009FE4FF0010B4FFA88FA0BFA01F1BAF1A3
:107E2000000F81466FEA010B54DA036882894168CA
:107E300002A8984708B9C9F80000FFF797FD18B1E4
:107E4000464B8222C3F81C2C01232168039A33700D
:107E5000D9F8083001EA0B011344BAF1000F216090
:107E6000C9F8083008F0080002993C4B08F00F08E8
:107E70005EDA002854D0C3F8A016C3F8A426042361
:107E800003EB880303F1804303F51C3301221A60DE
:107E9000BFF36F8FBFF34F8F314B324A2F4913EA35
:107EA0002A0338BF134633F8183003F1804303F533
:107EB0001C331A681AB9D1F80021002AF9D005B08C
:107EC000BDE8F08F91FAA1F196E720219AE741F001
:107ED00080089BE74046FFF735FDB9F80C20D9F83C
:107EE0000410D9F800500346074602A8A847029A92
:107EF000002A9FD0039A97429CD9022789F80E70D6
:107F000059461548FFF716FB06238DF80430164B2B
:107F10008DF806801B688DF8077001A8984761E707
:107F2000142000FB0833C3F80016C3F80426A6E7A4
:107F300028B1C3F8A017C3F8A4272823A0E714206A
:107F400000FB0833C3F80017C3F80427F5E700BFA8
:107F50008187002060880020F087002000700240A8
:107F6000A6C70F00C2C70F008489002037B504469A
:107F7000FFF770FD2046FFF755FD837B032B0DD1E6
:107F80002046FFF75DFD01218140C9430F48FFF7FF
:107F9000D1FA03B0BDE83040FFF71CBF0568002DE3
:107FA000F7D12046FFF74CFD01218140C943074826
:107FB000FFF7C0FA06238DF80430054B8DF8064014
:107FC0001B688DF8075001A89847E2E7F08700206A
:107FD000848900200720FFF7C9BF0620FFF7C6BF2E
:107FE0000520FFF7C3BF0420FFF7C0BF0320FFF742
:107FF000BDBF0220FFF7BABF0120FFF7B7BF0000E7
:1080000038B5134BD3F86C44C3F86C44BFF36F8F8F
:10801000BFF34F8F01251CB9BDE83840FFF7DABE2A
:1080200094FAA4F171B1B1FA81F30F2B19460BDD6B
:10803000A1F11000C0B205FA01F324EA0304FFF72E
:10804000FDFDE8E72021F3E743F08000F3E700BF00
:108050000070024013B5254BD3F80044C3F8004428
:10806000BFF36F8FBFF34F8FBFF36F8FBFF34F8F90
:10807000E1050ED51E4B01221A700023ADF8053024
:108080008DF8073002238DF804301A4B01A81B68C5
:108090009847A2050DD5164A00231370ADF8053098
:1080A0008DF8073003238DF80430124B01A81B68AC
:1080B0009847630518D50E4A1378ABB100231370A7
:1080C0000A4A0121C2F808159165BFF36F8FBFF30B
:1080D0004F8FADF805308DF8073004238DF804304C
:1080E000044B01A81B68984702B010BD0070024005
:1080F0008087002084890020024A00231360024AFE
:108100001370704784890020828700204A4B4FF407
:10811000006213B5C3F80024BFF36F8FBFF34F8F16
:10812000FFF72EFC08B1FFF7FDFCFFF71FFCC0B105
:1081300000230DF107008DF80730FEF7BBF93F4B28
:10814000D3F8001CC02200296ED149F27531C3F862
:10815000001CC3F8142CC3F8001C9DF80700FEF7A0
:10816000CDF9354B0122C3F80025BFF36F8FBFF364
:108170004F8FD3F800241205FBD54FF40062C3F8EB
:108180000024BFF36F8FBFF34F8FFFF7EFFBB8B142
:1081900000240DF107008DF80740FEF78BF9274BFF
:1081A000D3F8001C002942D149F27532C3F8002CE3
:1081B000C3F8141CC3F8002C9DF80700FEF79EF9C5
:1081C000FFF7DEFB30B1FFF7CFFCFFF7D9FB08B1BB
:1081D000FFF7A8FCFFF7CAFB174B50B140F2E37260
:1081E000C3F800284022C3F80428BFF36F8FBFF301
:1081F0004F8F00218022C3F81C25C3F83015104B87
:1082000040F2FF121A600F4B1960FFF723FC0E4B70
:1082100019700E4B02221A70FFF7B2FB50B102B078
:10822000BDE81040FFF7A0BCC3F8142C95E7C3F8D5
:10823000144CC1E702B010BD0070024000E00640DF
:1082400060880020F0870020888900208287002035
:108250000C4B00221A700C4A0C4B002818BF134616
:108260000B4AC2F804330B4BC02183F8271380213B
:1082700059600123C2F80435BFF36F8FBFF34F8FEE
:10828000704700BF808700200714E0010714C00179
:108290000070024000E100E0024B1878003818BF7F
:1082A0000120704782870020034B1878012894BF73
:1082B00000200120704700BF8287002037B50025CD
:1082C0000DF107008DF80750FEF7F4F8134B1B78FB
:1082D00003F0FF04B3B1124AD2F82C35E3B1C2F86F
:1082E0002C55FFF743FB68B10E4BD3F8001CC0229E
:1082F00079B949F27531C3F8001CC3F8142CC3F8DE
:10830000001C04469DF80700FEF7F8F8204603B06D
:1083100030BDC3F8142CF4E71C46F3E78087002037
:108320000070024000E00640024B034AC3F80823F5
:10833000704700BF0070024004148001024B034AE2
:10834000C3F80423704700BF00700240041480018A
:10835000014B00221A7070478087002008B5FFF794
:1083600061FB818108BD000073B51D4B1C78002C9A
:1083700033D11C4A106001221A702546264615F09A
:10838000080F65F07F00C0B20CBF40214FF40071B0
:108390000190FFF7E3FF0198FFF744FB0135092D3A
:1083A000867306608660EAD1402100252046FFF7EB
:1083B000D5FF2046FFF736FB0134E4B2092C857364
:1083C0000560856002D1002002B070BD14F0080F76
:1083D00014BF4FF400714021E8E70820F4E700BF24
:1083E000828700208489002008B5FFF71BFB808965
:1083F00008BD0000064A10F0800F00F00F0314BF04
:10840000D2F81005D2F81405D84000F001007047EA
:10841000007002402DE9F743002306460DF10700E6
:108420000F468DF80730FEF745F816F00F0503D11B
:108430002A4B1B78B3424DD1294BDFF8C8801C680A
:10844000D8F80030E443A4B230461C43FFF7F8FAF2
:108450004FF0010909FA00F914EA09043CD1304649
:10846000FFF7E0FA0C225543320603462ED51D4A8B
:108470003968154401F06041BA68B1F1005F02F05B
:1084800001021ED1DAB9184A1A6097E8070085E898
:108490000700D8F800005D6000229A609A73134BC1
:1084A00040EA09008022C8F80000C3F804219DF8C2
:1084B0000700FEF723F8204603B0BDE8F0830C4A1E
:1084C000E2E70AB90B4ADFE70B4ADDE70B4A15443E
:1084D0000B4AD9E71024EAE71124E8E7888900204D
:1084E00060880020F4870020DB790F0000E100E0C5
:1084F000FD790F00AD7A0F00E57A0F008487002028
:10850000A9790F00F0870020F7B5002306460DF18A
:1085100007008DF807300D46FDF7CCFF330703D178
:10852000164B1B78B34225D1154B164F1C683B6880
:10853000E443A4B230461C43FFF782FA012303FA56
:1085400000F10C4018D13046FFF76CFA84602B68BC
:1085500003606B684360847338680B4B0843802268
:108560003860C3F804219DF80700FDF7C7FF2046D7
:1085700003B0F0BD1024F6E71124F4E78889002049
:1085800060880020F087002000E100E0004870478C
:108590008C890020044B40F48070C3F81805BFF3A9
:1085A0006F8FBFF34F8F704700700240FFF7B0B975
:1085B000064BC3F80C05BFF34F8F40F48070C3F82F
:1085C0000C05BFF36F8FBFF34F8F704700700240F1
:1085D00010B508220021044603F050FB0E4BD3F8DF
:1085E00080242270D3F884246270D3F88824D3F8CE
:1085F0008C1442EA01226280D3F89024D3F89414B8
:1086000042EA0122A280D3F89824D3F89C3442EAAB
:108610000323E38010BD00BF00700240034B012222
:10862000DA64BFF36F8FBFF34F8F70470070024063
:1086300013B5FFF70FFA114B9A7B032A07D11048A5
:108640006FF4803102B0BDE81040FEF773BF1C68C4
:108650007CB96FF480310A48FEF76CFF06238DF871
:108660000430084BADF806401B6801A8984702B0DB
:1086700010BD02B0BDE81040FFF7D0BF64880020F5
:10868000F087002084890020034B01221A65BFF384
:108690006F8FBFF34F8F704700700240034B012272
:1086A0005A65BFF36F8FBFF34F8F70470070024062
:1086B000014B1878704700BF8889002013B500234C
:1086C00004460DF107008DF80730FDF7F3FE204654
:1086D000FFF7B6F90D4901220B6802FA00F023EA10
:1086E000000314F008020B600AD104F00F04084BD9
:1086F00004F5947443F82420BFF36F8FBFF34F8FBA
:108700009DF80700FDF7FAFE02B010BD608800205A
:1087100000700240F7B5002304460DF103008DF808
:108720000330FDF7C7FE2046FFF77CF905462046DB
:10873000FFF786F9012214F0800F02FA00F22E48AA
:1087400019D1036832EA03030AD02046FFF7B6FFC7
:108750000323AB739DF80300FDF7D0FE03B0F0BD1B
:108760002B60036823EA02030360244B186820EAA5
:1087700002001860ECE7230715D4802C204B2ED084
:1087800004F00F0101F2DA314900C3F80018D3F800
:108790000418D3F80468C9B241F002013143C3F8A8
:1087A0000418D3F80438154E0168336861EA0307EA
:1087B0001742CFD0134321EA020133600023016046
:1087C0002B600323AB738DF807300E4B8DF80640FA
:1087D00006221B688DF8042001A89847BAE740F2EA
:1087E000B471C3F80018D3F80418D3F80468C9B2F8
:1087F00041F00401D2E700BFF0870020608800202C
:108800000070024084890020FFF784BF73B5184BC5
:10881000184CD3F880542368174EDA43174B31783D
:108820001B6892B208461A43FFF70AF9012303FABC
:1088300000F0104202D00846FFF76CFF6FF0011104
:1088400005F080050D483570FEF774FE236843F08F
:10885000010323600023ADF805308DF807300523B0
:108860008DF80430064B01A81B68984702B070BD14
:10887000007002406088002088890020F087002076
:10888000848900202DE9F0411B4BD3F80413002309
:1088900001241D4671B9194F03F4000623F40004A6
:1088A0004FF00108D4B9FFF795FA1EB3BDE8F041C7
:1088B000FFF7ACBF91FAA1F21148B2FA82F296002A
:1088C000304404FA02F206682EB10560BFF36F8FE0
:1088D000BFF34F8F134321EA0201DBE794FAA4F5BB
:1088E000B5FA85F557F8253008FA05F5984724EAD2
:1088F0000504D7E7BDE8F08100700240D4C70F003F
:1089000000710240F8B5134E134B34681B68240CF9
:1089100024041C4301271CB940F2FF133360F8BD47
:1089200094FAA4F585B1B5FA85F30F2B1D460DDD3C
:10893000A5F11000C0B2030701D4FFF7EBFE07FA60
:1089400005F524EA0504E6E72025F1E743F0800079
:10895000F1E700BF60880020F087002038B50E4C9A
:108960008025C4F8845163681B0613D5FFF7CAFF3E
:108970000A4B0022C3F80425BFF36F8FBFF34F8F5C
:10898000C4F88450BFF34F8FBFF36F8F4FF0FF32A7
:10899000C3F8082338BD00BF00E100E000700240CA
:1089A00008B5FFF7DBFF094BD3F80423C3F808230E
:1089B0000022C3F80025BFF36F8FBFF34F8FFFF77F
:1089C00049F8034B01221A7008BD00BF0070024035
:1089D0008287002013B500230DF107008DF80730C2
:1089E000FDF768FD0F4B1B7803F0FF043BB9002433
:1089F0009DF80700FDF782FD204602B010BDFFF78D
:108A000081FF094AD2F8003413F40073EFD1012139
:108A1000C2F82C15D2F80014890544BFC2F82C35D1
:108A20001C46E5E7808700200070024010B5044630
:108A3000FFF770FE134A04F00F0064B2002C4FF0F1
:108A40000103B4BFD2F81015D2F8141503FA00F3DD
:108A50006FEA0303B5BF0B400B40C2F81035C2F8F4
:108A60001435BFF36F8FBFF34F8F074A074B13EADD
:108A7000240338BF13461A5C01239340014AC2F80D
:108A8000083310BD00700240B8C70F009DC70F002B
:108A900037B5264A264B45B2002DA8BF134600F035
:108AA0000F010446585C234A4FF0010303FA00F01B
:108AB000C2F804032EDAD2F81005C840C00727D444
:108AC000D2F810058B400343C2F81035BFF36F8F07
:108AD000BFF34F8FE1B1002D1ADB14F0080317D15B
:108AE0000DF107008DF80730FDF7E4FC2046FFF795
:108AF000E5FD2046FEF7A4FF0F4901220B6802FAAC
:108B000000F023EA00039DF807000B60FDF7F6FC78
:108B100003B030BDD2F81405C840C007F8D4D2F86D
:108B200014058B400343C2F81435CFE7B8C70F00D4
:108B30009DC70F0000700240F0870020030610B5AB
:108B4000044605D4FEF7E4FE10B12046FFF7B6FD5B
:108B5000034BC3F81845BFF36F8FBFF34F8F10BDA2
:108B60000070024010B5044638B149B141600B684D
:108B7000984708B9044B236010BD48F20150FBE749
:108B800048F21050F8E700BF6E524648F0B4134662
:108B900048B10768094EB7420AD161B12AB14368AA
:108BA000F0BC5B68184748F201531846F0BC7047A8
:108BB00048F20253F9E748F21053F6E76E5246487E
:108BC000F0B460B107680C4EB7420CD171B1436884
:108BD0001568DC68A5420CD3F0BC9B68184748F2C6
:108BE0000150F0BC704748F20250FAE748F21350C7
:108BF000F7E748F21450F4E76E524648F7B50446DA
:108C0000DDE9086715460193FFF7ACFF68B9019AE3
:108C100029462046FFF7BAFF38B93A463146204682
:108C200003B0BDE8F040FFF7CBBF03B0F0BD0000DC
:108C3000F8B50A4F0A4C0B4EE41B0123E4083370CD
:108C40000025A54203D1022333700020F8BD57F858
:108C5000353098470028F9D10135F2E7BCCA0F003A
:108C6000C4CA0F00CC890020013A02440139824273
:108C700000D2704711F8013F02F80139F7E7000010
:108C800038B1054B0360054B43600123037200209C
:108C900070470E20704700BFC78C0F00A18C0F00DB
:108CA00069B10B78022B0CD1022804D0032814BF21
:108CB00008201120704703230B70002070470E20FE
:108CC00070470820704710B50C4681B10B78012B16
:108CD00006D00ED9033B012B94BF0820112010BDF4
:108CE00001F0FEFF0028FAD102232370F7E70E20DF
:108CF000F5E70820F3E7000070B5144B144A0C2187
:108D0000D21AB2FBF1F2816911F8025C044635B95E
:108D100000690021914205D1012323600EE04FF04C
:108D2000FF30F6E71E68AE420CD1461C07D19D68A5
:108D3000D4E90001D4E90223A847206070BD5E6831
:108D40008642F4D001310C33E4E700BFD4CA0F00EF
:108D5000E0CA0F001EF0040F0CBFEFF30880EFF322
:108D60000980FFF7C9BF00BF41DF7047014B0122F7
:108D70001A707047F08D0020BFF34F8F0549064BE6
:108D8000CA6802F4E0621343CB60BFF34F8F00BFA9
:108D9000FDE700BF00ED00E00400FA05024B0348C8
:108DA00000221A7001F062BFF08D0020798D0F0053
:108DB000042810B5044609D8022811D816D00D4B46
:108DC0001B68B3B12046BDE810401847831F012B34
:108DD000F5D8094B094800221A7001F047FFEEE769
:108DE00007494FF4701000F0EFF9E8E701F08AFE50
:108DF000E5E710BDF48D0020F08D0020798D0F0087
:108E00009D8D0F000020704738B5574B574A1860AA
:108E10004FF0A0430020C3F8402701F03DFF044677
:108E2000002840F09B8000F087FA012800F0918034
:108E3000022800F09580002840F090804FF0804399
:108E4000D3F8004414F4803436D04FF48032C3F8A1
:108E500000240446464D2B6A012B40D04FF4701479
:108E6000444A20211820FBF76BFD08B1FBF749FAB3
:108E70004FF08043D3F81C2502F0F802B02A09D144
:108E8000D3F81C25D20742BFD3F81C2502F04E02AE
:108E9000C3F81C25FFF7B6FF00285FD120463649EE
:108EA00000F092F9354800F087FF002856D1FBF713
:108EB000D3FDFFF759FFFAE7D3F8202502F0F802B7
:108EC000A82A0AD1D3F82025D00706D5D3F8202523
:108ED00002F05602C3F82025BCE70124BAE74FF49C
:108EE00040535A68264B9A4209D001F085FFAA697F
:108EF000014694B1234802F0D9F990B9AEE76A6B04
:108F00001CB995F86032012BEFD01F484FF4805107
:108F100002F0CCF90028E8D1A0E795F8A132012BA6
:108F2000E8D14FF0A043D3F81035D90396D54FF0D0
:108F30008043D3F81C3513F0B10F8FD101F008FF37
:108F400060B9124B1870124801F090FE00F024F83E
:108F500004E00E4B0F481C7001F088FE032038BD62
:108F60004FF4A0247CE700BFF48D00200C00030028
:108F7000C4A50020D08900209D8D0F00B18D0F0069
:108F8000DBE5B15165A8002024A80020F08D002069
:108F90006D8D0F00798D0F0008B5074B4FF0FF3234
:108FA000C3F88020C3F8802101F062FBBDE80840CF
:108FB0004FF4805000F028B800E100E080F308880A
:108FC0000847000070B50546C1F30B00A8B9B5F518
:108FD0007F2F12D80B4E3268072A10D8130103F1E5
:108FE000804404F5F0340132C4F80058C4F8041881
:108FF0000221C4F80818326070BD0720FCE7042085
:10900000FAE700BFF88D002010B504461448C0F5FB
:109010007F21FFF7D7FF08B1FBF773F901F0ECFEF2
:10902000104B9B6903F6FF7323F47F6323F00F0358
:1090300019180020FFF7C6FF08B1FBF762F9EFF33C
:1090400005830023D4E9000183F3148883F3108897
:1090500083F3118883F31388BDE81040FFF7AEBF98
:1090600000400F00C4A500201FB518490B7853BB62
:109070004FF08043A024D3F81824D2035CBF012210
:109080009A60134B0022C3F80021D3F8000103902B
:109090000398C3F84021D3F8400102900298C3F826
:1090A0004421D3F84401019001980A4880F82443F0
:1090B000102444600220C3F8082501229A601A6037
:1090C000C3F804030A7004B010BD00BF008E002076
:1090D0000040024000E100E037B56FF07F42154CE0
:1090E000057BD4F804358A4228BF0A46891A1344FE
:1090F0004A1E942A23F07F4305F5A8729BBF963B36
:1091000096314160416044F822300B4B4FF4F860D7
:1091100043F001039847094BAA00134400221A6048
:109120001B680193019B4FF48033AB40C4F80433B8
:1091300003B030BD0040024040C80F004041024033
:109140002DE9F3411B4BD3F8042152B11A490A68A7
:1091500001320A600022C3F80421D3F804310093DD
:10916000009B164C164DDFF84C80164E00272B68DE
:1091700073B12F602B68227B0193019B4FF48033E6
:109180009340C8F80833616851B12046FFF7A4FF47
:109190000435B54204F11004E9D102B0BDE8F08114
:1091A000A16811B12046FFF797FF2368002BEFD08D
:1091B0009847EDE700400240FC8D002088590020D0
:1091C000404102404841024070B50B4B1D682A7B6C
:1091D0004FF480339340094A0E46C2F808330446E0
:1091E00040B1FFF741FF2E6021462846BDE87040A0
:1091F000FFF772BF70BD00BFA859002000400240B9
:10920000014B01221A707047018E002081422DE926
:10921000F74F04460F46154604D10023184603B005
:10922000BDE8F08F0E1A360B082E28BF082602F66E
:10923000FF783303DFF864B001934FEA1838002D4C
:10924000EBD046452CBFC246B2464FF00002514615
:10925000204634BFDDF80490A94601F0D3F9034657
:109260000028DBD109F1030222F00302394620462F
:1092700001F0BAF903460028D0D1DBF830304B4476
:10928000CBF8303001F0F8FCA8EB0A08A5EB090593
:109290004C444F4403460028D1D0BFE7C4A500206A
:1092A00010B501F0CFFD114A916C01F500535C68D7
:1092B0000F4B9C4214D1D2E90C32934213D0D21AF4
:1092C00002F6FF7222F47F621944184422F00F0262
:1092D000FFF79CFF034620B9BDE8104001F0CCBC6D
:1092E0000323184610BD0023FBE700BFC4A50020E0
:1092F000DBE5B15138B50E4BDA6A5D6A9C6CAC2A7D
:109300000ED15B6B1C44ED1A0A482A46214602F036
:109310007DFC58B129462046BDE8384001F08AB9A5
:10932000002CF1D101F07CFD0446EDE738BD00BF13
:10933000C4A5002000400F0070B5284DEB6AAA2B91
:1093400044D005D8012B0CD0A52B3BD0002070BDFC
:10935000AC2BFBD1FFF7A4FF002835D1FFF7CAFFE4
:1093600032E0AC6C6E6A01F047FD2A6B03469C420A
:1093700004EB0201104414BFB21A0022FFF746FFAB
:10938000044608B100240CE001F036FD22463146C7
:10939000FDF7CAF8AB6A9842F4D10123C5E9070387
:1093A000AE610F4801F01CFD0E4B0F4800221A70F1
:1093B00001F062FC68B974B12B6A012B14BF012063
:1093C0000220C4E7FFF76CFF0124EAE7FFF792FFF2
:1093D000D8E70320BBE70120B9E700BFC4A5002000
:1093E000E8A50020018E002001920F0010B5002496
:1093F000D4F8F83F013304D1084940F6F870FEF77D
:1094000063F8D4F8FC3F013307D1BDE810404FF4B6
:109410007E2140F6FC70FEF757B810BD00400F00EB
:109420000023C0E90232C0E900118B881A440261AE
:10943000B1F906301A4442610888003818BF01208B
:10944000704710B5426811880346002939D002F1EF
:1094500010014160148A2CB9C2680168FFF7E0FF6F
:10946000204610BD9078118900F03004302C1BD1BB
:10947000947C04F03004302C1DD190881969091AAD
:1094800019610021907810F0300F02BF9868013008
:109490009860908A0844196901441961B2F916204C
:1094A000114459610120DCE700F0F004202C02D1C6
:1094B00050894143E6E700F0C000802808BF04213E
:1094C000E0E70846CDE770B5466804460D46636898
:1094D0001A88AA4204D19B7803F00F03082B07D106
:1094E0002046FFF7AEFF6368B342F0D1002070BDA5
:1094F0000120FCE743681A44426011B101399A42E5
:1095000001D10120704713F8010B01F8010FF6E7B4
:1095100070B54268927802F00F01082986B00346C0
:109520001FD103691C6800260CB906B070BD236802
:1095300026739D68626829466846FFF771FF636875
:10954000049304F10C030593AB7803F0C003802B64
:1095500008BF231D684608BF0493FFF7D9FFA4681E
:10956000E2E712F0C00126D102F03000102810D13D
:109570005A6911705A6818699378D46803F00F0318
:10958000072B0BD10146204606B0BDE8704000F025
:109590001AB89006EED55B691980C6E71289214694
:1095A00024B106B0BDE8704002F040BB06B0BDE893
:1095B000704002F063BB8029B7D100690021920698
:1095C0000160B2D5E7E77FB50A4601466846FFF776
:1095D00027FF30B16846FFF79BFF6846FFF731FF72
:1095E000F7E707B05DF804FB10B5836804460BB9D4
:1095F000002010BD0368012298470028F8D0A36816
:10960000013BA360F5E72DE9F3410F460DF107019A
:109610008046FFF7E9FF054620B90025284602B03D
:10962000BDE8F0819DF907309DF80740002B13DA63
:1096300004F07F0407260DF107014046FFF7D4FF31
:109640000028EAD09DF8072002F07F03B3401C43B6
:10965000130606F1070601D43C60DFE7232EEAD1AA
:10966000DBE7000030B5044685B01546A9B90268AD
:10967000114B9A4211D0102D06D82A466946204631
:10968000FFF7F0FF05B030BD102269462046FFF716
:10969000E9FF0028F6D0103DEDE7A368AB4201D208
:1096A0000020EFE723682A46204698470028F7D095
:1096B000A268521BA260E5E7F5940F00F7B50E46CD
:1096C00001A907461546FFF79EFFA0B1019A511C5C
:1096D0004FF0000404D2B37803F0C003802B01D113
:1096E000204608E033898B42FAD329463846FFF7F3
:1096F000B9FF019BEC5403B0F0BD73B50D4601A951
:1097000006461446FFF77FFF98B1019AB2F5803FF5
:1097100011D2AB7803F0C003802B02F102010AD012
:109720002B898B4207D32146304621F8022BFFF7C5
:1097300099FF02B070BD0020FBE7000010B5034C9C
:1097400082600022C0E90041C26010BDF5940F00A4
:109750002DE9F341002580460E462F462C460DF19B
:1097600007014046FFF740FFC0B19DF807C0A4F1D4
:1097700020030CF07F02C4F1200102FA03F322FA65
:1097800001F10B43A2401CF0800F45EA020547EAB5
:10979000030704F1070404D1C6E9005702B0BDE88D
:1097A000F081462CDBD10020F8E737B50D4669463D
:1097B0001446FFF7CDFF70B12B89082B0DD1DDE9E1
:1097C0000032C4E90032DDE90001914208BF98424D
:1097D0000CBF0120002003B030BD042B03D1009B3F
:1097E00023600022EFE7022B03D1009B23809BB272
:1097F000F7E7012B04D1009B237003F0FF03F0E790
:109800000020E8E737B50D4669461446FFF7A0FF8C
:1098100030B12B89082BDDE9001203D1C4E9001215
:1098200003B030BD042B4FEAE17009D121600B4633
:109830000246824208BF8B420CBF01200020EFE7A6
:10984000022B03D10BB22380DA17F2E7012B02D1EE
:109850004BB22370F8E70020E2E7F7B51F4600237C
:109860003B700D460B70136001A904461646FFF7C6
:10987000CAFE30B9A36813B901233B70002003B0BE
:10988000F0BD019C002CF7D0E30804F0070433601E
:109890002C70F4E713B50446052925D8DFE801F05C
:1098A000030F17242422012201A92046FFF7DAFE24
:1098B00018B19DF90430002BF5DB02B010BD082271
:1098C0000021204602B0BDE81040FFF7CBBE01A941
:1098D000FFF799FE0028F0D0019A00212046FFF7FB
:1098E000C1FEEAE70422EBE70020E6E773B50D4688
:1098F00001A90446FFF787FE064618B90026304640
:1099000002B070BD94E80F0085E80F0001998A420B
:10991000F4D3A960A3685B1AA360F0E72DE9F043D4
:109920005768BB7813F0C00489B006468C461546CC
:1099300003D0402C6CD000240CE003F00F026149EE
:1099400003F03003202B51F8228028D006D8CBB169
:10995000102B1ED0204609B0BDE8F083302BF9D182
:109960006B6939881980072A0AD16B6828691A89B6
:10997000214602F083F96B682969D868FFF723FE56
:109980002A6942E02A693946434609B0BDE8F043F6
:1099900018476B6901221A702A696968F4E7BCF1FB
:1099A000020FD5F8149024D1042A22D804A9FFF775
:1099B0009DFF04460028BED0069B2BB16968B9F80C
:1099C00000304A899A4205D8059B7360069B002B9C
:1099D000C0D0B0E708892A6903FB002204A8C04769
:1099E00028B1B9F800300133A9F80030E4E70446A3
:1099F000EAE7B9F800307A899A429CD92A6939890C
:109A0000581CA9F8000003FB012269683046BBE737
:109A1000D2F81080474657F8043B23B909B0BDE897
:109A2000F043FFF737BF022914D104A9FFF75EFF07
:109A3000002880D0D8F8003069683A4604A89847D2
:109A4000044600283FF477AF069B002BF2D1059B1C
:109A500073607FE7012926D005292CD000297FF4E7
:109A60006AAF0C460DF1040901340B2C3FF463AFCF
:109A7000012249463046FFF7F5FD00283FF45BAF71
:109A800019F9013B002BEFDB0F4B049301ABCDE940
:109A9000053400230793D8F8003069683A4604A8D3
:109AA0009847044656E7082201A9FFF7DBFD082482
:109AB0000028E9D13FE704220DEB0201FFF7D2FDB8
:109AC0000424F5E748C80F00F5940F002DE9F04F86
:109AD00091B00446002604A8CDE90266FFF7A0FC79
