:02000002E0001C
:10000000000004208DA60E00B5A60E00B7A60E00B7
:10001000B9A60E00BBA60E00BDA60E000000000093
:10002000000000000000000000000000A16C0E00B5
:10003000C1A60E000000000000000000000000004B
:10004000BD4B0E00C3A60E00CD4B0E00C3A60E0086
:10005000C3A60E00C3A60E00C3A60E00C3A60E00C4
:10006000C3A60E00C3A60E00C3A60E00C3A60E00B4
:10007000C3A60E00C3A60E00C3A60E00C3A60E00A4
:10008000C3A60E00C3A60E00C3A60E00C3A60E0094
:10009000C3A60E00C3A60E007D410E00C3A60E002F
:1000A000C3A60E00C3A60E00C3A60E00C3A60E0074
:1000B000C3A60E00C3A60E00000000000000000052
:1000C000C3A60E00C3A60E00C3A60E00C3A60E0054
:1000D00091710E00C3A60E00C3A60E00D1670E00DC
:1000E000C3A60E00C3A60E0025AA0E000000000045
:1000F00000000000C3A60E0000000000C3A60E0012
:1001000000000000000000000000000000000000EF
:1001100000000000000000000000000000000000DF
:1001200000000000000000000000000000000000CF
:1001300000000000000000000000000000000000BF
:1001400000000000000000000000000000000000AF
:10015000000000000000000000000000000000009F
:10016000000000000000000000000000000000008F
:10017000000000000000000000000000000000007F
:10018000000000000000000000000000000000006F
:10019000000000000000000000000000000000005F
:1001A000000000000000000000000000000000004F
:1001B000000000000000000000000000000000003F
:1001C000000000000000000000000000000000002F
:1001D000000000000000000000000000000000001F
:1001E000000000000000000000000000000000000F
:1001F00000000000000000000000000000000000FF
:1002000010B5054C237833B9044B13B10448AFF350
:1002100000800123237010BD6CA2002000000000AC
:1002200060D80E0008B5034B1BB103490348AFF378
:10023000008008BD0000000070A2002060D80E0001
:10024000A3F5803A704700BF174B002B08BF134B34
:100250009D46FFF7F5FF00218B460F461348144AD1
:10026000121A0AF061FC0E4B002B00D098470D4B80
:10027000002B00D098470020002104000D000D48FD
:10028000002802D00C48AFF300800AF0F1FB2000F8
:10029000290000F073F80AF0D7FB00BF0000080047
:1002A0000000000000000000000004206CA20020FC
:1002B000702601200000000000000000BFF34F8FF7
:1002C0000549064BCA6802F4E0621343CB60BFF3F2
:1002D0004F8F00BFFDE700BF00ED00E00400FA050E
:1002E00008B550B9012001F086F94FF08043D3F8EA
:1002F0001824D2035CBF01229A6008BD08B509F03A
:1003000031FF09F097FD0028FBD1054D642445F02D
:1003100001054FF47A40A847013CFAD1FFF7CEFF20
:1003200070B50E0007B51346064C074A0091A41A93
:10033000E40824040246054944F0010009F0DBFE0C
:10034000FFF7DCFFB8D80E0090D80E009CB40E006A
:1003500007B50B46064C07490092641AE4082404CA
:100360000246054944F0010009F0C5FEFFF7C6FF4B
:10037000B8D80E0090D80E00C0B40E0010B54FF0E3
:100380001023D3F8043303F00703052B4FF00103C8
:100390001AD0304AC2F80435D2F80034002BFBD012
:1003A0004FF01021D1F8043323F0070343F0050385
:1003B000C1F804330023C2F80435264AD2F80034C9
:1003C000002BFBD0FFF77AFF4FF08042C2F8783560
:1003D00007F0EAF84FF48051002006F0F3FD18B161
:1003E0001D4AAF21FFF79EFF1C48C0F57E2106F095
:1003F000E9FD10B1184AB121F4E74FF40041184863
:10040000184C09F0C7FC09F0C1FE174B1749E41A54
:10041000E408240444F0030009F056FE09F00AFD44
:100420000028FBD1124806F0AFFC10B10A4ABA21ED
:10043000D8E709F0FFFC0028FBD10E4944F0010089
:1004400009F042FE09F0F6FC0028FBD1024AC12166
:10045000C8E700BF00E00140F7B40E0000000E0046
:1004600051720E00B8D80E0090D80E0025B50E00BF
:10047000E1020E0041B50E004FF08053D3F8302159
:10048000082A03BFD3F83401B0FA80F040090020F5
:100490007047000008B5674B0222C3F8842C4FF068
:1004A00080430022C3F80C21C3F81021C3F838257B
:1004B0004FF0805203F54043D2F80414C3F82015DE
:1004C000D2F80814C3F82415D2F80C14C3F8281570
:1004D000D2F81014C3F82C15D2F81414C3F8301540
:1004E000D2F81814C3F83415D2F81C14C3F8401508
:1004F000D2F82014C3F84415D2F82414C3F84815D0
:10050000D2F82814C3F84C15D2F82C14C3F850159F
:10051000D2F83014C3F85415D2F83414C3F8601567
:10052000D2F83814C3F86415D2F83C14C3F868152F
:10053000D2F84014C3F86C15D2F84424C3F87025DF
:10054000FFF79AFF18B13C4B3C4AC3F88C26FFF7E3
:1005500093FF18B13A4BFB22C3F81825FFF78CFF25
:1005600070B14FF080414FF08053D1F8E42ED3F8B2
:10057000583222F00F0203F00F031343C1F8E43E98
:10058000FFF77AFF20B12F4B4FF40072C3F84026DB
:100590004FF08043D3F80024D20744BF6FF001022C
:1005A000C3F80024284AD2F8883043F47003C2F814
:1005B0008830BFF34F8FBFF36F8F4FF01023D3F806
:1005C0000022002A03DBD3F80432002B2EDA1F4B63
:1005D0000122C3F80425D3F80024002AFBD04FF0F1
:1005E00010221221C2F80012D3F80024002AFBD0F6
:1005F0004FF010231222C3F80422144BD3F8002426
:10060000002AFBD00022C3F80425D3F80024002AD6
:10061000FBD0BFF34F8F0C490D4BCA6802F4E06268
:100620001343CB60BFF34F8F00BFFDE7094B0A4A6E
:100630001A6008BD00A00740005000404881030038
:1006400000F000400090024000ED00E000E00140BA
:100650000400FA0590A100200090D003002070470C
:1006600010B50446214802F0E8FF214B1F481C60EA
:1006700002F0FAFF58B91F4B1F482049C01AC008A2
:10068000000440F0010009F01FFD032010BD1C4BC9
:10069000002140F603020330C3E9021258601970CA
:1006A000184B194959601949C3E90212184A1A61CD
:1006B000184A5A6103F0E0FE852801D00028E5D1F0
:1006C000002004F01DF80028E0D102F0F1FD1248EE
:1006D00001F03CFA0028D9D1104801F0E5FA0028D1
:1006E000D4D1BDE8104001F0A3BA00BF58D90E0024
:1006F00054A3002090D80E0010D90E0076B50E003D
:10070000F8BB0020E0BB00202D070E0021070E00E3
:1007100088BB00206CD80E00C4B60E00A0B60E0038
:10072000011F014802F0C6BF58D90E0013B5074C8F
:100730000A4601AB0146204603F002FE019A044836
:10074000214602F01DFA02B010BD00BF6FBB0020B1
:10075000A0B60E00083810B506283ED8DFE800F035
:10076000081E2F3D3D3D0400BDE8104001F080BA59
:100770001A4B1B481B49C01AC008000440F0030074
:1007800009F0A2FC05F036FD08B901F06FFA164B2E
:100790001B6813B30120BDE8104018470F4B1048E9
:1007A0001249C01AC008000440F0030009F08CFC94
:1007B00001F070FA0C4B1B687BB10220EBE7074B92
:1007C00007480B49C01AC008000440F0030009F0B4
:1007D0007BFCBDE8104001F04DBA10BD90D80E0072
:1007E00010D90E0097B50E0054A30020AAB50E0034
:1007F000BCB50E0001F0B6BB08B503781BB9BDE867
:10080000084001F0AFBB094A042101F015F858B1C6
:10081000074B08480849C01AC0080004BDE8084052
:1008200040F0010009F050BC08BD00BFF5070E0004
:1008300090D80E0010D90E00C6B50E002DE9F04379
:100840008BB0A1B102296FD164496548012202F041
:10085000B9F9644B6449024664481B1ADB081B045F
:1008600043F002000BB0BDE8F04309F031BC5D4C31
:100870005E4B5F4DDFF86481E41AE408240444F021
:1008800001042B785B4E5C4F98F800103F2B84BF1F
:1008900000232B702B7830465A1CF9542A7003F031
:1008A00083FD814660B95548D6E9011208F094FFEE
:1008B000534802F0D9FEA8B95249204609F004FC79
:1008C00047480122414602F07DF90028D9D02B7813
:1008D000FA1812F8012C0D2A01D00A2A24D100227C
:1008E000002408E00330C6E9010986F80090E7E734
:1008F000C3B20122FC54581E395C0D29F8D00A29D4
:10090000F6D002B12B7040493B480AF049F970B962
:100910003E490B22324802F033F937484022002189
:100920000AF002F900232B700BB0BDE8F0833849C0
:1009300031480AF035F948B136492F480AF030F904
:1009400020B135492C480AF02BF9D8B900211D22D5
:1009500002A801910AF0E8F830480AF043F92F495B
:10096000024601A80AF0B8F82C480AF03BF90AAB95
:1009700018440A2300F8243C01A80AF033F901A91D
:100980000246C7E726491C480AF00AF920B1254962
:1009900019480AF005F960B9BFF34F8F2249234B7C
:1009A000CA6802F4E0621343CB60BFF34F8F00BF0D
:1009B000FDE71F49104803220AF07EF828B91D48B8
:1009C0000AF010F91B490246A4E71B490A48032212
:1009D0000AF072F80028F2D09FE700BFA0BB002009
:1009E000A0B60E0010D90E00E4B50E0090D80E008F
:1009F00088A20020F8BB002014A30020E0BB002048
:100A000058D90E000AB60E0025B60E0033B60E00F9
:100A10003FB60E004AB60E0053B60E0000D80F00C7
:100A200060B60E0067B60E0000ED00E00400FA05A7
:100A300070B60E0074B60E0086B60E00011F014897
:100A400002F038BE6CD90E000648074A0378074901
:100A5000D35C012213B1043004F092BE0C3004F0D8
:100A60008FBB00BF98A10020CC08012062E40020C9
:100A7000F8B50378012B04460F4602D0022B2DD087
:100A8000F8BD037ADBB143681E4D1978284603F0A0
:100A90008BFC064698B9D5E90112384608F09CFE51
:100AA000194802F0E1FD194B194A9B1ADB081B0497
:100AB000044640B9174943F0010009F005FBBDE8C1
:100AC000F840FFF7C1BF0246134943F00300033467
:100AD00009F0FEFAC5E901462E70F0E742680C4BBA
:100AE0000A4812780D49C01AC0080004237A40F061
:100AF000030009F0F6FAE068094ABDE8F8409821D9
:100B0000FFF710BC7CE400206CD90E0008D90E0061
:100B100090D80E00D0B60E00EAB60E00FEB60E005B
:100B20001BB70E002DE9F041DFF8008198F8003086
:100B300088B0002B5BD12F4F38602F4802F07DFD2D
:100B40000446002839D12C482C4E02F08DFD2C4B48
:100B5000DFF8DCC01C7040F603020330C3E9010477
:100B6000DA60284BCCF80430274BCCE90232274B13
:100B7000CCF81030264BCCF814300FCE6D460FC594
:100B800096E80F0085E80F0014221323CDE9002317
:100B90002048214ACDF810C06946CDE9024403F04F
:100BA0003BFE044668B11D481D4B1E49C01AC008D3
:100BB000000440F0010009F087FA204608B0BDE8C3
:100BC000F081FFF741FF044648B11448144B164921
:100BD000C01AC008000440F0010009F075FA3B6833
:100BE000012088F80000002BE7D09847E5E70024B3
:100BF000E3E700BF0CBC00206CD90E0004B80E0067
:100C00007CE40020350C0E003D0A0E004AE4002072
:100C100074D80E0098A10020710A0E0008D90E00A9
:100C200090D80E00BDB70E00D6B70E0008BC00204D
:100C300064E400201FB504460A460020019202F039
:100C400085FE0128019AF8D003AB2146094803F03C
:100C500077FB0948094A03780649D35C9DF80C20C4
:100C600023B1043004F03AFD04B010BD0C3004F0A0
:100C700037FAF9E731E4002098A10020CC080120E0
:100C800010B50B4C237863B10A4B984209D00A483F
:100C90000A4A0378D35C33B1043004F097FC002394
:100CA0002370002010BD0C3004F0AEF9F7E700BF50
:100CB00008BC002074D80E0098A10020CC080120A8
:100CC0006CDF70476DDF704772DF704773DF70470E
:100CD00074DF704775DF704776DF70477ADF7047E3
:100CE0007CDF70477DDF70477FDF704786DF7047AE
:100CF0008FDF704790DF7047A8DF7047AADF70472B
:100D0000ADDF7047AEDF7047B0DF7047B1DF7047CF
:100D1000B5DF704762DF704766DF704713DF7047EB
:100D20000146014802F0C6BC80D90E0070B51822F9
:100D30008CB000210DEB020009F0F6FE2823089389
:100D400016231E4CADF806300023CDE9033305937E
:100D50000223062223702371592301250926A2703C
:100D600063710322FE236570E270A3710DF1060129
:100D7000A0198DF818508DF82D500294ADF80C6024
:100D8000FFF7B0FFB8B9BDF8063026725A19E27104
:100D9000BDF80C200A4C134402A906AA2046ADF85F
:100DA0000C30FFF791FF30B92078FFF791FF2078E2
:100DB0002946FFF78BFF0CB070BD00BF0AF500207D
:100DC000ACA10020F0B50388232B8BB0044635D8A6
:100DD0000F2B04D8012B00F044810BB0F0BD103B69
:100DE000132BFAD801A252F823F000BF6D0E0E00AB
:100DF000A50E0E00DB0D0E00B30F0E009F110E00AE
:100E0000DB0D0E00DB0D0E00DB0D0E00DB0D0E000A
:100E1000DB0D0E00B9110E00DB0D0E00DB0D0E0018
:100E2000DB0D0E00DB0D0E00EF0F0E00DB0D0E00D4
:100E300023100E00DB0D0E00930F0E00503B9AB2F4
:100E4000062ACAD8062BC8D801A252F823F000BF40
:100E5000D70E0E007B100E00B9110E00DB0D0E0038
:100E6000DB0D0E00490F0E0043100E009D4D8388D0
:100E70002B809D4B1B680BB1012098479B4928880C
:100E8000FFF728FF0028A8D0994A9A4B9A499B1A45
:100E9000DB081B04024643F001000BB0BDE8F04044
:100EA00009F016B98F4B4FF6FF721A80934B1B68EF
:100EB0005A0707D4FFF73AFF20B1914A40F29D212B
:100EC000FFF730FA884B1B68002B86D002200BB04E
:100ED000BDE8F04018478B4EE288B3889A427FF411
:100EE0007CAF894802F0C0FB054660B9804B814861
:100EF0008649C01AC008000440F002000BB0BDE8EB
:100F0000F04009F0E1B8228A04F1120109F0E4FD91
:100F10001822002104A809F007FE08238DF81030DC
:100F20007B4B06937B4B0596CDE9073504A8238AB6
:100F3000ADF8243007F068FB00283FF44EAF72484C
:100F4000294602F0B7FB48E7E188F6291FD8CB1EF7
:100F50009B070DD0CB1F9BB2013B5A4202F003020C
:100F600003F0030301F1FF3158BF5342C91A89B29C
:100F70005C4B1888FFF7CCFE00283FF42EAF604A88
:100F800040F2CF210BB0BDE8F040FFF7CBB9F7211D
:100F9000EEE70022808804A9CDE90422FFF7AAFE2B
:100FA00000283FF41AAF564A40F2DE21FFF7BAF9A3
:100FB00013E74C4C02230493208802AB04AA42F6A8
:100FC00005210593FFF79CFE20B14D4A40F2F72121
:100FD000FFF7A8F9002320881A468521FFF784FE31
:100FE00000283FF4FAAE464A40F2FF21DEE73D4BCF
:100FF00000F108011888FFF76DFE044600283FF451
:10100000ECAE3B483B4B44491B1ADB081B04224611
:1010100043F0010009F05CF8394A4FF4477120466B
:10102000B0E7002380888DF8103004A98DF81130C6
:10103000FFF75EFE00283FF4D0AE314A4FF44D7109
:10104000B4E7A379002B7FF4C8AE264B1321188890
:10105000FFF742FE00283FF4C0AE294A40F23D317E
:1010600090E7204B00211888FFF756FE00283FF438
:10107000B4AE234A4FF4517184E7A379002B3FF4B7
:10108000ACAE022B7FF4A9AE1E4D2189AA899142F4
:101090007FF4A3AEA27B012A7FF49FAE4FF480328F
:1010A0000592228A0F4EADF81820628AADF81A20F8
:1010B00004F11402079201AF298A3088049302AA2E
:1010C00002930397FFF71CFE40BB384608F0B6FAC0
:1010D00020BB40F2FD133088ADF8143004A9FFF7AF
:1010E00013FE7AE6AEA1002030F50020C6B90E004E
:1010F00090D80E00E8D80E0024B80E002CF5002081
:1011000052B80E00F6F4002080D90E00E9B80E00A7
:1011100099120E00210D0E0008B90E00002304A93B
:101120003088ADF81430FFF7EFFD014600287FF45A
:1011300054AE182204A809F0F7FC237D254A8DF847
:101140001030022B0595069222D0062B10D0012BD1
:1011500010D1214B1A88214B1A80637DD4F81620B8
:101160000893012B099205D11D4807F095FC01E079
:10117000637D089304A807F047FA00283FF42DAEDA
:10118000184A194B19499B1ADB081B04024682E6D0
:10119000114AB4F815301380104A1380EAE700238F
:1011A00080881A461946FFF7A1FD00283FF415AEC6
:1011B0000F4A40F26B31E5E60023A0881A46194633
:1011C000FFF7A4FD00283FF408AE094A40F276314B
:1011D000D8E600BF99120E0034F5002036F5002045
:1011E0007CD80E0090D80E00E8D80E003DB90E0055
:1011F00052B80E0038B5134A1368D90701D400203D
:1012000038BD11498842FAD0104908884FF6FF715D
:10121000884211D043F0040313211360FFF75CFDF3
:101220000028EDD10A4DC82445F001054FF47A405D
:10123000A847013CFAD1E2E7064B1878BDE83840F0
:10124000FFF746BD2CF500207CD80E00AEA1002093
:10125000C0B90E00ACA100207FB50023CDF80B3043
:101260008DF80F300A4BADF806109B89ADF80830A9
:1012700001238DF80A300DF10603CDE90430054B4A
:1012800002A91888FFF73EFD07B05DF804FB00BF18
:10129000F6F40020AEA1002010B5044686B000216F
:1012A0000D2202A8019109F03FFC2378082B0BD1F5
:1012B0003C4A3D4913880988013B9BB2138031B3F6
:1012C0002BBB032311802370637822788DF80520CF
:1012D0006021012B8DF804108DF8063019D03349A8
:1012E0003348401AC0080004324940F0020008F0B8
:1012F000F8FE63780B2B12D106F0DCFE8DF80700A8
:10130000002006F0D1FE042101A8FFF7A5FF06B0DA
:1013100010BD062A05D0082A29D0032A27D0032188
:10132000F2E7E1688DF80710D4E90123080A8DF887
:101330000800080C090E8DF80A10110A8DF80B2010
:101340008DF80C10110C120E8DF80E201A0A8DF863
:101350000F308DF810201A0C1B0E8DF80D108DF823
:1013600009008DF811208DF812300F21CCE7D4E957
:101370000123110A8DF807208DF80810110C120EA8
:101380008DF80A201A0A8DF80B308DF80C201A0CF3
:101390001B0E8DF809108DF80D208DF80E300B21E5
:1013A000B2E700BF36F5002034F5002090D80E00DB
:1013B000E8D80E0071B90E002DE9F0413E4B94B013
:1013C00005464FF6FF721A8001204FF659632A46F0
:1013D00002A98DF80A00ADF80830FFF78DFC04462D
:1013E000002865D1354B04AA03F11007164618688A
:1013F0005968144603C40833BB422246F7D1A91CDE
:101400003046FFF787FC0446002851D101461C22D4
:101410000DA809F089FB9DF834308DF8044043F0A5
:1014200004038DF834300223ADF80C30AB788DF81E
:101430000E3003238DF80630F423CDE90A44ADF8CD
:101440002C302B464FF0110833F8040B0C9403AFEB
:1014500001AE08AA0DA98DF8058008970996FFF737
:101460004DFC044620BB01461C220DA809F05CFB84
:1014700018238DF834300123ADF80C30AB788DF89B
:101480000E3013238DF806301723CDE90A44ADF84A
:101490002C302B4608AA33F80C0B8DF804400DA90C
:1014A0000C94CDE908768DF80580FFF727FC0446FB
:1014B000204614B0BDE8F081AEA10020ACB90E000A
:1014C00030B5334C236813F0010585B05DD1314B45
:1014D0001860314802F0B1F8029506F006FE0028C7
:1014E0004CD12E48FFF71AFC002847D102F0AEFD80
:1014F000002843D102A802F081FE00283ED102A9B3
:10150000012002F085FE002838D102A802F0E8FE92
:10151000002833D107F080FA30B1214807F070FA83
:10152000236843F002032360112302A88DF80430DE
:10153000FFF7C8FB10BB9DF8093002A801338DF8F6
:101540000930FFF7BDFBC8B923689B0718D51449BC
:101550008869043182B201A8FFF7C2FB70B9114853
:10156000FFF7BCFB50B91048FFF726FF30B9FFF773
:10157000DDFB18B9236843F00103236005B030BDDB
:101580000A4809F02FFB0949E4E70020F6E700BF0D
:101590002CF5002030F5002080D90E0000000E0050
:1015A0008CE40020C6B90E00F6F4002098B90E00B5
:1015B000074B1B5C1F2B86BF064903F01F034FF030
:1015C000A041012202FA03F3C1F80835704700BFB9
:1015D000CEB90E000003005008B50020FFF7E8FF69
:1015E0000120FFF7E5FF0220FFF7E2FFBDE808401A
:1015F0000320FFF7DDBFC20710B504460CD54FF03E
:10160000A0430322C3F83427C3F83827C3F83C2784
:10161000C3F84027FFF7E0FFA3070AD54FF0A04328
:101620000C22C3F82C27C3F83027C3F86027C3F86F
:10163000642710BD0E4B984214D00AD8B8B10D499A
:1016400048F2165248F20153884214BF1046184619
:101650007047094B984208D0084948F2165248F2A0
:101660000353F1E748F20350704748F202507047C5
:101670000102F0000002F0000202F0000F02F00090
:1016800008B5083009F074F8BDE80840FFF7D2BF8C
:1016900013681F2B2DE9F34106460F46144620D947
:1016A000DFF84C800121404601F068FF0546BFF39A
:1016B0005F8FC8B900F07CF8394606F1080009F0E0
:1016C000C3F8019000F082F8BFF35F8F0198C8F86B
:1016D0000050FFF7AFFF08B92023236002B0BDE838
:1016E000F08148F21450F9E748F20450F6E700BFE1
:1016F000380501202DE9F04105460E461948012123
:10170000144601F03BFFBFF35F8F38BB00F050F889
:10171000DFF854800835B4F5805F274628BF4FF4C2
:10172000805731463A46404609F0D6F93A46414696
:10173000284609F037F8E41B3E4468B9002CEAD18A
:1017400000F044F8BFF35F8F064B00221A6020467A
:10175000BDE8F041FFF76EBF0446F1E748F20450E0
:10176000BDE8F0813805012038F50020024B00204B
:10177000C3F80005704700BF00A0025038B50A4BFF
:1017800000251D60BFF35F8F084C0123C4F80035AE
:1017900009F08AF8C4F8005520B1052848F2035032
:1017A00018BF032038BD00BF3805012000A002503B
:1017B000044B0122C3F80025034B4FF480625A60AA
:1017C000704700BF00A0025000E100E0064B00227D
:1017D000C3F80025054B4FF48062C3F88420BFF3A3
:1017E0004F8FBFF36F8F704700A0025000E100E001
:1017F0004B1C30B5DB00044612F003009BB20DD148
:10180000074D2A601A44074B1A60074B1870074BA4
:101810001870074B1C80074B198030BD0720FCE770
:1018200044050120400501203C0501204C05012014
:10183000480501204A0501202DE9F347DFF8C08063
:10184000B8F800308B4206460D4617464CD30024AC
:101850000DF107008DF8074001F090FD244B254A5B
:1018600025481B78008892F800C084455FFA8CF107
:1018700038BF4C1CDBB238BFE4B2A3422ED0147880
:101880001178CBB2884286BF0133DBB200231370DC
:101890009DF8070001F096FD4FF6FF739C4225D09E
:1018A000DFF86090D9F800204FEAC40A42F834709B
:1018B00002EBC403AEB1A5B1104BB8F800001B6831
:1018C0002A4604FB0030314609F006F9D9F8003009
:1018D000534400209D8002B0BDE8F0874FF6FF74AE
:1018E000D6E700209880F6E70920F4E70420F2E725
:1018F0004C0501203C0501204A050120400501203E
:10190000480501204405012070B5104C104D227887
:101910002B789A4200D170BD0E480F4A2378126886
:1019200006880E4802EBC301006852F8332089880C
:1019300003FB060090470A4922780988D3B29142F6
:1019400086BF0133DBB200232370E0E74C050120A2
:101950003C050120480501204405012040050120E7
:101960004A05012043681B6818470000024B5B686A
:1019700003B11847704700BF50050120020600F070
:101980000F034CBF02480348DB001844704700BFF8
:101990005C050120A405012008B5FFF7EFFF0160F9
:1019A00009B14B681968416008BD0000024B01464F
:1019B000D3E90002104700BFA405012038B5831EFB
:1019C000DBB2062B98BF1A4A1A4D98BFD25C2B780F
:1019D000A3F10203DBB288BF0022062B9ABF144991
:1019E000CB5C00239342044603D0B2B1124802F00C
:1019F000B9FD022C14D0A4F10800424242412B78D8
:101A0000022B0FD0A3F108014B424B41934202D06D
:101A100052B104F039FC2C7038BD02F0DDFDE8E76E
:101A20000122ECE70123F1E704F024FCF3E700BF17
:101A30007BBA0E00F5050120B0A100202DE9F04F82
:101A400087B000260546884691461F4602966B6879
:101A500000225C682946012302A8A047044638B941
:101A60008DF8060004908246564503D8052028E0EC
:101A70000136ECE76B680DF10602D3F804B0294695
:101A8000012304A8D8476B680DF10702D3F804B00E
:101A90002946012304A8D8479DF8073043459DF8FF
:101AA000063013D14C450FD1109A13603B7087F864
:101AB00001806A68023B54682946BA1C04A8A04702
:101AC000002007B0BDE8F08F0134E4B26A68023B41
:101AD000D2F804B02946002204A8D8479DF8063061
:101AE0009A44C1E70378052B0BD1074AD2F8843416
:101AF000D2F88024D2B222B9044ADBB2052B08BF47
:101B00001046034B1B6818470070024094BA0E0041
:101B100050050120FFF7E6BF012805D0022805D0B7
:101B200030B90448FFF7DEBF0348FBE70348F9E795
:101B3000704700BF90BA0E008CBA0E0088BA0E0033
:101B40000148FFF7CFBF00BF98BA0E002DE9F74359
:101B500005462D4804F0AEFB044600284FD12B4B20
:101B600018702B4B18602B4B0146186048222A48EE
:101B700008F0DAFF29484822214608F0D5FF284B13
:101B8000ADB9284A1D72C3E90025002002F0B8FD56
:101B900030B1852804D0244A40F25F31FEF7C2FB01
:101BA000224F002697F8089007F1090814E095E8FD
:101BB000070083E807000028E7D11A4A1A60E4E723
:101BC000A37823443946985CFFF7E6FE0135637835
:101BD000EAB29342F4D80136F4B2A14504D904EB39
:101BE000440444440025F2E70B2310488DF80430E8
:101BF00001A9FFF7B7FE044608B104F023FA204616
:101C000003B0BDE8F08300BF151B0E00F5050120F1
:101C1000EC050120F00501205C050120A405012050
:101C200050050120651F0E00ECB90E00CCBA0E0065
:101C300010B504F0D7FA10B90823184610BD04F007
:101C4000D9FA04460028F7D1064802F08DFD034674
:101C50000028F2D0044A40F2C231FEF763FB23466B
:101C6000EBE700BF84BA0E00ECB90E0004F0F4B943
:101C700004F03CBE4FF08043D3F83824920702D5DD
:101C80000348FFF72FBFD3F83824D107F4D47047A7
:101C90009DBA0E0007B5822301A88DF80430FFF726
:101CA00021FF03B05DF804FB2DE9F74300F10901C2
:101CB00090F80890054600270E46FBB24B452AD205
:101CC00091F801800024E3B298450AD98B780A196B
:101CD0000134D05CFFF752FE0368002BF3D01120D3
:101CE00028E001370331E8E7A27823442946985CCD
:101CF000FFF752FE01376278FBB29A42F4D808F13E
:101D000001082B7A5FFA88F4A34216D904EB440445
:101D100034440027EFE74FF00008F2E713681A6831
:101D2000002AFBD11D6001A90B2328468DF8043041
:101D3000FFF718FE03B0BDE8F083014BEFE700BFEB
:101D4000EC050120024B1878003818BF01207047BD
:101D5000F4050120030710B5044604D404F0CEFBBB
:101D6000204604F091FE2046BDE8104004F036BE47
:101D700004F002BE014B1868704700BFEC0501205B
:101D8000F0B50A4B0246186878B1057A0023861D23
:101D9000DCB2A54201D80368F5E7013303EB430742
:101DA000F75D9742F4D101B10C70F0BDEC05012054
:101DB0001146FFF7D7BD08B500F00F03082B07D871
:101DC000FFF7DCFD006818B1BDE80840FFF7CABDA9
:101DD000102008BD38B5054B05461C6804B938BD50
:101DE00029462046FFF7BEFD2368F6E7EC050120F3
:101DF00038B5074B05461C680CB9062038BD294686
:101E00002046FFF7AFFD0628F8D12368F3E700BFAF
:101E1000EC05012013B50446019104F091FA50B18C
:101E2000064B1B78022B06D10199204602B0BDE873
:101E3000104004F095BA082002B010BDF50501204D
:101E400013B50446019104F07BFA50B1064B1B78A0
:101E5000022B06D10199204602B0BDE8104004F0E3
:101E6000F9BA082002B010BDF5050120F8B54368A5
:101E70009B6805460C46164613B92EB1072002E0B2
:101E800098470628F9D0F8BD2B7AA34213D9093513
:101E900004EB44042C446778F3B29F4201D800203D
:101EA000F1E762789A4208D9A219A378D05CFFF7CB
:101EB00051FF0136F0E77378FFDE00231B78FBE764
:101EC00070B54368DB6805460C4603B198472B7A2A
:101ED000A34213D9093504EB44042C440025667849
:101EE000EBB29E4200D870BD62789A4209D962195D
:101EF000A378D05C04F040FD0135F1E700235B7866
:101F0000FFDE00231B78FBE743681B6903B118471A
:101F10001846704770B5084B1C6804B970BD267A26
:101F20000025E9B28E4201D82368F5E70022204659
:101F3000FFF79CFF0135F4E7EC05012070B5084B75
:101F40001C6804B970BD267A0025E9B28E4201D81A
:101F50002368F5E72046FFF7B3FF0135F5E700BF3B
:101F6000EC05012038B503780F2B044610D9A3F1F6
:101F7000800283F08003052B00D938BD052AFCD8E8
:101F8000DFE812F067002C00490073007E00E000DB
:101F90000F2BF2D801A252F823F000BFA3200E00AD
:101FA000D3200E0033210E00F7200E0015210E0065
:101FB00045210E0057210E007B1F0E0081210E00CF
:101FC00085210E0089210E007B1F0E007B1F0E0055
:101FD0007B1F0E007B1F0E004F210E006B48FFF78A
:101FE000E5FC6A48FFF7F6FE0D20FFF7BFFCFFF7A0
:101FF000A5FF00F0DEFE664B1B6853B9654B187AEF
:1020000000F0010004F0CAF80120BDE83840FFF7F5
:10201000D5BC0120F4E7FFF791FF04F045FC002058
:10202000FFF7CCFC5C48FFF7D5FE5B48FFF7BEFC32
:102030000E20FFF79BFC594B1B78023BDBB2062BB3
:102040009BD8574AD35C002B97D0BDE8384002F0AC
:10205000C3BA524B1B78062B05D003F0FD03052BAA
:102060008BD10220D1E70820CFE74C4B1B78032B04
:1020700083D104F055FC00283FF47FAF0420C4E76F
:10208000464B1B78032B05D104F04AFC10B1042009
:10209000FFF794FC04F0B8F800283FF46EAF062078
:1020A000B3E73E4B1B78032B01D0082B02D13D48F0
:1020B000FFF758FF0020FFF759FC354B1D68002D36
:1020C0003FF45BAF28462146FFF74CFC2B685D6868
:1020D000F5E7FFF733FF00F063FE0220FFF76EFC29
:1020E0000120FFF743FC2046FFF760FC2046BDE8D7
:1020F0003840FFF76FBE294B1B78082B06D1022012
:10210000FFF75CFC04F0CAF80320EAE70520FFF7BC
:1021100055FCF9E70320FFF729FC2348FFF746FCAD
:102120002148FFF757FE1D4B1B78062B99D107203E
:102130006BE70320FFF742FC0220FFF717FC204665
:10214000FFF748FE2046BDE83840FFF72FBC0F20C0
:10215000FFF70CFCCAE78078FFF710FC21464368C4
:102160000068984700283FF408AFA07802073FF4C2
:1021700004AF03073FF501AFBDE8384004F0B0B944
:102180000820E5E70920E3E70A20E1E79CBA0E0012
:10219000F0050120500501209BBA0E00F505012035
:1021A0007BBA0E009ABA0E0099BA0E00C36903B149
:1021B0001847704703680022C3E91E22C3E92022A2
:1021C0001A845A62DA6203F134025A67704710B512
:1021D000044658B90868037B202B09D100F10E0191
:1021E0000722183008F078FC204610BD0320FCE7D9
:1021F0000620FAE74360CA699A420DD38A690260F1
:10220000C8691A448A610A6FC01A1A44C861003842
:102210000A6718BF0120704701F1280202608B672E
:1022200000207047F0B504680D7A002C00F087801C
:10223000A4F213347C2C00F222837C2C00F21F8346
:10224000DFE814F085008F009D00A900B500C100F3
:10225000CD00D9001D031D031D031D031D031D0318
:10226000EF00FB001D031D031D031D0318012401C6
:1022700032011D031D031D03450151017F011D0393
:102280001D031D031D03670173017F011D031D0352
:102290001D031D031D031D038B011D031D031D03D2
:1022A0001D039F01AB01B701C301CF011D031D0336
:1022B000DB01E701F301FF010B021D031D031C02FB
:1022C0002802340240021D031D034C02580264021E
:1022D00070027C021D031D031D031D031D031D034E
:1022E0001D031D031D031D031D031D031D031D03EE
:1022F0001D031D031D031D031D039B02A7021D03D8
:102300001D031D03C0021D031D031D031D03DD026C
:102310001D031D031D031D03DD021D031D031D03FE
:102320001D031D031D03E902F5021D031D031D030B
:102330001D0313031D031D031D031D0313030824A5
:10234000047123B940F2133303600120F0BD0AB1D8
:10235000047914700B24012B04710ED84FF44573CB
:10236000F2E700240AB10679165501340E7D067194
:102370009C4205D340F21533E6E70124F2E700243E
:102380000AB106791655013402269C42067103D320
:1023900040F21633D8E700240AB106791655013405
:1023A00002269C42067103D340F21733CCE7002487
:1023B0000AB106791655013402269C42067103D3F0
:1023C0004FF44673C0E700240AB10679165501346C
:1023D0004E7E06719C4203D340F21933B4E70024C9
:1023E0000AB106791655013400269C42067103D3C2
:1023F00040F21A33A8E700240AB1067916559D4E1B
:102400000027013437709B4E3678AE4202D340F23B
:102410009A3399E70926A342067103D840F2213383
:1024200092E700240AB106791655013404269C422D
:10243000067103D340F2223386E700240AB10679FD
:1024400016558C4E0F7A3678DFF82CC2B74204F15D
:10245000010440F2188201F1090706EB460607EB7A
:10246000060E9C42BE5DCCF800E0067103D340F23C
:10247000273369E700240AB106791655013400268E
:102480009C42067103D34FF44A735DE700240AB1FE
:1024900006791655784E36680134767806719C4276
:1024A00003D340F229334FE700240AB106791655C9
:1024B000714E0F7D36683678B74204F101041ED1A3
:1024C00002269C42067103D340F22D333CE70024E0
:1024D0000AB106791655013402269C42067103D3CF
:1024E00040F22E3330E700240AB106791655013444
:1024F0004E7E06719C4225D340F22F3324E78F7D18
:10250000B74223D10A269C42067103D34FF44D7380
:102510001AE700240AB106791655013400269C42B8
:10252000067103D340F235330EE700240AB1067971
:102530001655013400269C42067103D340F236330F
:1025400002E700240AB10679165501340026A34299
:10255000067103D840F23D33F6E600240AB106794D
:102560001655454E0F7D36683678B74204F10104A2
:1025700040F0E98005269C42067103D340F24233C5
:10258000E2E600240AB106791655013424269C425D
:10259000067103D340F24333D6E600240AB106792C
:1025A0001655013400269C42067103D34FF4517333
:1025B000CAE600240AB106791655013410269C4259
:1025C000067103D340F24533BEE600240AB1067912
:1025D0001655013401269C42067103D340F246335E
:1025E000B2E600240AB106791655013405269C424C
:1025F000067103D340F24933A6E600240AB10679F6
:102600001655013424269C42067103D340F24A3306
:102610009AE600240AB106791655013401269C4237
:10262000067103D340F24B338EE600240AB10679DB
:102630001655013403269C42067103D34FF453739D
:1026400082E600240AB10679165501348E7D0671A2
:102650009C4203D340F24D3376E600240AB106795A
:102660001655013404269C42067108D34FF4547366
:102670006AE600BFF7050120FC05012000240AB12D
:1026800006791655013424269C42067103D340F284
:10269000513359E600240AB1067916550134022651
:1026A0009C42067103D340F252334DE600240AB136
:1026B00006791655013402269C42067103D340F276
:1026C000533341E600240AB1067916550134052634
:1026D0009C42067103D340F2563335E600240AB11A
:1026E00006791655013424269C42067103D340F224
:1026F000573329E600240AB1067916550134062617
:102700009C42067103D34FF456731DE600240AB1B0
:102710000679165501340E7D06719C4203D340F2B2
:10272000593311E600240AB10679165501348E7D1D
:1027300006719C4203D340F25A3305E600240AB1E5
:10274000067916550134534E36687778524E3770F5
:10275000524E00273770514E37784F4E3678B74279
:1027600004D34F4F3E7801363E704CE60726A34215
:10277000067103D840F26E33E6E500240AB106790B
:102780001655013405269C42067103D340F26F337F
:10279000DAE500240AB1067916553E4E3F4F3668F9
:1027A0003F7896F801C0BC4504F1010470D996F851
:1027B00002C03E449C4216F80C60067103D340F2FE
:1027C0007333C1E500240AB106791655314E0F7DE9
:1027D00036683678B74204F1010406D103269C42DC
:1027E00006710DD34FF45E73AEE58F7DB7420BD10A
:1027F00002269C42067103D340F27D33A4E50024F7
:102800000AB10679165501344026A342067103D851
:102810004FF4617398E500240AB106791655013426
:1028200000269C42067103D340F285338CE50024D8
:102830000AB106791655174E0F7D36683678B742BD
:1028400004F1010407D10E6A9C42367806710DD35B
:1028500040F28A3378E58F7DB7420BD100269C4247
:10286000067103D340F28F336EE500240AB1067976
:1028700016550134094F3E7801363E706BE7002350
:102880000360184662E50023CCF800301B78FFDEB9
:102890000023FBE7FC050120F6050120F8050120D7
:1028A000F7050120037A012B08D9427B012A00F1A8
:1028B0000C0306D9827B13445878704700235B7859
:1028C000FFDE00231B78FBE72DE9F0470B7888B08B
:1028D00005460E460E2B1AD8DFE813F060004201C1
:1028E0006000600019000F00AD00190019003F01E1
:1028F000190060006000600060004A78D1094FEA6A
:10290000521335D013F0030303D0012B21D006243A
:102910001BE002F01F02012AF9D1B478062CF6D18F
:1029200005A8039300F0BCFC03AB0093F278317967
:10293000034607462846FFF781F8052805D0039A85
:102940003946701C00F050FA0446204608B0BDE835
:10295000F087B378212BDAD1B6F80720072AD6D131
:102960000168701C183108B0BDE8F04700F03CBAAF
:10297000012BCCD1B3780768202B11D0222BC6D1E4
:10298000B6F80730002BC2D13A8CB6F803303B843E
:1029900002F0010203F001018A4227D10024D4E7AA
:1029A000B6F80720072AB2D13B73B6F80730DBB27E
:1029B0007B7300240DF10B000E37CDE905730794EE
:1029C0008DF80B4000F0DAFC204605A9FFF722FA4B
:1029D000044630B9684B03A9CDE9033500F0F2F99C
:1029E00004469DF80B0000F0EDFCAEE78CB2C1F19F
:1029F0000301C9B2FFF7DAFB002CCFD12B7A012BF0
:102A000040F2B4806B7B05F10C02002B00F0B0802B
:102A1000AB7BD05C03F09EFE2846FFF743FF03F03C
:102A200099FE07F13403C7E91E44C7E920447C62DC
:102A3000FC627B6789E7037A002B00F09B80837A36
:102A400000F10901002B00F09380C27AB3788A5C10
:102A50009A42A3D01B06F77809D527B1032F14BFDC
:102A60000324002471E70121FFF7A0FB96E707F09C
:102A7000FD03012B92D0002F76D10668FFF712FFDD
:102A80003E4B059306F10C030693B46A8146C4B924
:102A9000F36FB467C6E91F43F36A63B1D6E90B016C
:102AA00006F1240383E80300F46205A94846FFF712
:102AB000C7F9044600E0746200212846FFF776FB60
:102AC00043E7D6F884A0706A544528BF544606F1FF
:102AD00034082246414607F0FFFFF36F2344C6E95E
:102AE0001F73AAEB0403B367F36A444474672BB300
:102AF00006F1240406F12C0898E8030084E803009A
:102B0000B36F706AF7621BB9736A002BCDD116E000
:102B1000B26A716F9A4214D807F0DEFFB36AB26FDF
:102B2000C6F88030D21AB267726F1A4472670021F9
:102B30002846FFF73BFBF36A002BDDD173620024CC
:102B4000BAE71A4607F0C8FFB26FB36AF2679B1A7A
:102B5000B362736A13447362D6E70321FFF726FB5F
:102B60002846FFF727FB19E70324EEE66378FFDE2C
:102B70001B78FCE75B78FAE7CF210E00F5210E0009
:102B80001FB503681B8CDC0714D5037A012B13D9FE
:102B9000437B00F10C0493B1837BE05C9306CDE9A9
:102BA00001120CBF0123002301A90393FFF732F99F
:102BB00004B010BD0820FBE700235B78FFDE1B7824
:102BC000FCE700002DE9FF410468238CDB07804609
:102BD0000F4616464BD500230DF107008DF8073040
:102BE00000F0CCFB656A002D39D1A16FB14214D33E
:102BF000616F3246384607F06FFFA36FC4F88060FC
:102C00009B1BA367636F334463679DF8070000F065
:102C1000D9FB284604B0BDE8F081C4E909764046F6
:102C2000FFF740FE134B029304F10C030646039397
:102C300069B10A463846616F07F04EFFA36FA26A7A
:102C4000D21AA262626AC4E91E531A44626202A9DD
:102C50003046FFF7F5F8051E08BF9225D5E7E36A71
:102C60001BB9C4E90B769225CFE71125CDE70825DE
:102C7000CFE700BFF5210E00002070472DE9F04F8F
:102C80002DED028B85B04B68019280460C466BB9E6
:102C90000B681B681B684BB98D683DB9C0E90055CE
:102CA000284605B0BDEC028BBDE8F08F03F014FCA4
:102CB000019BE7689F4228BF1F4604F110034FF0B5
:102CC000000A08EE103A8146564601254FB3A36824
:102CD0006168BB429B4628BFBB4629B35A4609EBF5
:102CE000060007F0F9FE00236360A268E368A2EB28
:102CF0000B02A3EB0B03A260E360A7EB0B075E44A0
:102D00000ABBBAF1000F03D0226812681268226071
:102D1000DBB12368DBB963601EB1019BB34288BF9E
:102D20000025C8E90096BBE7002BDED021684B6880
:102D300018EE100AD3F804A009EB06025B46D04750
:102D40004FF0010AD1E7002BC0D10025BEE70023D8
:102D5000029321684B680022D3F804B002A8012333
:102D6000D84708B92061B1E7A3680133A360F0E751
:102D7000084B1A7882420CD0052818BF064A1870F2
:102D800018BF137805481CBF23F002031370FFF728
:102D9000E9B870470C06012028060120DCBA0E00B5
:102DA00008B50020FEF7D6FFBDE808408020FEF7FA
:102DB000D1BF08B50020FEF7DBFFBDE8084080204A
:102DC000FEF7D6BF38B505460C4603F017FCA842FF
:102DD00003BFD4E90001034BC3E90001102008BF81
:102DE000002038BD2C0601207FB5C38893421E46C3
:102DF00028BF164693420D46144625D9802003F07D
:102E000099FAB4FBF0F202FB1044B4FA84F46409BA
:102E100000230DF1030003948DF80330CDE9015632
:102E200000F0ACFA01A98020FEF7F4FF044620B9B7
:102E300006498020FFF7C6FF04469DF8030000F016
:102E4000C1FA204604B070BD0024E1E710BB0E00BB
:102E50002DE9F04F0B780E2B89B00D4613D8A3B196
:102E6000013B0D2B11D8DFE813F012001A001600F9
:102E700010002A00FA0110001000100010001A00C3
:102E8000E401E801F801852B13D00624E1E10320D9
:102E9000FFF76EFFF9E7A84800F0C9FB08B9002466
:102EA000D7E1A64B0122DA65BFF36F8FBFF34F8FD7
:102EB000F5E7A34B1B78032BE7D10420E8E70523B4
:102EC000A04D8DF814300DF1150003F027FB002301
:102ED0002B609DF8153003F01F07032F00F262816D
:102EE000DFE817F00400FB0057013E0013F0600F0D
:102EF000C3F3411834D1DB099DF8161000F0A68009
:102F0000062916D0082900F0938049BB8E4C022276
:102F1000204607F009FE237843F0010222708B4A15
:102F20001278920744BF43F00303237002228649BC
:102F30000EE09DF81830022B16D0032B68D0012B21
:102F40000ED1BDF81B30002B00F070818049122299
:102F50000DF11500FFF748FF0446062C40F02A81CA
:102F600005A8FEF745FF12E1BDF81B60002E00F03A
:102F70005D81092E28BF0926FEF7FCFE4FF00909E6
:102F8000044674BB704C73493246204607F0A4FDDA
:102F90002771A4F80290FEF7D5FE18B1E37943F04B
:102FA0002003E371FEF7E6FE6B4BC3E900049E606D
:102FB000BDF81B20DA6003A800238DF80C3000F068
:102FC000DDF966498020FEF73BFF044620B96449DD
:102FD0008020FFF7F7FE04469DF80C0000F0F2F9A0
:102FE000BBE7CDF80C804FF0000A63680022D3F8ED
:102FF00004B02146012303A8D84730B9237A1F44DF
:103000002368D1441C68FFB2BBE70AF1010AECE770
:10301000BDF81B30002B00F00981BDF819109DF898
:10302000170000F08DF90146002899D002788FE74B
:10303000434A1278052A03D1434A1370012276E7E6
:10304000042A8DD1404B83F80080F7E7032910D084
:1030500009292CD0012983D1BDF81730012B7FF429
:103060007FAFFEF76FFE60B1384A137823F002039A
:103070000FE0BDF81730012B7FF472AFFEF762FE50
:1030800018B90F2403F0B0FAE3E0304A137843F0A4
:10309000020313702B68002B00F0C88003F0AEFA17
:1030A000044600287FF4FBAE03F05EFAD1E0244B27
:1030B0001B78043B012B01D90824E3E79DF8173066
:1030C0002BB9FEF73BFF0420FFF752FEE2E7012B8E
:1030D00056D1FEF71FFF0520F6E79DF8190003A95A
:1030E000FEF74EFE064608B91024CBE79DF80C10FB
:1030F00005AAFEF75DFE062804465BD19DF8152063
:1031000012F0600FBED10E4B9DF80C1018789DF890
:103110001630D2092CD02BB30A2BB3D10528CBD132
:1031200030460192FEF7F0FE0749019A08700DF152
:103130001500FFF759FE2AE0340601200070024016
:103140000C0601202C06012038060120280601204B
:10315000FCBA0E00DDBA0E001006012018BB0E00EE
:1031600010BB0E000528A7D14A490B800222DEE7DA
:103170000B2B87D105289FD1BDF81730FF2B01D924
:1031800007247FE79DF817203046FEF76FFE0446C0
:1031900010E09DF81900070706D19DF8153013F0CF
:1031A000600F0BD006246DE705A9FEF704FE062884
:1031B0000446F2D0002C3FF46DAF63E79DF8162073
:1031C000354B9DF819401B78012A1DD0032A0CD0DD
:1031D000002AE7D1052B02D026077FF46DAF2046E9
:1031E00003F08AF92B490880C0E72007DAD4BDF83C
:1031F0001720002AD6D1052B02D021077FF45CAF1F
:10320000204603F06DF945E72207CBD4BDF817201F
:10321000002AC7D1052B02D023077FF44DAF2046EB
:1032200003F06CF9204603F02FFC33E703F0D2F9EA
:1032300035E60020FFF79CFD31E64FF08043D3F8E0
:10324000384414F0010401D00220F3E70120FFF715
:103250008FFD204609B0BDE8F08F0120EAE7C8786D
:1032600003283FF412AE0D4E33688BB10022716813
:1032700032609847044600287FF404AF336823B1D6
:10328000AB78002B7FF40BAE0EE703F0A3F9E0E779
:103290000E24F7E6380601200C0601202C0601203A
:1032A00008B1402303600148704700BF3806012081
:1032B00070B54FF0805286B0D2F8A830D2F8A42072
:1032C00000926FEA83436FEA93430B4A0B4E9BB223
:1032D0000D2102A807F030FC02AD002402A807F07F
:1032E00081FC844201D306B070BD15F8013B06F89D
:1032F000013B0134F2E700BF20BB0E00780601203D
:1033000010B50E4B53F8204023780BB9A01C10BD0C
:103310000020FFF7C5FF013C00235A1CA15C39B90E
:10332000DBB201335B00DBB243F440730380EEE7B2
:10333000D3B220F813101346EFE700BF78BB0E009E
:10334000034608B9FFF7DCBF012807D0022805D0E3
:10335000032803D0042801D0052809D1054800EB33
:103360004303587820B1044B53F82030002BE9D1A7
:103370000020704790BB0E0078BB0E0070B5EFF3D5
:10338000108672B60C4A946801239CB993600B4B6B
:103390000B4DD3F8801029401160C3F88050D3F84A
:1033A000841051604FF0FF32C3F88420047006B9D6
:1033B00062B670BD0370FAE78806012000E100E004
:1033C000FC06FFBD10B5084B9A685AB150B9EFF32F
:1033D000108172B6054A1C6814605C68546098607D
:1033E00001B962B610BD00BF8806012000E100E00F
:1033F00030B53AB11368DB430A4D0144814204D130
:10340000D84330BD4FF0FF33F6E710F8012B53409F
:10341000082213F0010418BF2C46013A84EA530332
:10342000F7D1EBE72083B8ED10B561B1B2FBF3F44F
:1034300003FB1424A4B244B9C0E90014846082815F
:10344000C381204610BD0E20FCE70920FAE782B0B8
:1034500050E8022FC188B2EB324F4FF0000317BF84
:1034600092B241EA014142EA014104E04268B2EB12
:10347000324F08BF012340E80212002AE8D18DF83C
:1034800007309DF80730002B0CBF1120002002B040
:10349000704737B550E8013F9DB2C48925448489FF
:1034A000A54228BF2D1B0489A54202BFBFF32F8F61
:1034B000002207E0C5EA030540E80154002CE9D1E9
:1034C0004FF001028DF803200193019A0A609DF8E4
:1034D000031001F0FF0321B1006810FA82F003B07D
:1034E00030BD1846FBE70A884B889A4209D150E85C
:1034F000012FC2EA024240E80123002BF7D101204C
:1035000070470020704737B550E8023F1FFAA3F517
:10351000C488A54202BFBFF32F8F00220DE0C489EB
:1035200025448489A54228BF2D1BC3EA054540E8F0
:103530000254002CE8D14FF001028DF803200193D2
:10354000019A0A609DF8031001F0FF0321B10068A1
:1035500000EB124003B030BD1846FBE70A884B88E9
:103560009A4209D150E8022FC2EA224240E80223DF
:10357000002BF7D1012070470020704710B503469B
:1035800053E8000F0A4643E8002494F0000FF7D1F7
:1035900010BD10B5034653E8000F40EA010243E8AE
:1035A000002494F0000FF6D110BD10B5034653E887
:1035B000002F42EA010043E8000494F0000FF6D126
:1035C00010BD10B5034653E8000F00EA010243E8BE
:1035D000002494F0000FF6D110BD10B5034653E857
:1035E000002F02EA010043E8000494F0000FF6D136
:1035F00010BD10B5034653E8002F02EB010043E86D
:10360000000494F0000FF6D110BD10B5034653E846
:10361000002FA2EB010043E8000494F0000FF6D164
:1036200010BD0121FFF7B5BF0121FFF7BEBF00218B
:10363000FFF7C7BF0021FFF7D0BF10B590B1D0E9A9
:10364000012301689B1ADBB20A60013BDBB2FF2B4E
:10365000026802D10020107110BD11684C1C14606A
:103660000B70F2E70E20F7E737B5044600250DF1A1
:1036700007008DF80750FFF781FE22686168136824
:103680008B4210D9591E116013F8013C228AE5685B
:1036900002FB03552268A36811685B1A1179DBB23B
:1036A000994238BF13719DF80700FFF78BFE28463B
:1036B00003B030BD37B5054600230DF107000C46B9
:1036C0008DF80730FFF75AFE2A681368591C1160FD
:1036D000E968641A298AB4FBF1F41C709DF80700AC
:1036E000FFF770FE03B030BD13B50B46114680B92D
:1036F000104B1148114AC01A0E23C0080093104BFA
:103700000004104940F0010006F0F5FC0E2002B064
:1037100010BD4BB9074B08480B4AC01AC0080E230E
:1037200000930004064BECE703601B6802B0BDE8A1
:103730001040184790D80E0038D90E00A5BB0E00D7
:1037400061BD0E00AABB0E00D9BB0E002DE9F341EE
:1037500088B93D4B3D483E4AC01AC0080E243D4B37
:10376000009400043C4940F0010006F0C4FC2046EF
:1037700002B0BDE8F0814AB9334B3448374AC01A29
:10378000C0080E24334B00940004EBE7D0F800E0AF
:10379000BEF1000F09D12C4B2C48314AC01AC00889
:1037A00008242C4B00940004DCE74BB9264B274837
:1037B0002C4AC01AC0080924264B00940004D1E703
:1037C0004568D5F80480B3FBF8F508FB15354DB115
:1037D0001D4B1E48244AC01AC00809241D4B0094E2
:1037E0000004BFE78D0709D0174B18481F4AC01ABD
:1037F000C0081024174B00940004B3E712F0030F25
:1038000009D0114B11481A4AC01AC0081024114B94
:1038100000940004A6E7C568A9420BD34D1EEC181E
:103820000569AC4206D8DEF80C40A44602B0BDE8FB
:10383000F0416047044B05480E4AC01AC0081024E6
:10384000044B009400048DE790D80E0038D90E0088
:10385000A5BB0E004EBD0E00AABB0E0027BC0E007D
:10386000D3BB0E00E6BB0E002DBC0E0057BC0E00F5
:103870006FBC0E0092BC0E00F7B580B92A4B2B48E6
:103880002B4AC01AC0080E242A4B009400042A496F
:1038900040F0010006F02FFC204603B0F0BDD0F848
:1038A00000C0BCF1000F09D11F4B2048234AC01AA9
:1038B000C00808241F4B00940004E8E74AB91A4BDB
:1038C0001A481F4AC01AC00809241A4B0094000461
:1038D000DDE74568D5F800E00EF1FF350D4209D06F
:1038E000114B1248174AC01AC0081024114B0094FB
:1038F0000004CCE7C568A9420CD34D1E0EFB025450
:103900000569AC4206D8DCF81040A44603B0BDE817
:10391000F0406047044B05480B4AC01AC008102409
:10392000044B00940004B2E790D80E0038D90E0082
:10393000A5BB0E003BBD0E00AABB0E00D3BB0E0004
:10394000E6BB0E00B9BC0E00DFBC0E0070B550B96E
:103950000E4D0F4C0026641B1423B4FBF3F4B44249
:1039600008D1002010E00368002BF1D0BDE87040C2
:10397000DB6918472B6813B901361435EFE7DB69AB
:10398000284698470028F7D070BD00BF58A20020F5
:103990006CA20020014B43600020704774BD0E00F4
:1039A0000846704700207047024B1868003818BF5F
:1039B000012070479406012008B50248FFF73AFE3F
:1039C000002008BD9406012008B510461A4607F0ED
:1039D00083F8002008BD00002DE9F041804686B044
:1039E00011480F4616461D46FFF71BFE0446C8B990
:1039F000AA083146384600F083FF0B48FFF71AFE4D
:103A0000D8F8083053B101228DF800200C9A0592A5
:103A1000CDE90147CDE9036568469847204606B0E1
:103A2000BDE8F0811124F9E7940601202DE9F04367
:103A3000814687B014480E4615469846FFF7F1FDBB
:103A40000446F0B90746BD4215D10F48FFF7F2FD15
:103A5000D9F808305BB102228DF800200022CDE9B0
:103A60000126CDE90325CDF8148068469847204605
:103A700007B0BDE8F08306EB073000F013FF013715
:103A8000E1E71124F3E700BF9406012029DF704726
:103A900028DF704770B50668B36886B004460D46E7
:103AA00073B114220021684607F03EF8A36805931D
:103AB0002379019533B1012B0ED0B368684698473E
:103AC00006B070BD01238DF8003023690293E368CE
:103AD000039363690493F0E702238DF80030E368F1
:103AE0001B030293F5E7084670470020704700006B
:103AF000024B187A003818BF012070478408012053
:103B0000034B187A0122B0FA80F05A7440097047CA
:103B10008408012008B510461A4606F0DDFF002093
:103B200008BD000008B514220021044806F0FCFF7F
:103B30000348FFF78CFC002008BD00BF840801206B
:103B40007408012010B5094C094B43602046FFF76B
:103B500068FD48B900F0F8FA064920741C230648AD
:103B60004FF4EE72FFF760FC002010BD84080120C6
:103B7000A0BD0E00980601207408012038B5234D21
:103B8000234C2B7A3BB923492348FFF7BCFC206028
:103B900008B9686038BD022324682B72237973B199
:103BA000012B24D020460321FFF774FF00232B7242
:103BB0006B6018491848BDE83840FFF7CFBCD4E91E
:103BC0000523D21AB2F5805FD4E9031028BF4FF461
:103BD00080529208012A38BF012219441844FFF785
:103BE00055FF50B11128DDD101232B72D2E7D4E962
:103BF00003031844FFF74CFFF3E72B7C002BC9D1DC
:103C0000BDE83840022000F009B800BF8408012058
:103C10009C080120980801207408012038B5234C25
:103C2000237A002B41D0022B09D1032830D0204B1E
:103C300000221B68E2601A793AB1012A22D0637C23
:103C40007BBBBDE83840FFF799BFD3E905128D1A59
:103C5000B5F5805F94BF521902F580529A61914286
:103C6000EDD102284FF0000308BF19462372104B14
:103C700018BF0D211868FFF70DFF0E490E48FFF71A
:103C80006DFCDCE71A6901321A615B699A42E7E769
:103C9000E3680133082B01D8E360D0E70023E36039
:103CA000DFE7BDE8384000F03FBA38BD84080120A6
:103CB0009C0801209808012074080120831E012B14
:103CC00001D8FFF7ABBF704700F0FD03012B08D10F
:103CD000044B00225A74421E504250411874FFF7A0
:103CE0004DBF70478408012010B5064C201DFFF71A
:103CF00098FC28B9637C1BB9BDE81040FFF73EBFB4
:103D000010BD00BF840801202DE9F34180460D4617
:103D10000F4801A916461F46FFF7BBFB0446A8B192
:103D20001C22002106F000FF2D0B0123237101A9A5
:103D30000748C4F80080A760E5606661FFF7D3FB21
:103D4000FFF7D2FF002002B0BDE8F0810420FAE7BF
:103D5000740801202DE9F74381468846104801A9DF
:103D600017461E46FFF795FB0446B0B11C22002102
:103D700006F0DAFE00250A9BA36001A9C4E90378D6
:103D800007482571C4F800906661FFF7ACFBFFF7A8
:103D9000ABFF284603B0BDE8F0830420FAE700BF7C
:103DA000740801202DE9F84FB0F806A04579D2F843
:103DB00000B09DF828900AFB05F5043D88460BEB02
:103DC0000301A94203F1040488BFA5EB030BB4FB74
:103DD000FAF607460AFB1644C2F800B04EB9AAEB41
:103DE00004055D4528BF5D46BBF1000F04D1BDE869
:103DF000F88F3F68013EF1E7043408EB06003C44CD
:103E00002A46B9F1000F0DD02146ABEB050B06F0A9
:103E100063FEDA452E443F6855464FF0000428BF44
:103E20005D46E1E701462046EFE7FFF706BCF8B53F
:103E300046790146721E0546002393422D6803D33E
:103E40000024A64202D8F8BD0133F6E70F682846E1
:103E5000FFF730FC01343946F3E72DE9F843CD1C78
:103E6000068A0746FFF700FC043E35440446B5FBCE
:103E7000F6F5F0B14FF48073EDB28380C680013D5A
:103E8000076081464FF00008A84512D23846FFF778
:103E9000EBFB064648B163790133637108F1010811
:103EA000C9F8000007608146EEE72046FFF7BFFF34
:103EB00034462046BDE8F88301210430FFF799BB62
:103EC00010B5012104460430FFF79FFBC0B220B9B2
:103ED0002046BDE81040FFF7AABF10BD1FB50392F2
:103EE0000022009203AAFFF75DFF05B05DF804FB16
:103EF0001FB503920122009203AAFFF753FF05B0FA
:103F00005DF804FB01600B6843604A68934204BF9C
:103F1000002343607047436843B1026891680B44D3
:103F200043605268934204BF00234360704700001F
:103F300010B50D49A1F59472914201D800200FE00F
:103F40008C1AE30F03EBE4035B1002EBC30452F89B
:103F50003330834205D802D204F10802ECE76068EE
:103F600010BD2146E8E700BFC4C20E0008B5FFF748
:103F7000DFFF024B002808BF184608BD86C10E00AF
:103F800010DF704711DF704713B5044609496846D2
:103F9000FFF7B8FF019808B902B010BDD0E90021C1
:103FA0002046904718B16846FFF7B5FFF2E71120A9
:103FB000F2E700BF58C30E0013B504460749684630
:103FC000FFF7A0FF019B0BB902B010BD2046D3E95B
:103FD000002190476846FFF79EFFF3E770C30E008D
:103FE000084B9A6822B11A6822F480021A6070475E
:103FF000054B4FF48002C3F88020BFF34F8FBFF30F
:104000006F8F70478806012000E100E00C4991F8AD
:1040100016335A09EC231341DB0706D5094B9A687E
:104020004AB94FF480030B607047074AA12142F25E
:104030000200FCF777B91A6842F480021A607047F0
:1040400000E100E088060120C4C20E00F7B5194F58
:104050003C7864BB184E012520463570FFF794FF6D
:10406000112821D02046FFF7A7FF144B8DF80340FD
:10407000186801900DF10300FFF780F9104901A8BD
:10408000FFF77EFF0446B0FA80F0400938709DF8D3
:104090000300FFF797F93CB90A4B34701C70FFF727
:1040A000B5FF2846FFF788FF204603B0F0BD08247F
:1040B000FAE700BFA1080120A008012054C30E00A8
:1040C00051030E00A2080120F7B5154F3B781BB332
:1040D000144E01203070FFF757FF11284FF00005F4
:1040E0001CD00220FFF768FF0DF107008DF8075084
:1040F000FFF744F9FFF746FF04469DF807003D70BF
:10410000FFF760F92CB903203470FFF769FFFFF760
:1041100053FF204603B0F0BD0824FAE72C46F8E729
:10412000A1080120A0080120054B1B7833B1054BE5
:104130001B780BB1FFF7C8BFFFF788BF0820704797
:10414000A0080120A1080120014B1878704700BF8A
:10415000A108012007B508496846FFF7D3FE019B77
:1041600013B903B05DF804FBD3E90020904768461B
:10417000FFF7D1FEF3E700BF64C30E00FFF7EABF0D
:1041800060DF704769DF704761DF704730B5154DFC
:10419000ADF5017D4FF4FA740DF1020103A8ADF8FD
:1041A0000240FFF7F1FF70B9294601A8FFF7AAFE08
:1041B000029B002BF0D003A8D3E90021904701A86F
:1041C000FFF7A9FEF4E7052808D0074A40F23B11A3
:1041D0000DF5017DBDE83040FCF7A4B80DF5017D7B
:1041E00030BD00BF14C40E007CC30E00024B1B7810
:1041F0000BB1FFF7CBBF7047A308012018B1034BE9
:104200000360002070470E20704700BF90A100207F
:10421000F0B5074685B00D4600295DD02F4B0B60E9
:104220000C22002101A806F07FFC012606232A6843
:10423000ADF8083001A920208DF804708DF80660D3
:10424000FFF7A0FF0C22002101A806F06DFC00245E
:104250002A688DF8056001A94020ADF80640FFF7F7
:1042600091FF0C22214601A806F05EFCF7232A6884
:10427000ADF8063001A923208DF80470FFF782FF06
:104280000C22214601A806F04FFC2A688DF8046034
:1042900001A93046FFF776FF0C22214601A806F05F
:1042A00043FC4FF4B0632A68019301A9A120FFF7F2
:1042B00069FF0C22214601A806F036FC9DF8043067
:1042C0002A6864F3000301A9A0208DF80430FFF7E9
:1042D00059FF204605B0F0BD0E20FBE790A100205D
:1042E00008B5FFF74DFF10B9014B01221A7008BD48
:1042F000A30801204BDF70471FB50F4C01A8FFF743
:10430000F9FF70B9214602A8FFF7FCFD039B002BC3
:10431000F4D00198D3E90021904702A8FFF7FBFDF4
:10432000F4E7052806D0054A6B2104B0BDE810402B
:10433000FBF7F8BF04B010BDB8C40E0020C40E00D7
:10434000F0B578B371B36BB300241C608E18DB2713
:104350004FF0DC0C4FF0DD0E1A688E4202F10104C2
:1043600000EB020504D11C60C0232B700020F0BDBF
:104370000D78C02D05D0DB2D0CD01C600C7884543A
:1043800006E01C6087541A68541C1C6000F802C0C8
:104390000131E1E71C6085541A68541C1C6000F868
:1043A00002E0F5E70E20E2E710B580B3D0E9022382
:1043B0009A422ED00378012B0FD0022B21D053B973
:1043C000C02928D0DB2902D10123037003E0436810
:1043D000541C84609954112006E0DC2905D0DD29A5
:1043E0000AD0022303700B2010BD511C436881606A
:1043F000C02199540023E8E7511C81604368DB2108
:10440000F7E7C029E7D1002303708360E3E70E20BC
:10441000EAE70420E8E71846E6E742DF704743DFB3
:104420007047000038B5074C051E04F1080318BF9B
:104430001C4623682BB11A6822605B68284698479F
:10444000F7E738BDAC08012020B9054B01225A70AE
:10445000FFF7E8BF012802D1014A9070F8E77047E2
:10446000A408012020B9034B01225A70FFF7DABFDC
:10447000704700BFA408012038B50E4C2378B3B9AB
:104480000D486360A3602361E36000F06FFA0546A6
:10449000FFF75AFE08B900F075FA01232370074BA5
:1044A000D3F800340BB10123A370284638BD85250D
:1044B000F5E700BFA408012049440E0000000140B8
:1044C00037B50D4C00230DF107008DF80730FEF7CE
:1044D00055FFE368013BE360E36833B9074BD3F86A
:1044E000005415B900F064FAA5709DF80700FEF7B6
:1044F00069FF03B030BD00BFA408012000000140E7
:10450000012813B50CD0032820D038B9134B012251
:10451000C3F88020BFF34F8FBFF36F8F02B010BD81
:104520000F4C00230DF107008DF80730FEF726FF32
:1045300023780BB9FFF7A0FFE3689DF8070001336C
:10454000E3600123A370FEF73DFFE7E700F01AFAEE
:1045500002B0BDE81040FFF7B3BF00BF00E100E0CC
:10456000A408012037B51B4C6378054603F0FF0211
:104570009BB110B143680020984700230DF107005C
:104580008DF80730FEF7FAFE63689DF807000133E7
:104590006360FEF717FF03B030BD0DF107008DF823
:1045A0000720FEF7EBFE25B1A268134653B92A6037
:1045B000A5606368002BE7D1FFF7C6FD30B1FFF7B8
:1045C0002CFFE1E79D42F4D01B68EFE700F001FA11
:1045D000DAE700BFA408012073B50F4C00230DF1EA
:1045E00007008DF80730FEF7C9FE6368013B636082
:1045F000666836B9FFF7A8FD054640B1FFF70FFF23
:1046000066709DF80700FEF7DDFE02B070BD00F099
:10461000EDF96570F5E700BFA408012036DF7047AB
:104620004DDF70474EDF70474FDF704750DF7047F8
:1046300010B50446FFF7F6FF40B92046FFF7F0FF3C
:1046400020B92046BDE81040FFF7EEBF10BD01289D
:1046500010B5044602D100F019FA804700F01CFAA8
:10466000034668B10A2C07D00B2C07D0092C07D1C0
:104670000220BDE8104018470020FAE70120F8E7C3
:1046800010BD0000012813B5044603D003281CD038
:1046900002B010BD00230DF107008DF80730FEF7C2
:1046A0006DFE00F0F3F910B12046FFF7B7FF9DF85B
:1046B0000700FEF787FE00F0EFF90028E8D00120A0
:1046C00002B0BDE81040FFF7B3BF0C4BC02283F827
:1046D000002301221A6000F0D9F920B14FF0804385
:1046E0000422C3F8042300F0D7F90028D0D04FF0FB
:1046F00080434FF46072C3F80423C9E700E100E08F
:1047000038B50A4D2B78044663B9FFF71DFD58B93B
:104710000748002C18BF204600F0C4F908B901234F
:104720002B7038BD8520FCE70820FAE7B808012087
:10473000CAC40E0013B500240DF107008DF8074020
:10474000FEF71CFEFFF700FD58B12046FFF770FF93
:104750009DF80700FEF736FE02B0BDE8104000F0FD
:10476000D7B900F0CEF9F3E71FB50190FFF7E2FFEC
:10477000019800F0B9F9FFF7E7FC0446A0B1012069
:10478000FFF756FF044660B903A8FFF74FFF044642
:1047900038B9039BDB0704D500F07EF903462046B9
:1047A0009847204604B010BD00F0A4F9F9E70000D6
:1047B0001FB503788DF800304368019383688DF846
:1047C0000830C368054A0393054B684653F8213007
:1047D00052F82110984705B05DF804FBBC08012091
:1047E000C40801201FB503788DF800304368019399
:1047F00083688DF80830C368054A0393054B684603
:1048000053F8213052F82110984705B05DF804FBA9
:10481000BC080120C4080120F0B5194B90F800C075
:10482000DFF86CE043F82C20164B16460A6943F873
:104830002C204B7F0EF80C300C4607460FCC89B06D
:104840006D460FC594E80F0085E80F003B78CDF862
:1048500010C01EF803304BB1002E0B4A694608BF4A
:104860003246381D00F0BAFD09B0F0BD002E074AEF
:10487000694608BF324607F10C0000F0DBFAF3E7A7
:10488000C4080120BC080120B1470E00E5470E0016
:10489000CC080120024AD2F80034002BFBD070472C
:1048A00000E001400A4908B50223C1F80435BFF30E
:1048B0006F8FBFF34F8FC1F80805FFF7EBFF0023A1
:1048C000C1F80435BFF36F8FBFF34F8F08BD00BF32
:1048D00000E0014010B5094C0123C4F80435BFF3D2
:1048E0006F8FBFF34F8F0160FFF7D4FF0023C4F831
:1048F0000435BFF36F8FBFF34F8F10BD00E0014051
:1049000070B50E4E01231546C6F80435BFF36F8F00
:10491000BFF34F8F0024AC4207D10023C6F8043503
:10492000BFF36F8FBFF34F8F70BD51F8243040F845
:104930002430FFF7AFFF0134EDE700BF00E0014096
:1049400010B5034653E8000F00EA010243E80024D3
:1049500094F0000FF6D110BD00F18040002382B02A
:10496000036003680193019B02B07047044A137906
:1049700023B9012110609180184670478520704747
:10498000D0080120084B1A68D20704D4C02283F84B
:10499000002301221A604FF080420123C2F818352B
:1049A000024A1370704700BF00E100E0D808012000
:1049B0004FF0804208B50223C2F808334FF48270EA
:1049C000FFF7CAFF0123D360D2F81834DB03FBD40E
:1049D00008BD08B54FF48070FFF7BEFF4FF080436D
:1049E0000122C3F804231A6008BD00004FF0804282
:1049F000012108B54FF48070C2F80813FFF7ACFF2F
:104A00005160D2F80C3403F00113B3F1011FF8D058
:104A1000014B00225A7108BDD008012010B54FF09B
:104A20008041D1F8003163B14FF48070FFF794FFFB
:104A300001220D4BC1F80823587910B95A711B682F
:104A400098474FF08042D2F8043163B14FF482703E
:104A5000FFF782FF0223C2F80833034BBDE8104082
:104A60001B680120184710BDD008012000F18043C9
:104A700082B01A68002A14BF0120002004D000224E
:104A80001A601B680193019B02B07047014B1868C4
:104A9000704700BFDC080120014B1868704700BF59
:104AA000E40801200E4A1378C3B903784FF080411F
:104AB000C3F34003C1F88035037803F00103C1F864
:104AC0007835084B1968C90704D4C02183F800134E
:104AD0000121196001231370002070478520704761
:104AE000E808012000E100E0014B02681A6070470D
:104AF000E40801204FF080434FF46072C3F80423B0
:104B000070474FF080434FF46072C3F8082370473A
:104B1000014B00221A607047E408012010B54FF0E5
:104B20008043D3F80443620707D54FF48470FFF73E
:104B30009DFF10B11E4B1B689847A30608D54FF484
:104B40008A70FFF793FF18B11A4B00201B68984733
:104B5000600608D54FF48C70FFF788FF18B1154B2D
:104B600001201B689847210608D54FF48E70FFF787
:104B70007DFF18B1104B00201B689847E20508D54F
:104B80004FF49070FFF772FF18B10B4B01201B68B8
:104B90009847A3050AD54FF49270FFF767FF28B135
:104BA000054BBDE810401B680220184710BD00BF30
:104BB000DC080120E0080120E408012008B5FFF727
:104BC000ADFFBDE80840FFF729BF0000014B1B689F
:104BD000184700BFEC0801200E4B984237B50C4631
:104BE00002D0002003B030BD00230DF107008DF886
:104BF0000730FEF7C3FB084B1D7915B901221C6075
:104C00001A719DF80700FEF7DDFB002DE9D0112099
:104C1000E8E700BF00200040EC080120034B984269
:104C200001BF034B00221A601A7170470020004038
:104C3000EC0801200023435082B043580193019BAC
:104C400002B070470A4610B54FF48E71FFF7F2FFBD
:104C5000136A9168C95C136A01331362C0F81C15AA
:104C600010BD08B502464FF492710068FFF7E2FFED
:104C700010684FF48471FFF7DDFF136801221A609A
:104C800008BD10B58B690A464FF4847123B9FFF74C
:104C9000D1FFD0F8183510BDFFF7CCFF536AD168AB
:104CA000D0F81805C854536A01335362F3E7000083
:104CB0001FB501238DF80030044BCDE90110D3E975
:104CC00000126846904705B05DF804FBF408012027
:104CD00030B54E4DD5F804339A0585B051D5D5F889
:104CE0002431002B4DD04FF492712846FFF7A2FFDC
:104CF0004FF40173C5F80833454B93F829200AB9DE
:104D000001226A60414902228DF80020D1F88024F6
:104D1000C1F8802403929A690292DA680192002213
:104D2000C3E906226846D3E9001290473748D0F815
:104D30001C315BB1364A5169136A99424ED992F8D7
:104D40002830002B4AD11146FFF77CFF2F48D0F8BE
:104D50004431002B57D04FF4A271FFF76BFF2C4B5F
:104D600093F829200AB1012202609A69002A4AD0E8
:104D7000586AD96800229A6105B0BDE83040FFF753
:104D800097BFD5F804335B07D0D5D5F80831002B91
:104D9000CCD01F4C1D482146FFF773FF636AA26900
:104DA0009A42C3D1E36953B1A3612369E168E36027
:104DB0000023606AE3616362FFF77AFFB6E794F865
:104DC00029300BB901236B60104B4FF40172C3F80B
:104DD00008230023606AE168A361EDE70B484FF404
:104DE0008E71FFF727FF5369002BAFD051690291F5
:104DF000002391688DF80030019153616846D2E933
:104E000000139847A2E705B030BD00BF0020004066
:104E1000F40801201F2886BF00F01F00044B4FF04C
:104E2000A04300F5E070022243F82020704700BF45
:104E3000000300502DE9F8436D4E90F804802C23B8
:104E400003FB0863054693F82A300C469146002B75
:104E500040F0CA8067490068FFF7BEFE0746002899
:104E600040F0C48023685A1C19D01F2B4FF0010258
:104E70008ABF61494FF0A04103F01F0302FA03F318
:104E8000C1F8083523681F2B86BF03F01F035A4A59
:104E90004FF0A04203F5E073032142F8231063684A
:104EA000581C0BD01F2B86BF03F01F03524A4FF034
:104EB000A04203F5E073002142F823102B68A26999
:104EC000C3F82425217D637D2A680B43C2F86C3525
:104ED000D4E900122B68C3F81425C3F80C15237D00
:104EE000012B32D1A368591C0BD01F2B86BF03F0B6
:104EF0001F03414A4FF0A04203F5E073002142F83E
:104F00002310E3685A1C19D01F2B4FF001028ABFEF
:104F100039494FF0A04103F01F0302FA03F3C1F82F
:104F20000835E3681F2B86BF03F01F03324A4FF09A
:104F3000A04203F5E073032142F82310D4E90212E2
:104F40002B68C3F80825C3F810152C2303FB08F3BE
:104F5000F218C2F804902269F250B9F1000F30D073
:104F60002868247F254A4FF48E71FFF763FE4FF4C3
:104F7000A2712868FFF75EFE2B68C3F804232A6835
:104F8000110B42F30732002AAEBF02F160421C4A05
:104F900001F00F014FEA4413DBB2AABF02F56142F0
:104FA000535482F800332A68130B42F30732002A65
:104FB00007DB03F01F0101238B405209114941F81F
:104FC00022302B680422C3F800252C2303FB08633E
:104FD0000022C3E9062283F829205A61012283F8BE
:104FE0002A203846BDE8F8830827FAE71127F8E7B2
:104FF000F4080120D14C0E00000300508000020094
:1050000014ED00E000E100E02DE9F04103680579CE
:105010002A4C0022C3F800252C2303FB054301463C
:105020005B68B3B10368264AC3F8082303681A0B08
:1050300043F30733002B0CDB02F01F005B09012256
:10504000824020331F4840F82320BFF34F8FBFF327
:105050006F8F0B684FF0FF32D3F80C05D3F814852F
:10506000D3F80865D3F81075C3F81425C3F80C25D8
:105070000B689042C3F80825C3F8102501D0FFF74C
:10508000C9FEB8F1FF3F02D04046FFF7C3FE7A1CCD
:1050900002D03846FFF7BEFE731C02D03046FFF741
:1050A000B9FE0868FFF7BAFD2C2303FB0544002373
:1050B00084F82A306360BDE8F08100BFF408012065
:1050C0008402020000E100E00279044B2C2101FB84
:1050D00002335869003818BF01207047F4080120D6
:1050E0002DE9F84F064690F8048089469246FFF76E
:1050F000EBFF044600283DD1204F2C2508FB057B03
:105100004FF48E71CBF814A0CBF80890CBF82000A8
:105110008BF828003068FFF78DFD336801229A6014
:1051200030685946FFF78EFDDBF804305D461BBB47
:105130003068DBF814402B6A9C4211D83368D3F8EE
:105140001C21002AFBD00122DA6000202C2303FB63
:10515000087700237B61BDE8F88F95F828303BB9CC
:10516000D0F81C31002BF8D05946FFF76BFDE2E771
:105170000F20EBE71120EEE72046ECE7F4080120D2
:105180002DE9F0473A4D07792C2303FB07530646D8
:105190005C6824B103684FF40170C3F808032C2342
:1051A00003FB0753986950B1D869002841D024B156
:1051B00033684FF40172C3F80423112436E09A6176
:1051C000D9605862D8612C2303FB075393F8293028
:1051D0001BB910B93046FFF744FD4FF02C0808FB0F
:1051E000075A3068DAF80430002B37D14FF4A27137
:1051F000D046FFF71FFD3068D0F82491D0F8083171
:10520000D0F84441CBB914B9B9F1000FF3D02C2335
:1052100003FB07550023AB61B9F1000F24D12CBB70
:1052200095F8291033680122B1B11A602046BDE813
:10523000F0871961DA610120C5E7B9F1000FE6D105
:10524000002CE4D14146FFF71CFDDAF82430DAF8EF
:1052500018209A42CFD8DAE75A60E7E74FF4017393
:10526000C0F804330024E1E70324DFE70F24DDE77F
:10527000F40801200023435082B043580193019B5E
:1052800002B070471FB501238DF80030044BCDE903
:105290000110D3E900126846904705B05DF804FBA1
:1052A000200901207FB5434AD2F82461002E60D046
:1052B00010464FF49271FFF7DDFF02238DF80030A6
:1052C000D2F88034C2F880340393D2F83C3502938C
:1052D000394BDA6801920022C3E906226846D3E915
:1052E000001290473348D0F8443173B14FF4A271A3
:1052F000FFF7C0FF304B9A693AB10022C3E906229A
:10530000D968D0F83C05FFF7BDFF2A48D0F8203116
:10531000ABB14FF49071FFF7ADFF0123C360264B93
:105320005A6962B1D0F84C150291002299688DF843
:10533000002001915A616846D3E9001290471D4848
:10534000D0F858319BB14FF4AC71FFF793FF1A4B73
:105350005A6962B1D0F84C150291002299688DF813
:10536000002001915A616846D3E90012904704B0C9
:1053700070BDD2F81031002BB4D04FF488711046B4
:10538000FFF778FF0C4BD2F83C0599698842A9D108
:10539000DC69D96864B1D2F8005225F02005C2F862
:1053A00000521A699C61DA60DE61FFF76BFF99E7D2
:1053B0009C61FAE700200040200901201F2886BFD9
:1053C00000F01F00044B4FF0A04300F5E0700222F4
:1053D00043F82020704700BF000300502DE9F84338
:1053E000744E90F80480242303FB0863054693F869
:1053F00020300C469146002B40F0D7806E49006863
:10540000FFF7EAFB0746002840F0D18023685A1CCA
:1054100019D01F2B4FF001028ABF68494FF0A041FD
:1054200003F01F0302FA03F3C1F8083523681F2BAA
:1054300086BF03F01F03614A4FF0A04203F5E073FB
:10544000032142F823106368581C0BD01F2B86BF22
:1054500003F01F03594A4FF0A04203F5E0730C21FB
:1054600042F823102B68A269C3F82425217D637DAF
:105470002A680B43C2F86C35D4E900212B68C3F8C5
:105480000C25C3F81415237D012B32D1A368591CB8
:105490000BD01F2B86BF03F01F03484A4FF0A042DA
:1054A00003F5E073002142F82310E3685A1C19D079
:1054B0001F2B4FF001028ABF40494FF0A04103F07B
:1054C0001F0302FA03F3C1F80835E3681F2B86BFF8
:1054D00003F01F03394A4FF0A04203F5E0730321A4
:1054E00042F82310D4E902122B68C3F80825C3F848
:1054F0001015242303FB08F3F218C2F80490226964
:10550000F250B9F1000F3FD02868227F4FF4887124
:10551000FFF7B0FE28684FF49071FFF7ABFE2868E4
:105520004FF49271FFF7A6FE28684FF4A271FFF7BF
:10553000A1FE4FF4AC712868FFF79CFE2B68204950
:10554000C3F804132B68190B43F30733002BAEBFCA
:1055500003F160431B4B01F00F014FEA4212D2B23C
:10556000AABF03F561435A5483F800232B681A0B32
:1055700043F30733002B07DB02F01F0101228A40AF
:105580005B09114941F823202B680822C3F8002544
:10559000242303FB08660023C6E906337361012355
:1055A00086F820303846BDE8F8830827FAE7112747
:1055B000F8E700BF20090120A5520E0000030050AB
:1055C0001003420014ED00E000E100E02DE9F84393
:1055D000394D06790468242303FB065302465B68B1
:1055E000ABB1364BC4F808330368190B43F30733E8
:1055F000002B0CDB01F01F005B09012181402033EF
:105600002F4840F82310BFF34F8FBFF36F8FD4F8AC
:105610000032242723F0200307FB0657C4F800328A
:105620000023BB614FF4AC712046FFF723FE01233A
:10563000E360D4F85831002BFBD0BB691BB1D4F820
:105640004431002BF5D00023C4F8003513684FF027
:10565000FF31D3F80C05D3F81495D3F80875D3F8B7
:105660001085C3F80C15C3F8141513688842C3F8E5
:105670000815C3F8101501D0FFF7A0FEB9F1FF3FE0
:1056800002D04846FFF79AFEB8F1FF3F02D04046ED
:10569000FFF794FE7B1C02D03846FFF78FFE2046B2
:1056A000FFF7BCFA242303FB0655002385F82030BE
:1056B0006B60BDE8F88300BF2009012010034200A1
:1056C00000E100E00279044B242101FB0233586918
:1056D000003818BF012070472009012001F0604305
:1056E000B3F1005F2DE9F0470546884692463ED16A
:1056F00090F80490FFF7E6FF0446002839D11F4FC9
:10570000242606FB09764FF49071C6F814A0C6F85B
:1057100008802868FFF7AEFD4FF4AC712868FFF7EA
:10572000A9FD2B687269B168C3F84415C3F8482510
:105730002B6801229A607368EBB92B68D3F820219B
:10574000D3F858011AB90028F8D00F2008E0002833
:10575000FBD10122DA602A68D2F85831002BFBD045
:10576000242303FB097700237B61BDE8F087102029
:10577000FBE71120F9E72046F7E700BF20090120E9
:10578000F8B501F06043B3F1005F04460F4660D105
:105790000379314D242101FB0351496821B100688F
:1057A0004FF40476C0F80863242000FB03539E697D
:1057B00056B1D86900283BD021B123684FF4047258
:1057C000C3F80423112032E09A61DF60DE612068B3
:1057D0004FF48871FFF74EFD20684FF4A271FFF778
:1057E00049FD2368C3F83475C3F8382523681EBB08
:1057F00001221A6026792368242202FB065252688D
:105800000ABBD3F81011D3F84421D3F82401114373
:1058100002D10028F5D00A46242303FB06550023B5
:10582000984218BF03209A42AB6118BF0F20F8BD01
:105830001F61DA610126CAE7D3F8002242F0200294
:10584000C3F80022D6E74FF40472C3F80423002003
:10585000EDE71020EBE700BF20090120020713D479
:1058600000F00F0310F0800F084A0BBF03F5887398
:1058700003F5847302EB830352F8230008BF5868D2
:10588000431E584258417047002070470070024044
:1058900010F0080F074B06D0D3F8C00410F4803F77
:1058A00018BF0020704700F00F0000F5947053F807
:1058B00020007047007002404FF08053D3F8300151
:1058C000A0F1080358425841704700004FF0805340
:1058D000D3F83021082A06D1D3F83431032B04D869
:1058E000034AD05C7047002070470120704700BF1A
:1058F000E5C40E0030B54C689C4209D200254560D5
:105900000968016093420CD1201E18BF012030BDF0
:1059100043600D6805600868E41A18444C6008602C
:10592000F0E70020F3E74B689A4228BF1A460B685D
:10593000C0E9003248680B68801A48601A44003891
:105940000A6018BF012070474B689A4228BF1A4668
:1059500062B10B68C0E900324B689B1A4B600B6860
:10596000101E13440B6018BF012070471346F1E767
:10597000054B10F0800FA3F1900208BF134600F012
:105980000F0003EB00107047B80A012010F0800FE1
:1059900014BF0023102300F00F00184470470000CC
:1059A00008B5FFF789FF18B1034B0022C3F81C2C80
:1059B000024B00221A7008BD007002404509012008
:1059C00007B5094A00231370084AADF80530137073
:1059D0008DF8073001238DF80430054B01A81B68B2
:1059E000984703B05DF804FB440901204C0B0120EB
:1059F000480B012070470000F8B54B680B4F9342ED
:105A000028BF13460C461D4606461A460968384606
:105A100005F062F8C6E9007560682268401B6060A6
:105A20002A440038226018BF0120F8BD500B012025
:105A3000F8B54B68934228BF134606460D461C46F0
:105A40008BB10A4F09681A46384605F045F83760A9
:105A500074606B681B1B6B602B68201E23442B60DB
:105A600018BF0120F8BD0360F2E700BF500B012012
:105A700007B500230DF107008DF80730FDF77EFC18
:105A80000B4BD3F8001C032271B949F27531C3F8EE
:105A9000001CC3F8142DC3F8001C9DF80700FDF787
:105AA00091FC03B05DF804FBC3F8142DF5E700BFCB
:105AB00000E0064013B500240DF107008DF8074003
:105AC000FDF75CFC0A4BD3F8001C69B949F275324A
:105AD000C3F8002CC3F8141DC3F8002C9DF8070070
