:02000002E0001C
:108000000000042045270F006D270F006F270F0089
:1080100071270F0073270F0075270F000000000065
:1080200000000000000000000000000059ED0E00FC
:1080300079270F0000000000000000000000000091
:1080400075CC0E007B270F0085CC0E007B270F0020
:108050007B270F007B270F007B270F007B270F005C
:108060007B270F007B270F007B270F007B270F004C
:108070007B270F007B270F007B270F007B270F003C
:108080007B270F007B270F007B270F007B270F002C
:108090007B270F007B270F00D1C10E007B270F002D
:1080A0007B270F007B270F007B270F007B270F000C
:1080B0007B270F007B270F0000000000000000005E
:1080C0007B270F007B270F007B270F007B270F00EC
:1080D00049F20E007B270F007B270F0089E80E0076
:1080E0007B270F007B270F00DD2A0F000000000018
:1080F000000000007B270F00000000007B270F001E
:10810000000000000000000000000000000000006F
:10811000000000000000000000000000000000005F
:10812000000000000000000000000000000000004F
:10813000000000000000000000000000000000003F
:10814000000000000000000000000000000000002F
:10815000000000000000000000000000000000001F
:10816000000000000000000000000000000000000F
:1081700000000000000000000000000000000000FF
:1081800000000000000000000000000000000000EF
:1081900000000000000000000000000000000000DF
:1081A00000000000000000000000000000000000CF
:1081B00000000000000000000000000000000000BF
:1081C00000000000000000000000000000000000AF
:1081D000000000000000000000000000000000009F
:1081E000000000000000000000000000000000008F
:1081F000000000000000000000000000000000007F
:1082000010B5054C237833B9044B13B10448AFF3D0
:1082100000800123237010BD6CA20020000000002C
:10822000F0580F0008B5034B1BB103490348AFF3E7
:10823000008008BD0000000070A20020F0580F0070
:10824000A3F5803A704700BF174B002B08BF134BB4
:108250009D46FFF7F5FF00218B460F461348144A51
:10826000121A0AF0BDFC0E4B002B00D098470D4BA4
:10827000002B00D098470020002104000D000D487D
:10828000002802D00C48AFF300800AF04DFC20001B
:10829000290000F073F80AF033FC00BF000008006A
:1082A0000000000000000000000004206CA200207C
:1082B000740101200000000000000000BFF34F8F98
:1082C0000549064BCA6802F4E0621343CB60BFF372
:1082D0004F8F00BFFDE700BF00ED00E00400FA058E
:1082E00008B550B9012001F0B0F94FF08043D3F840
:1082F0001824D2035CBF01229A6008BD08B509F0BA
:108300008DFF09F0F3FD0028FBD1054D642445F0F5
:1083100001054FF47A40A847013CFAD1FFF7CEFFA0
:1083200020360F0007B51346064C074A0091A41AE1
:10833000E40824040246054944F0010009F037FF2F
:10834000FFF7DCFF48590F0020590F004C350F0094
:1083500007B50B46064C07490092641AE40824044A
:108360000246054944F0010009F021FFFFF7C6FF6E
:1083700048590F0020590F0070350F00F0B54FF02D
:108380001023ADF5805DD3F8043303F00703052B0C
:1083900083B04FF001031AD04D4AC2F80435D2F829
:1083A0000034002BFBD04FF01021D1F8043323F020
:1083B000070343F00503C1F804330023C2F8043572
:1083C000434AD2F80034002BFBD0FFF777FF4FF081
:1083D0008042C2F8783507F043F94FF4805100200D
:1083E00006F04CFE18B13B4AB121FFF79BFF3A481B
:1083F000C0F57E2106F042FE10B1364AB321F4E703
:108400004FF400413548364C09F020FD09F01AFFC1
:10841000344B3549E41AE408240444F0030009F01D
:10842000AFFE09F063FD05460028FAD14FF463263C
:108430003379AA2B34D1B7684FF0FF33019308F09A
:10844000DDFA2A4639464FF4002002F0FBFF274BA5
:1084500002A94FF400229A640122C3E90970DA628A
:1084600083F8A12241F8080D042203F2A2201D6224
:108470000AF08EFB284608F0B1FA8022314602A8A5
:108480000AF086FB304604F037FA04220DEB0201B5
:1084900003A80AF07DFB802202A9304604F07EFA90
:1084A000134806F0CDFC10B10A4AD4219DE709F02B
:1084B0001DFD0028FBD10F4944F0010009F060FECA
:1084C00009F014FD0028FBD1024ADB218DE700BF33
:1084D00000E00140A7350F0000800E0009F30E00F8
:1084E00048590F0020590F00D5350F00E4F1002046
:1084F000E1820E00F1350F004FF08053D3F83021A8
:10850000082A03BFD3F83401B0FA80F040090020F4
:108510007047000008B54FF080430022C3F80C21DB
:10852000C3F81021C3F838254FF0805203F54043BB
:10853000D2F80414C3F82015D2F80814C3F824158F
:10854000D2F80C14C3F82815D2F81014C3F82C155F
:10855000D2F81414C3F83015D2F81814C3F834152F
:10856000D2F81C14C3F84015D2F82014C3F84415EF
:10857000D2F82414C3F84815D2F82814C3F84C15BF
:10858000D2F82C14C3F85015D2F83014C3F854158F
:10859000D2F83414C3F86015D2F83814C3F864154F
:1085A000D2F83C14C3F86815D2F84014C3F86C151F
:1085B000D2F84424C3F87025FFF79EFF18B13B4B57
:1085C0003B4AC3F88C26FFF797FF18B1394BFB22C3
:1085D000C3F81825FFF790FF70B14FF080414FF0BE
:1085E0008053D1F8E42ED3F8583222F00F0203F072
:1085F0000F031343C1F8E43EFFF77EFF20B12E4B7B
:108600004FF40072C3F840264FF08043D3F80024A3
:10861000D20744BF6FF00102C3F80024274AD2F802
:10862000883043F47003C2F88830BFF34F8FBFF334
:108630006F8F4FF01023D3F80022002A03DBD3F80A
:108640000432002B2EDA1E4B0122C3F80425D3F886
:108650000024002AFBD04FF010221221C2F8001291
:10866000D3F80024002AFBD04FF010231222C3F8C5
:108670000422134BD3F80024002AFBD00022C3F8B5
:108680000425D3F80024002AFBD0BFF34F8F0B49F9
:108690000C4BCA6802F4E0621343CB60BFF34F8F08
:1086A00000BFFDE7084B094A1A6008BD00500040B2
:1086B0004881030000F000400090024000ED00E01F
:1086C00000E001400400FA0590A100200090D003D2
:1086D0000020704710B50446214802F0D8FF214B16
:1086E0001F481C6002F0EAFF58B91F4B1F48204981
:1086F000C01AC008000440F0010009F041FD032049
:1087000010BD1C4B002140F603020330C3E90212E6
:1087100058601970184B194959601949C3E9021278
:10872000184A1A61184A5A6103F0D0FE852801D010
:108730000028E5D1002004F00DF80028E0D102F077
:10874000E1FD124801F02CFA0028D9D1104801F0BF
:10875000D5FA0028D4D1BDE8104001F093BA00BF8B
:10876000E8590F0054A3002020590F00A0590F0012
:1087700026360F00F8BB0020E0BB0020A1870E00CA
:1087800095870E0088BB0020FC580F0074370F003F
:1087900050370F00011F014802F0B6BFE8590F0023
:1087A00013B5074C0A4601AB0146204603F0F2FD23
:1087B000019A0448214602F00DFA02B010BD00BF34
:1087C0006FBB002050370F00083810B506283ED880
:1087D000DFE800F0081E2F3D3D3D0400BDE81040DD
:1087E00001F070BA1A4B1B481B49C01AC00800049C
:1087F00040F0030009F0C4FC05F058FD08B901F091
:108800005FFA164B1B6813B30120BDE810401847F0
:108810000F4B10481249C01AC008000440F0030072
:1088200009F0AEFC01F060FA0C4B1B687BB1022032
:10883000EBE7074B07480B49C01AC008000440F09B
:10884000030009F09DFCBDE8104001F03DBA10BDE9
:1088500020590F00A0590F0047360F0054A30020E5
:108860005A360F006C360F0001F0A6BB08B503782E
:108870001BB9BDE8084001F09FBB094A042101F083
:1088800005F858B1074B08480849C01AC008000449
:10889000BDE8084040F0010009F072BC08BD00BF0F
:1088A00069880E0020590F00A0590F0076360F007E
:1088B0002DE9F0438BB0A1B102296FD1644965481D
:1088C000012202F0A9F9644B6449024664481B1A6C
:1088D000DB081B0443F002000BB0BDE8F04309F0D5
:1088E00053BC5D4C5E4B5F4DDFF86481E41AE408D5
:1088F000240444F001042B785B4E5C4F98F8001080
:108900003F2B84BF00232B702B7830465A1CF95420
:108910002A7003F073FD814660B95548D6E901120B
:1089200008F0B6FF534802F0C9FEA8B952492046E4
:1089300009F026FC47480122414602F06DF9002863
:10894000D9D02B78FA1812F8012C0D2A01D00A2A56
:1089500024D10022002408E00330C6E9010986F88A
:108960000090E7E7C3B20122FC54581E395C0D2980
:10897000F8D00A29F6D002B12B7040493B480AF0E2
:108980006BF970B93E490B22324802F023F937489F
:10899000402200210AF024F900232B700BB0BDE81F
:1089A000F083384931480AF057F948B136492F4821
:1089B0000AF052F920B135492C480AF04DF9D8B9DE
:1089C00000211D2202A801910AF00AF930480AF09C
:1089D00065F92F49024601A80AF0DAF82C480AF096
:1089E0005DF90AAB18440A2300F8243C01A80AF0F8
:1089F00055F901A90246C7E726491C480AF02CF997
:108A000020B1254919480AF027F960B9BFF34F8F03
:108A10002249234BCA6802F4E0621343CB60BFF3E0
:108A20004F8F00BFFDE71F49104803220AF0A0F84E
:108A300028B91D480AF032F91B490246A4E71B4930
:108A40000A4803220AF094F80028F2D09FE700BFFA
:108A5000A0BB002050370F00A0590F0094360F0024
:108A600020590F0088A20020F8BB002014A300208A
:108A7000E0BB0020E8590F00BA360F00D5360F00D2
:108A8000E3360F00EF360F00FA360F0003370F0002
:108A900000D80F0010370F0017370F0000ED00E06F
:108AA0000400FA0520370F0024370F0036370F0077
:108AB000011F014802F028BEFC590F000648074A72
:108AC00003780749D35C012213B1043004F0B4BE2B
:108AD0000C3004F0B1BB00BF98A10020D0E300200F
:108AE00067BF002070B50378012B0C4602D0022B23
:108AF00032D070BD037A1BB9BDE87040FFF7DEBF0E
:108B00004368194E1978304603F078FC0546FFF7A4
:108B1000D5FF002DEDD1D6E90112204608F0B8FEB0
:108B2000124802F0CBFD124B124A9B1ADB081B04C1
:108B3000044630B9BDE870400F4943F0010009F028
:108B40001FBB02460D4943F00300033409F01CFB30
:108B5000C6E901453570CCE7BDE87040084AC068F9
:108B60009621FFF7DFBB00BF80BF0020FC590F003C
:108B700098590F0020590F0080370F009A370F00C7
:108B8000AE370F00F0B5314F3B7889B0002B5AD18A
:108B90002F4E30602F4802F07AFD044600283AD16B
:108BA0002C482D4D02F08AFD2C4BDFF8DCC01C70E8
:108BB00083220330C3E90104DA60294BCCF8043086
:108BC000284BCCE90232284BCCF81030274BCCF89C
:108BD00014300FCD6C460FC495E80F0084E80F00E9
:108BE00006220823CDE9002307210523CDE902133E
:108BF0001F4A2048CDF810C0694603F037FE0446EE
:108C000060B11D481D4B1E49C01AC008000440F049
:108C1000010009F0B5FA204609B0F0BDFFF74EFF9C
:108C2000044648B11448154B1649C01AC008000440
:108C300040F0010009F0A4FA336801203870002BDD
:108C4000E9D09847E7E70024E5E700BF08BC00202B
:108C50000CBC0020FC590F0094380F0080BF00208E
:108C60008D8C0E00B18A0E004FBF002004590F00FA
:108C7000E58A0E0098A1002098590F0020590F0096
:108C800050380F0069380F0068BF002007B50A464A
:108C900001AB01460A4803F07DFB0A480A4A037803
:108CA0000749D35C9DF804202BB1043004F072FD19
:108CB00003B05DF804FB0C3004F06EFAF8E700BF77
:108CC00036BF002098A10020D0E3002010B50B4C47
:108CD000237863B10A4B984209D00A480A4A0378BC
:108CE000D35C33B1043004F0CDFC002323700020AA
:108CF00010BD0C3004F0E4F9F7E700BF08BC002019
:108D000004590F0098A10020D0E300206CDF7047C9
:108D10006DDF704772DF704773DF704774DF704735
:108D200075DF704776DF70477ADF70477CDF70470A
:108D30007DDF70477FDF704786DF70478FDF7047CA
:108D400090DF7047A8DF7047AADF7047ADDF70473C
:108D5000AEDF7047B0DF7047B1DF7047B5DF7047F7
:108D600062DF704766DF704713DF704701460148D6
:108D700002F0CABC105A0F0070B518228CB0002146
:108D80000DEB020009F02CFF2823089316231E4C3C
:108D9000ADF806300023CDE9033305930223062204
:108DA00023702371592301250926A27063710322C0
:108DB000FE236570E270A3710DF10601A0198DF814
:108DC00018508DF82D500294ADF80C60FFF7B0FFED
:108DD000B8B9BDF8063026725A19E271BDF80C20F8
:108DE0000A4C134402A906AA2046ADF80C30FFF73E
:108DF00091FF30B92078FFF791FF20782946FFF7DF
:108E00008BFF0CB070BD00BF0ED00020ACA10020C5
:108E1000F0B50388232B8BB0044635D80F2B04D82C
:108E2000012B00F044810BB0F0BD103B132BFAD89E
:108E300001A252F823F000BFB98E0E00F18E0E0091
:108E4000278E0E00FF8F0E00EB910E00278E0E0076
:108E5000278E0E00278E0E00278E0E00278E0E0006
:108E600005920E00278E0E00278E0E00278E0E0014
:108E7000278E0E003B900E00278E0E006F900E0086
:108E8000278E0E00DF8F0E00503B9AB2062ACAD8FA
:108E9000062BC8D801A252F823F000BF238F0E0082
:108EA000C7900E0005920E00278E0E00278E0E0032
:108EB000958F0E008F900E009D4D83882B809D4BCB
:108EC0001B680BB1012098479B492888FFF728FFB2
:108ED0000028A8D0994A9A4B9A499B1ADB081B0490
:108EE000024643F001000BB0BDE8F04009F04CB978
:108EF0008F4B4FF6FF721A80934B1B685A0707D4AB
:108F0000FFF73AFF20B1914A40F29D21FFF70AFA9C
:108F1000884B1B68002B86D002200BB0BDE8F040C8
:108F200018478B4EE288B3889A427FF47CAF894819
:108F300002F0C4FB054660B9804B81488649C01ADF
:108F4000C008000440F002000BB0BDE8F04009F09A
:108F500017B9228A04F1120109F01AFE1822002121
:108F600004A809F03DFE08238DF810307B4B0693D2
:108F70007B4B0596CDE9073504A8238AADF824304C
:108F800007F09EFB00283FF44EAF7248294602F0DE
:108F9000BBFB48E7E188F6291FD8CB1E9B070DD005
:108FA000CB1F9BB2013B5A4202F0030203F00303C2
:108FB00001F1FF3158BF5342C91A89B25C4B18887E
:108FC000FFF7CCFE00283FF42EAF604A40F2CF21DD
:108FD0000BB0BDE8F040FFF7A5B9F721EEE700229E
:108FE000808804A9CDE90422FFF7AAFE00283FF4F7
:108FF0001AAF564A40F2DE21FFF794F913E74C4CC2
:1090000002230493208802AB04AA42F605210593AB
:10901000FFF79CFE20B14D4A40F2F721FFF782F99D
:10902000002320881A468521FFF784FE00283FF49C
:10903000FAAE464A40F2FF21DEE73D4B00F108015F
:109040001888FFF76DFE044600283FF4ECAE3B485D
:109050003B4B44491B1ADB081B04224643F001002A
:1090600009F092F8394A4FF447712046B0E70023DF
:1090700080888DF8103004A98DF81130FFF75EFE5E
:1090800000283FF4D0AE314A4FF44D71B4E7A379D4
:10909000002B7FF4C8AE264B13211888FFF742FE41
:1090A00000283FF4C0AE294A40F23D3190E7204B02
:1090B00000211888FFF756FE00283FF4B4AE234A7B
:1090C0004FF4517184E7A379002B3FF4ACAE022B2F
:1090D0007FF4A9AE1E4D2189AA8991427FF4A3AEE7
:1090E000A27B012A7FF49FAE4FF480320592228A40
:1090F0000F4EADF81820628AADF81A2004F1140260
:10910000079201AF298A3088049302AA0293039739
:10911000FFF71CFE40BB384608F0ECFA20BB40F2DB
:10912000FD133088ADF8143004A9FFF713FE7AE67A
:10913000AEA1002034D00020563A0F0020590F0075
:1091400078590F00B4380F0030D00020E2380F00FB
:10915000FACF0020105A0F0079390F00ED920E005F
:109160006D8D0E0098390F00002304A93088ADF8EA
:109170001430FFF7EFFD014600287FF454AE1822AB
:1091800004A809F02DFD237D254A8DF81030022B0F
:109190000595069222D0062B10D0012B10D1214B21
:1091A0001A88214B1A80637DD4F816200893012B6E
:1091B000099205D11D4807F0CBFC01E0637D0893BF
:1091C00004A807F07DFA00283FF42DAE184A194B89
:1091D00019499B1ADB081B04024682E6114AB4F8BF
:1091E00015301380104A1380EAE7002380881A465E
:1091F0001946FFF7A1FD00283FF415AE0F4A40F2D3
:109200006B31E5E60023A0881A461946FFF7A4FD56
:1092100000283FF408AE094A40F27631D8E600BF94
:10922000ED920E0038D000203AD000200C590F00EB
:1092300020590F0078590F00CD390F00E2380F0088
:1092400038B515490B68024613F0010022D01348C7
:1092500082421ED0124A10884FF6FF72904213D0FD
:1092600043F004030B601321FFF75CFD90B90D4D33
:10927000C82445F001054FF47A40A847013CFAD1D3
:10928000BDE8384002F04ABF074B1878FFF746FDAB
:10929000F6E7002038BD00BF30D000200C590F0089
:1092A000AEA10020503A0F00ACA100207FB50023F2
:1092B000CDF80B308DF80F300A4BADF806109B89B6
:1092C000ADF8083001238DF80A300DF10603CDE921
:1092D0000430054B02A91888FFF73AFD07B05DF886
:1092E00004FB00BFFACF0020AEA1002010B5044659
:1092F00086B000210D2202A8019109F071FC2378AB
:10930000082B0BD13C4A3D4913880988013B9BB28D
:10931000138031B32BBB0323118023706378227831
:109320008DF805206021012B8DF804108DF8063092
:1093300019D033493348401AC0080004324940F07C
:10934000020008F02AFF63780B2B12D106F00EFF03
:109350008DF80700002006F003FF042101A8FFF7A5
:10936000A5FF06B010BD062A05D0082A29D0032A79
:1093700027D00321F2E7E1688DF80710D4E9012333
:10938000080A8DF80800080C090E8DF80A10110A59
:109390008DF80B208DF80C10110C120E8DF80E208C
:1093A0001A0A8DF80F308DF810201A0C1B0E8DF84C
:1093B0000D108DF809008DF811208DF812300F2155
:1093C000CCE7D4E90123110A8DF807208DF80810A5
:1093D000110C120E8DF80A201A0A8DF80B308DF838
:1093E0000C201A0C1B0E8DF809108DF80D208DF82D
:1093F0000E300B21B2E700BF3AD0002038D0002059
:1094000020590F0078590F00013A0F002DE9F04163
:109410003E4B94B005464FF6FF721A8001204FF67E
:1094200059632A4602A98DF80A00ADF80830FFF703
:1094300089FC0446002865D1354B04AA03F11007C6
:10944000164618685968144603C40833BB422246BE
:10945000F7D1A91C3046FFF783FC0446002851D100
:1094600001461C220DA809F0BBFB9DF834308DF895
:10947000044043F004038DF834300223ADF80C307F
:10948000AB788DF80E3003238DF80630F423CDE948
:109490000A44ADF82C302B464FF0110833F8040B7A
:1094A0000C9403AF01AE08AA0DA98DF805800897AA
:1094B0000996FFF749FC044620BB01461C220DA873
:1094C00009F08EFB18238DF834300123ADF80C30F1
:1094D000AB788DF80E3013238DF806301723CDE9C5
:1094E0000A44ADF82C302B4608AA33F80C0B8DF843
:1094F00004400DA90C94CDE908768DF80580FFF79E
:1095000023FC0446204614B0BDE8F081AEA1002043
:109510003C3A0F0030B5334C236813F0010585B099
:109520005DD1314B1860314802F0B1F8029506F078
:1095300038FE00284CD12E48FFF716FC002847D1F2
:1095400002F0AEFD002843D102A802F081FE0028FF
:109550003ED102A9012002F085FE002838D102A8E0
:1095600002F0E8FE002833D107F0B2FA30B121480A
:1095700007F0A2FA236843F002032360112302A834
:109580008DF80430FFF7C4FB10BB9DF8093002A82A
:1095900001338DF80930FFF7B9FBC8B923689B0781
:1095A00018D514498869043182B201A8FFF7BEFBBF
:1095B00070B91148FFF7B8FB50B91048FFF726FF04
:1095C00030B9FFF7D9FB18B9236843F001032360D2
:1095D00005B030BD0A4809F061FB0949E4E7002005
:1095E000F6E700BF30D0002034D00020105A0F0022
:1095F00000800E0090BF0020563A0F00FACF0020E6
:10960000283A0F00074B1B5C1F2B86BF064903F04F
:109610001F034FF0A041012202FA03F3C1F80835FD
:10962000704700BF5E3A0F000003005008B50020ED
:10963000FFF7E8FF0120FFF7E5FF0220FFF7E2FF59
:10964000BDE808400320FFF7DDBFC20710B50446A0
:109650000CD54FF0A0430322C3F83427C3F83827B2
:10966000C3F83C27C3F84027FFF7E0FFA3070AD55C
:109670004FF0A0430C22C3F82C27C3F83027C3F8BF
:109680006027C3F8642710BD0E4B984214D00AD847
:10969000B8B10D4948F2165248F20153884214BF3E
:1096A000104618467047094B984208D0084948F2BE
:1096B000165248F20353F1E748F20350704748F25C
:1096C000025070470102F0000002F0000202F000B8
:1096D0000F02F00008B5083009F0A6F8BDE8084010
:1096E000FFF7D2BF13681F2B2DE9F34106460F4643
:1096F000144620D9DFF84C800121404601F068FF74
:109700000546BFF35F8FC8B900F07CF8394606F113
:10971000080009F0F5F8019000F082F8BFF35F8FC0
:109720000198C8F80050FFF7AFFF08B92023236065
:1097300002B0BDE8F08148F21450F9E748F2045055
:10974000F6E700BF3CE000202DE9F04105460E465B
:1097500019480121144601F03BFFBFF35F8F38BB6E
:1097600000F050F8DFF854800835B4F5805F2746E4
:1097700028BF4FF4805731463A46404609F008FA70
:109780003A464146284609F069F8E41B3E4468B968
:10979000002CEAD100F044F8BFF35F8F064B0022A3
:1097A0001A602046BDE8F041FFF76EBF0446F1E7BE
:1097B00048F20450BDE8F0813CE000203CD000209D
:1097C000024B0020C3F80005704700BF00A0025004
:1097D00038B50A4B00251D60BFF35F8F084C01238D
:1097E000C4F8003509F0BCF8C4F8005520B10528CC
:1097F00048F2035018BF032038BD00BF3CE00020F2
:1098000000A00250044B0122C3F80025034B4FF483
:1098100080625A60704700BF00A0025000E100E083
:10982000064B0022C3F80025054B4FF48062C3F8B5
:109830008420BFF34F8FBFF36F8F704700A002509B
:1098400000E100E04B1C30B5DB00044612F00300E1
:109850009BB20DD1074D2A601A44074B1A60074B83
:109860001870074B1870074B1C80074B198030BDD0
:109870000720FCE748E0002044E0002040E0002012
:1098800050E000204CE000204EE000202DE9F3479E
:10989000DFF8C080B8F800308B4206460D46174608
:1098A0004CD300240DF107008DF8074001F090FD26
:1098B000244B254A25481B78008892F800C084452F
:1098C0005FFA8CF138BF4C1CDBB238BFE4B2A34264
:1098D0002ED014781178CBB2884286BF0133DBB228
:1098E000002313709DF8070001F096FD4FF6FF73FB
:1098F0009C4225D0DFF86090D9F800204FEAC40AD6
:1099000042F8347002EBC403AEB1A5B1104BB8F805
:1099100000001B682A4604FB0030314609F038F984
:10992000D9F80030534400209D8002B0BDE8F08794
:109930004FF6FF74D6E700209880F6E70920F4E799
:109940000420F2E750E0002040E000204EE000203C
:1099500044E000204CE0002048E0002070B5104CAE
:10996000104D22782B789A4200D170BD0E480F4AD4
:109970002378126806880E4802EBC301006852F88B
:109980003320898803FB060090470A49227809881A
:10999000D3B2914286BF0133DBB200232370E0E7EC
:1099A00050E0002040E000204CE0002048E0002093
:1099B00044E000204EE0002043681B681847000088
:1099C000024B5B6803B11847704700BF54E00020AA
:1099D000020600F00F034CBF02480348DB001844A6
:1099E000704700BF60E00020A8E0002008B5FFF746
:1099F000EFFF016009B14B681968416008BD0000C4
:109A0000024B0146D3E90002104700BFA8E0002046
:109A100038B5831EDBB2062B98BF1A4A1A4D98BF81
:109A2000D25C2B78A3F10203DBB288BF0022062BA5
:109A30009ABF1449CB5C00239342044603D0B2B1D1
:109A4000124802F0B9FD022C14D0A4F108004242E1
:109A500042412B78022B0FD0A3F108014B424B411E
:109A6000934202D052B104F06BFC2C7038BD02F06E
:109A7000DDFDE8E70122ECE70123F1E704F056FC05
:109A8000F3E700BF0B3B0F00F9E00020B0A100207E
:109A90002DE9F04F87B000260546884691461F46BF
:109AA00002966B6800225C682946012302A8A04741
:109AB000044638B98DF8060004908246564503D80E
:109AC000052028E00136ECE76B680DF10602D3F8BB
:109AD00004B02946012304A8D8476B680DF107029A
:109AE000D3F804B02946012304A8D8479DF80730CD
:109AF00043459DF8063013D14C450FD1109A1360A1
:109B00003B7087F801806A68023B54682946BA1C9A
:109B100004A8A047002007B0BDE8F08F0134E4B2EC
:109B20006A68023BD2F804B02946002204A8D8474C
:109B30009DF806309A44C1E70378052B0BD1074AFC
:109B4000D2F88434D2F88024D2B222B9044ADBB2EB
:109B5000052B08BF1046034B1B68184700700240D6
:109B6000243B0F0054E00020FFF7E6BF012805D09A
:109B7000022805D030B90448FFF7DEBF0348FBE7F1
:109B80000348F9E7704700BF203B0F001C3B0F0064
:109B9000183B0F000148FFF7CFBF00BF283B0F0065
:109BA0002DE9F74305462D4804F0E0FB0446002864
:109BB0004FD12B4B18702B4B18602B4B0146186064
:109BC00048222A4809F00CF829484822214609F081
:109BD00007F8284BADB9284A1D72C3E900250020BB
:109BE00002F0B8FD30B1852804D0244A40F25F313C
:109BF000FEF798FB224F002697F8089007F1090816
:109C000014E095E8070083E807000028E7D11A4A26
:109C10001A60E4E7A37823443946985CFFF7E6FE30
:109C200001356378EAB29342F4D80136F4B2A14523
:109C300004D904EB440444440025F2E70B23104804
:109C40008DF8043001A9FFF7B7FE044608B104F00F
:109C500055FA204603B0BDE8F08300BF699B0E00B3
:109C6000F9E00020F0E00020F4E0002060E00020B7
:109C7000A8E0002054E00020B99F0E007C3A0F00BD
:109C80005C3B0F0010B504F009FB10B9082318461F
:109C900010BD04F00BFB04460028F7D1064802F083
:109CA0008DFD03460028F2D0044A40F2C231FEF78F
:109CB00039FB2346EBE700BF143B0F007C3A0F0053
:109CC00004F026BA04F06EBE4FF08043D3F8382477
:109CD000920702D50348FFF72FBFD3F83824D107E6
:109CE000F4D470472D3B0F0007B5822301A88DF8EF
:109CF0000430FFF721FF03B05DF804FB2DE9F743C3
:109D000000F1090190F80890054600270E46FBB2C5
:109D10004B452AD291F801800024E3B298450AD934
:109D20008B780A190134D05CFFF752FE0368002BD0
:109D3000F3D0112028E001370331E8E7A27823446B
:109D40002946985CFFF752FE01376278FBB29A42CF
:109D5000F4D808F101082B7A5FFA88F4A34216D9E7
:109D600004EB440434440027EFE74FF00008F2E727
:109D700013681A68002AFBD11D6001A90B2328462D
:109D80008DF80430FFF718FE03B0BDE8F083014BF7
:109D9000EFE700BFF0E00020024B1878003818BF52
:109DA00001207047F8E00020030710B5044604D4F2
:109DB00004F000FC204604F0C3FE2046BDE810403D
:109DC00004F068BE04F034BE014B1868704700BF51
:109DD000F0E00020F0B50A4B0246186878B1057A29
:109DE0000023861DDCB2A54201D80368F5E70133E4
:109DF00003EB4307F75D9742F4D101B10C70F0BD5E
:109E0000F0E000201146FFF7D7BD08B500F00F03C2
:109E1000082B07D8FFF7DCFD006818B1BDE8084043
:109E2000FFF7CABD102008BD38B5054B05461C68B4
:109E300004B938BD29462046FFF7BEFD2368F6E782
:109E4000F0E0002038B5074B05461C680CB9062029
:109E500038BD29462046FFF7AFFD0628F8D1236814
:109E6000F3E700BFF0E0002013B50446019104F0D1
:109E7000C3FA50B1064B1B78022B06D1019920463C
:109E800002B0BDE8104004F0C7BA082002B010BD0F
:109E9000F9E0002013B50446019104F0ADFA50B189
:109EA000064B1B78022B06D10199204602B0BDE873
:109EB000104004F02BBB082002B010BDF9E00020D8
:109EC000F8B543689B6805460C46164613B92EB193
:109ED000072002E098470628F9D0F8BD2B7AA34264
:109EE00013D9093504EB44042C446778F3B29F423C
:109EF00001D80020F1E762789A4208D9A219A37824
:109F0000D05CFFF751FF0136F0E77378FFDE0023E6
:109F10001B78FBE770B54368DB6805460C4603B168
:109F200098472B7AA34213D9093504EB44042C44F7
:109F300000256678EBB29E4200D870BD62789A42E6
:109F400009D96219A378D05C04F072FD0135F1E7FC
:109F500000235B78FFDE00231B78FBE743681B6967
:109F600003B118471846704770B5084B1C6804B910
:109F700070BD267A0025E9B28E4201D82368F5E744
:109F800000222046FFF79CFF0135F4E7F0E00020B7
:109F900070B5084B1C6804B970BD267A0025E9B27B
:109FA0008E4201D82368F5E72046FFF7B3FF01355D
:109FB000F5E700BFF0E0002038B503780F2B04462A
:109FC00010D9A3F1800283F08003052B00D938BD9E
:109FD000052AFCD8DFE812F067002C004900730066
:109FE0007E00E0000F2BF2D801A252F823F000BF50
:109FF000F7A00E0027A10E0087A10E004BA10E00B6
:10A0000069A10E0099A10E00ABA10E00CF9F0E001A
:10A01000D5A10E00D9A10E00DDA10E00CF9F0E002C
:10A02000CF9F0E00CF9F0E00CF9F0E00A3A10E006A
:10A030006B48FFF7E5FC6A48FFF7F6FE0D20FFF7D7
:10A04000BFFCFFF7A5FF00F0DEFE664B1B6853B9AF
:10A05000654B187A00F0010004F0FCF80120BDE81F
:10A060003840FFF7D5BC0120F4E7FFF791FF04F07B
:10A0700077FC0020FFF7CCFC5C48FFF7D5FE5B487F
:10A08000FFF7BEFC0E20FFF79BFC594B1B78023BF1
:10A09000DBB2062B9BD8574AD35C002B97D0BDE888
:10A0A000384002F0C3BA524B1B78062B05D003F0A0
:10A0B000FD03052B8BD10220D1E70820CFE74C4BC5
:10A0C0001B78032B83D104F087FC00283FF47FAF7B
:10A0D0000420C4E7464B1B78032B05D104F07CFC1D
:10A0E00010B10420FFF794FC04F0EAF800283FF4D4
:10A0F0006EAF0620B3E73E4B1B78032B01D0082B35
:10A1000002D13D48FFF758FF0020FFF759FC354BBF
:10A110001D68002D3FF45BAF28462146FFF74CFC3D
:10A120002B685D68F5E7FFF733FF00F063FE022060
:10A13000FFF76EFC0120FFF743FC2046FFF760FCB1
:10A140002046BDE83840FFF76FBE294B1B78082B2F
:10A1500006D10220FFF75CFC04F0FCF80320EAE7DC
:10A160000520FFF755FCF9E70320FFF729FC2348FA
:10A17000FFF746FC2148FFF757FE1D4B1B78062BC7
:10A1800099D107206BE70320FFF742FC0220FFF77D
:10A1900017FC2046FFF748FE2046BDE83840FFF791
:10A1A0002FBC0F20FFF70CFCCAE78078FFF710FCEC
:10A1B000214643680068984700283FF408AFA0781C
:10A1C00002073FF404AF03073FF501AFBDE8384095
:10A1D00004F0E2B90820E5E70920E3E70A20E1E717
:10A1E0002C3B0F00F4E0002054E000202B3B0F003C
:10A1F000F9E000200B3B0F002A3B0F00293B0F002A
:10A20000C36903B11847704703680022C3E91E22DF
:10A21000C3E920221A845A62DA6203F134025A67CF
:10A22000704710B5044658B90868037B202B09D144
:10A2300000F10E010722183008F0AAFC204610BDDC
:10A240000320FCE70620FAE74360CA699A420DD36F
:10A250008A690260C8691A448A610A6FC01A1A447E
:10A26000C86100380A6718BF0120704701F1280251
:10A2700002608B6700207047F0B504680D7A002CEF
:10A2800000F08780A4F213347C2C00F222837C2C13
:10A2900000F21F83DFE814F085008F009D00A90005
:10A2A000B500C100CD00D9001D031D031D031D0312
:10A2B0001D031D03EF00FB001D031D031D031D03F4
:10A2C0001801240132011D031D031D034501510125
:10A2D0007F011D031D031D031D03670173017F0122
:10A2E0001D031D031D031D031D031D038B011D0302
:10A2F0001D031D031D039F01AB01B701C301CF0166
:10A300001D031D03DB01E701F301FF010B021D0328
:10A310001D031C022802340240021D031D034C02CF
:10A320005802640270027C021D031D031D031D03FD
:10A330001D031D031D031D031D031D031D031D031D
:10A340001D031D031D031D031D031D031D039B0290
:10A35000A7021D031D031D03C0021D031D031D03D2
:10A360001D03DD021D031D031D031D03DD021D036F
:10A370001D031D031D031D031D03E902F5021D033B
:10A380001D031D031D0313031D031D031D031D03D7
:10A3900013030824047123B940F21333036001202E
:10A3A000F0BD0AB1047914700B24012B04710ED88E
:10A3B0004FF44573F2E700240AB1067916550134CB
:10A3C0000E7D06719C4205D340F21533E6E7012469
:10A3D000F2E700240AB106791655013402269C42A0
:10A3E000067103D340F21633D8E700240AB1067988
:10A3F0001655013402269C42067103D340F21733EE
:10A40000CCE700240AB106791655013402269C4295
:10A41000067103D34FF44673C0E700240AB10679EE
:10A42000165501344E7E06719C4203D340F2193317
:10A43000B4E700240AB106791655013400269C427F
:10A44000067103D340F21A33A8E700240AB1067953
:10A4500016559D4E0027013437709B4E3678AE421C
:10A4600002D340F29A3399E70926A342067103D832
:10A4700040F2213392E700240AB1067916550134DF
:10A4800004269C42067103D340F2223386E700245F
:10A490000AB1067916558C4E0F7A3678DFF82CC241
:10A4A000B74204F1010440F2188201F1090706EBFA
:10A4B000460607EB060E9C42BE5DCCF800E0067136
:10A4C00003D340F2273369E700240AB10679165511
:10A4D000013400269C42067103D34FF44A735DE7B2
:10A4E00000240AB106791655784E3668013476781C
:10A4F00006719C4203D340F229334FE700240AB18E
:10A5000006791655714E0F7D36683678B74204F1DC
:10A5100001041ED102269C42067103D340F22D3362
:10A520003CE700240AB106791655013402269C4204
:10A53000067103D340F22E3330E700240AB10679C6
:10A54000165501344E7E06719C4225D340F22F33BE
:10A5500024E78F7DB74223D10A269C42067103D39C
:10A560004FF44D731AE700240AB1067916550134E9
:10A5700000269C42067103D340F235330EE70024D7
:10A580000AB106791655013400269C42067103D3A0
:10A5900040F2363302E700240AB106791655013439
:10A5A0000026A342067103D840F23D33F6E60024AC
:10A5B0000AB106791655454E0F7D36683678B74292
:10A5C00004F1010440F0E98005269C42067103D3A2
:10A5D00040F24233E2E600240AB10679165501340E
:10A5E00024269C42067103D340F24333D6E600246E
:10A5F0000AB106791655013400269C42067103D330
:10A600004FF45173CAE600240AB106791655013495
:10A6100010269C42067103D340F24533BEE6002467
:10A620000AB106791655013401269C42067103D3FE
:10A6300040F24633B2E600240AB1067916550134D9
:10A6400005269C42067103D340F24933A6E6002456
:10A650000AB106791655013424269C42067103D3AB
:10A6600040F24A339AE600240AB1067916550134BD
:10A6700001269C42067103D340F24B338EE6002440
:10A680000AB106791655013403269C42067103D39C
:10A690004FF4537382E600240AB10679165501344B
:10A6A0008E7D06719C4203D340F24D3376E6002442
:10A6B0000AB106791655013404269C42067108D366
:10A6C0004FF454736AE600BFFBE0002000E1002075
:10A6D00000240AB106791655013424269C420671DD
:10A6E00003D340F2513359E600240AB106791655D6
:10A6F000013402269C42067103D340F252334DE6E8
:10A7000000240AB106791655013402269C420671CE
:10A7100003D340F2533341E600240AB106791655BB
:10A72000013405269C42067103D340F2563335E6C8
:10A7300000240AB106791655013424269C4206717C
:10A7400003D340F2573329E600240AB1067916559F
:10A75000013406269C42067103D34FF456731DE65E
:10A7600000240AB10679165501340E7D06719C420B
:10A7700003D340F2593311E600240AB10679165585
:10A7800001348E7D06719C4203D340F25A3305E6B4
:10A7900000240AB1067916550134534E366877788D
:10A7A000524E3770524E00273770514E37784F4E09
:10A7B0003678B74204D34F4F3E7801363E704CE6B0
:10A7C0000726A342067103D840F26E33E6E5002463
:10A7D0000AB106791655013405269C42067103D349
:10A7E00040F26F33DAE500240AB1067916553E4E81
:10A7F0003F4F36683F7896F801C0BC4504F101042C
:10A8000070D996F802C03E449C4216F80C6006715E
:10A8100003D340F27333C1E500240AB1067916551B
:10A82000314E0F7D36683678B74204F1010406D107
:10A8300003269C4206710DD34FF45E73AEE58F7D07
:10A84000B7420BD102269C42067103D340F27D33FE
:10A85000A4E500240AB10679165501344026A34226
:10A86000067103D84FF4617398E500240AB10679A4
:10A870001655013400269C42067103D340F28533FD
:10A880008CE500240AB106791655174E0F7D3668FF
:10A890003678B74204F1010407D10E6A9C4236783B
:10A8A00006710DD340F28A3378E58F7DB7420BD124
:10A8B00000269C42067103D340F28F336EE50024DC
:10A8C0000AB1067916550134094F3E7801363E70BB
:10A8D0006BE700230360184662E50023CCF80030E4
:10A8E0001B78FFDE0023FBE700E10020FAE00020F8
:10A8F000FCE00020FBE00020037A012B08D9427B1A
:10A90000012A00F10C0306D9827B13445878704762
:10A9100000235B78FFDE00231B78FBE72DE9F0477F
:10A920000B7888B005460E460E2B1AD8DFE813F0D8
:10A93000600042016000600019000F00AD001900C6
:10A9400019003F01190060006000600060004A7853
:10A95000D1094FEA521335D013F0030303D0012B72
:10A9600021D006241BE002F01F02012AF9D1B4789D
:10A97000062CF6D105A8039300F0BCFC03AB0093B2
:10A98000F2783179034607462846FFF781F8052813
:10A9900005D0039A3946701C00F050FA0446204650
:10A9A00008B0BDE8F087B378212BDAD1B6F80720DC
:10A9B000072AD6D10168701C183108B0BDE8F047ED
:10A9C00000F03CBA012BCCD1B3780768202B11D012
:10A9D000222BC6D1B6F80730002BC2D13A8CB6F87C
:10A9E00003303B8402F0010203F001018A4227D1C7
:10A9F0000024D4E7B6F80720072AB2D13B73B6F893
:10AA00000730DBB27B7300240DF10B000E37CDE96C
:10AA1000057307948DF80B4000F0DAFC204605A979
:10AA2000FFF722FA044630B9684B03A9CDE9033594
:10AA300000F0F2F904469DF80B0000F0EDFCAEE7E3
:10AA40008CB2C1F10301C9B2FFF7DAFB002CCFD100
:10AA50002B7A012B40F2B4806B7B05F10C02002BAA
:10AA600000F0B080AB7BD05C03F0D0FE2846FFF74F
:10AA700043FF03F0CBFE07F13403C7E91E44C7E9E7
:10AA800020447C62FC627B6789E7037A002B00F03C
:10AA90009B80837A00F10901002B00F09380C27A39
:10AAA000B3788A5C9A42A3D01B06F77809D527B100
:10AAB000032F14BF0324002471E70121FFF7A0FB3B
:10AAC00096E707F0FD03012B92D0002F76D10668A0
:10AAD000FFF712FF3E4B059306F10C030693B46A91
:10AAE0008146C4B9F36FB467C6E91F43F36A63B123
:10AAF000D6E90B0106F1240383E80300F46205A9FB
:10AB00004846FFF7C7F9044600E074620021284672
:10AB1000FFF776FB43E7D6F884A0706A544528BF58
:10AB2000544606F134082246414608F031F8F36FE6
:10AB30002344C6E91F73AAEB0403B367F36A4444D2
:10AB400074672BB306F1240406F12C0898E803007F
:10AB500084E80300B36F706AF7621BB9736A002B55
:10AB6000CDD116E0B26A716F9A4214D808F010F88D
:10AB7000B36AB26FC6F88030D21AB267726F1A44E5
:10AB8000726700212846FFF73BFBF36A002BDDD1FB
:10AB900073620024BAE71A4607F0FAFFB26FB36A8D
:10ABA000F2679B1AB362736A13447362D6E7032198
:10ABB000FFF726FB2846FFF727FB19E70324EEE6FD
:10ABC0006378FFDE1B78FCE75B78FAE723A20E00D0
:10ABD00049A20E001FB503681B8CDC0714D5037A4D
:10ABE000012B13D9437B00F10C0493B1837BE05C10
:10ABF0009306CDE901120CBF0123002301A90393A1
:10AC0000FFF732F904B010BD0820FBE700235B78A2
:10AC1000FFDE1B78FCE700002DE9FF410468238C70
:10AC2000DB0780460F4616464BD500230DF1070083
:10AC30008DF8073000F0CCFB656A002D39D1A16F8B
:10AC4000B14214D3616F3246384607F0A1FFA36FBB
:10AC5000C4F880609B1BA367636F334463679DF8F0
:10AC6000070000F0D9FB284604B0BDE8F081C4E934
:10AC700009764046FFF740FE134B029304F10C03A4
:10AC80000646039369B10A463846616F07F080FFB4
:10AC9000A36FA26AD21AA262626AC4E91E531A445E
:10ACA000626202A93046FFF7F5F8051E08BF92253B
:10ACB000D5E7E36A1BB9C4E90B769225CFE71125E6
:10ACC000CDE70825CFE700BF49A20E00002070475E
:10ACD0002DE9F04F2DED028B85B04B680192804637
:10ACE0000C466BB90B681B681B684BB98D683DB986
:10ACF000C0E90055284605B0BDEC028BBDE8F08FD9
:10AD000003F046FC019BE7689F4228BF1F4604F101
:10AD100010034FF0000A08EE103A8146564601250E
:10AD20004FB3A3686168BB429B4628BFBB4629B3AB
:10AD30005A4609EB060007F02BFF00236360A26868
:10AD4000E368A2EB0B02A3EB0B03A260E360A7EBAB
:10AD50000B075E440ABBBAF1000F03D022681268E9
:10AD600012682260DBB12368DBB963601EB1019B0E
:10AD7000B34288BF0025C8E90096BBE7002BDED0B0
:10AD800021684B6818EE100AD3F804A009EB0602FC
:10AD90005B46D0474FF0010AD1E7002BC0D1002518
:10ADA000BEE70023029321684B680022D3F804B069
:10ADB00002A80123D84708B92061B1E7A36801338D
:10ADC000A360F0E7084B1A7882420CD0052818BF20
:10ADD000064A187018BF137805481CBF23F00203F9
:10ADE0001370FFF7E9B8704710E100202CE1002054
:10ADF0006C3B0F0008B50020FEF7D6FFBDE8084009
:10AE00008020FEF7D1BF08B50020FEF7DBFFBDE8CC
:10AE100008408020FEF7D6BF38B505460C4603F043
:10AE200049FCA84203BFD4E90001034BC3E9000178
:10AE3000102008BF002038BD30E100207FB5C38856
:10AE400093421E4628BF164693420D46144625D906
:10AE5000802003F0CBFAB4FBF0F202FB1044B4FA0A
:10AE600084F4640900230DF1030003948DF803308A
:10AE7000CDE9015600F0ACFA01A98020FEF7F4FFFD
:10AE8000044620B906498020FFF7C6FF04469DF816
:10AE9000030000F0C1FA204604B070BD0024E1E7D1
:10AEA000A03B0F002DE9F04F0B780E2B89B00D461B
:10AEB00013D8A3B1013B0D2B11D8DFE813F012001A
:10AEC0001A00160010002A00FA01100010001000ED
:10AED00010001A00E401E801F801852B13D00624C4
:10AEE000E1E10320FFF76EFFF9E7A84800F0C9FB96
:10AEF00008B90024D7E1A64B0122DA65BFF36F8FB2
:10AF0000BFF34F8FF5E7A34B1B78032BE7D104204A
:10AF1000E8E70523A04D8DF814300DF1150003F07E
:10AF200059FB00232B609DF8153003F01F07032FFA
:10AF300000F26281DFE817F00400FB0057013E00D9
:10AF400013F0600FC3F3411834D1DB099DF81610DC
:10AF500000F0A680062916D0082900F0938049BB8E
:10AF60008E4C0222204607F03BFE237843F001027C
:10AF700022708B4A1278920744BF43F00303237078
:10AF8000022286490EE09DF81830022B16D0032BC2
:10AF900068D0012B0ED1BDF81B30002B00F0708162
:10AFA000804912220DF11500FFF748FF0446062CD8
:10AFB00040F02A8105A8FEF745FF12E1BDF81B60AD
:10AFC000002E00F05D81092E28BF0926FEF7FCFE49
:10AFD0004FF00909044674BB704C73493246204651
:10AFE00007F0D6FD2771A4F80290FEF7D5FE18B140
:10AFF000E37943F02003E371FEF7E6FE6B4BC3E910
:10B0000000049E60BDF81B20DA6003A800238DF8C1
:10B010000C3000F0DDF966498020FEF73BFF044666
:10B0200020B964498020FFF7F7FE04469DF80C0024
:10B0300000F0F2F9BBE7CDF80C804FF0000A63682E
:10B040000022D3F804B02146012303A8D84730B921
:10B05000237A1F442368D1441C68FFB2BBE70AF17E
:10B06000010AECE7BDF81B30002B00F00981BDF8A8
:10B0700019109DF8170000F08DF90146002899D0AD
:10B0800002788FE7434A1278052A03D1434A1370A6
:10B09000012276E7042A8DD1404B83F80080F7E740
:10B0A000032910D009292CD0012983D1BDF81730EC
:10B0B000012B7FF47FAFFEF76FFE60B1384A137843
:10B0C00023F002030FE0BDF81730012B7FF472AFBD
:10B0D000FEF762FE18B90F2403F0E2FAE3E0304A0B
:10B0E000137843F0020313702B68002B00F0C88024
:10B0F00003F0E0FA044600287FF4FBAE03F090FA78
:10B10000D1E0244B1B78043B012B01D90824E3E751
:10B110009DF817302BB9FEF73BFF0420FFF752FED6
:10B12000E2E7012B56D1FEF71FFF0520F6E79DF859
:10B13000190003A9FEF74EFE064608B91024CBE716
:10B140009DF80C1005AAFEF75DFE062804465BD1AB
:10B150009DF8152012F0600FBED10E4B9DF80C101B
:10B1600018789DF81630D2092CD02BB30A2BB3D106
:10B170000528CBD130460192FEF7F0FE0749019A2F
:10B1800008700DF11500FFF759FE2AE038E10020A4
:10B190000070024010E1002030E100203CE100207E
:10B1A0002CE100208C3B0F006D3B0F0014E10020D0
:10B1B000A83B0F00A03B0F000528A7D14A490B80F0
:10B1C0000222DEE70B2B87D105289FD1BDF817306F
:10B1D000FF2B01D907247FE79DF817203046FEF7A3
:10B1E0006FFE044610E09DF81900070706D19DF890
:10B1F000153013F0600F0BD006246DE705A9FEF79C
:10B2000004FE06280446F2D0002C3FF46DAF63E73D
:10B210009DF81620354B9DF819401B78012A1DD04A
:10B22000032A0CD0002AE7D1052B02D026077FF491
:10B230006DAF204603F0BCF92B490880C0E720071A
:10B24000DAD4BDF81720002AD6D1052B02D0210769
:10B250007FF45CAF204603F09FF945E72207CBD48B
:10B26000BDF81720002AC7D1052B02D023077FF491
:10B270004DAF204603F09EF9204603F061FC33E712
:10B2800003F004FA35E60020FFF79CFD31E64FF0AD
:10B290008043D3F8384414F0010401D00220F3E7CE
:10B2A0000120FFF78FFD204609B0BDE8F08F012097
:10B2B000EAE7C87803283FF412AE0D4E33688BB12D
:10B2C0000022716832609847044600287FF404AF7A
:10B2D000336823B1AB78002B7FF40BAE0EE703F09D
:10B2E000D5F9E0E70E24F7E63CE1002010E100206C
:10B2F00030E1002008B1402303600148704700BFDF
:10B300003CE1002070B54FF0805286B0D2F8A830F2
:10B31000D2F8A42000926FEA83436FEA93430B4A6A
:10B320000B4E9BB20D2102A807F062FC02AD002477
:10B3300002A807F0B3FC844201D306B070BD15F833
:10B34000013B06F8013B0134F2E700BFB03B0F00C0
:10B350007CE1002010B50E4B53F8204023780BB948
:10B36000A01C10BD0020FFF7C5FF013C00235A1CA4
:10B37000A15C39B9DBB201335B00DBB243F440734B
:10B380000380EEE7D3B220F813101346EFE700BFB7
:10B39000083C0F00034608B9FFF7DCBF012807D0BF
:10B3A000022805D0032803D0042801D0052809D19C
:10B3B000054800EB4303587820B1044B53F8203084
:10B3C000002BE9D100207047203C0F00083C0F0003
:10B3D00070B5EFF3108672B60C4A946801239CB9DD
:10B3E00093600B4B0B4DD3F8801029401160C3F8CC
:10B3F0008050D3F8841051604FF0FF32C3F884209E
:10B40000047006B962B670BD0370FAE78CE10020E3
:10B4100000E100E0FC06FFBD10B5084B9A685AB188
:10B4200050B9EFF3108172B6054A1C6814605C686D
:10B430005460986001B962B610BD00BF8CE1002075
:10B4400000E100E030B53AB11368DB430A4D014436
:10B45000814204D1D84330BD4FF0FF33F6E710F8F6
:10B46000012B5340082213F0010418BF2C46013A67
:10B4700084EA5303F7D1EBE72083B8ED10B561B14F
:10B48000B2FBF3F403FB1424A4B244B9C0E90014E2
:10B4900084608281C381204610BD0E20FCE7092014
:10B4A000FAE782B050E8022FC188B2EB324F4FF07A
:10B4B000000317BF92B241EA014142EA014104E0B0
:10B4C0004268B2EB324F08BF012340E80212002A63
:10B4D000E8D18DF807309DF80730002B0CBF112004
:10B4E000002002B0704737B550E8013F9DB2C489D3
:10B4F00025448489A54228BF2D1B0489A54202BF8B
:10B50000BFF32F8F002207E0C5EA030540E801548E
:10B51000002CE9D14FF001028DF803200193019A2C
:10B520000A609DF8031001F0FF0321B1006810FAD2
:10B5300082F003B030BD1846FBE70A884B889A4278
:10B5400009D150E8012FC2EA024240E80123002B52
:10B55000F7D1012070470020704737B550E8023F0F
:10B560001FFAA3F5C488A54202BFBFF32F8F0022A4
:10B570000DE0C48925448489A54228BF2D1BC3EA58
:10B58000054540E80254002CE8D14FF001028DF847
:10B5900003200193019A0A609DF8031001F0FF0354
:10B5A00021B1006800EB124003B030BD1846FBE744
:10B5B0000A884B889A4209D150E8022FC2EA2242F7
:10B5C00040E80223002BF7D101207047002070478C
:10B5D00010B5034653E8000F0A4643E8002494F0F0
:10B5E000000FF7D110BD10B5034653E8000F40EA35
:10B5F000010243E8002494F0000FF6D110BD10B50D
:10B60000034653E8002F42EA010043E8000494F0A7
:10B61000000FF6D110BD10B5034653E8000F00EA45
:10B62000010243E8002494F0000FF6D110BD10B5DC
:10B63000034653E8002F02EA010043E8000494F0B7
:10B64000000FF6D110BD10B5034653E8002F02EBF2
:10B65000010043E8000494F0000FF6D110BD10B5CE
:10B66000034653E8002FA2EB010043E8000494F0E6
:10B67000000FF6D110BD0121FFF7B5BF0121FFF783
:10B68000BEBF0021FFF7C7BF0021FFF7D0BF10B535
:10B6900090B1D0E9012301689B1ADBB20A60013B3B
:10B6A000DBB2FF2B026802D10020107110BD1168BF
:10B6B0004C1C14600B70F2E70E20F7E737B5044618
:10B6C00000250DF107008DF80750FFF781FE226875
:10B6D000616813688B4210D9591E116013F8013C40
:10B6E000228AE56802FB03552268A36811685B1A89
:10B6F0001179DBB2994238BF13719DF80700FFF74B
:10B700008BFE284603B030BD37B5054600230DF14A
:10B7100007000C468DF80730FFF75AFE2A681368B9
:10B72000591C1160E968641A298AB4FBF1F41C7091
:10B730009DF80700FFF770FE03B030BD13B50B4650
:10B74000114680B9104B1148114AC01A0E23C00887
:10B750000093104B0004104940F0010006F027FD53
:10B760000E2002B010BD4BB9074B08480B4AC01A57
:10B77000C0080E2300930004064BECE703601B682F
:10B7800002B0BDE81040184720590F00C8590F00FB
:10B79000353C0F00F13D0F003A3C0F00693C0F00B3
:10B7A0002DE9F34188B93D4B3D483E4AC01AC008D7
:10B7B0000E243D4B009400043C4940F0010006F08B
:10B7C000F6FC204602B0BDE8F0814AB9334B34485C
:10B7D000374AC01AC0080E24334B00940004EBE72C
:10B7E000D0F800E0BEF1000F09D12C4B2C48314AB3
:10B7F000C01AC00808242C4B00940004DCE74BB9A5
:10B80000264B27482C4AC01AC0080924264B00940E
:10B810000004D1E74568D5F80480B3FBF8F508FBD0
:10B8200015354DB11D4B1E48244AC01AC0080924C5
:10B830001D4B00940004BFE78D0709D0174B184833
:10B840001F4AC01AC0081024174B00940004B3E725
:10B8500012F0030F09D0114B11481A4AC01AC00840
:10B860001024114B00940004A6E7C568A9420BD32D
:10B870004D1EEC180569AC4206D8DEF80C40A44613
:10B8800002B0BDE8F0416047044B05480E4AC01ABB
:10B89000C0081024044B009400048DE720590F00C9
:10B8A000C8590F00353C0F00DE3D0F003A3C0F0039
:10B8B000B73C0F00633C0F00763C0F00BD3C0F000F
:10B8C000E73C0F00FF3C0F00223D0F00F7B580B9A9
:10B8D0002A4B2B482B4AC01AC0080E242A4B00942E
:10B8E00000042A4940F0010006F061FC204603B044
:10B8F000F0BDD0F800C0BCF1000F09D11F4B2048AB
:10B90000234AC01AC00808241F4B00940004E8E72B
:10B910004AB91A4B1A481F4AC01AC00809241A4BC0
:10B9200000940004DDE74568D5F800E00EF1FF352E
:10B930000D4209D0114B1248174AC01AC0081024F2
:10B94000114B00940004CCE7C568A9420CD34D1EEE
:10B950000EFB02540569AC4206D8DCF81040A44640
:10B9600003B0BDE8F0406047044B05480B4AC01ADD
:10B97000C0081024044B00940004B2E720590F00C3
:10B98000C8590F00353C0F00CB3D0F003A3C0F006B
:10B99000633C0F00763C0F00493D0F006F3D0F00E8
:10B9A00070B550B90E4D0F4C0026641B1423B4FB28
:10B9B000F3F4B44208D1002010E00368002BF1D06A
:10B9C000BDE87040DB6918472B6813B901361435A0
:10B9D000EFE7DB69284698470028F7D070BD00BF25
:10B9E00058A200206CA20020014B43600020704749
:10B9F000043E0F000846704700207047024B18684D
:10BA0000003818BF0120704798E1002008B50248AF
:10BA1000FFF73AFE002008BD98E1002008B5104667
:10BA20001A4607F0B5F8002008BD00002DE9F041E6
:10BA3000804686B011480F4616461D46FFF71BFE8E
:10BA40000446C8B9AA083146384600F0B5FF0B488D
:10BA5000FFF71AFED8F8083053B101228DF8002004
:10BA60000C9A0592CDE90147CDE9036568469847F0
:10BA7000204606B0BDE8F0811124F9E798E10020E6
:10BA80002DE9F043814687B014480E461546984686
:10BA9000FFF7F1FD0446F0B90746BD4215D10F4846
:10BAA000FFF7F2FDD9F808305BB102228DF80020D3
:10BAB0000022CDE90126CDE90325CDF814806846A2
:10BAC0009847204607B0BDE8F08306EB073000F04A
:10BAD00013FF0137E1E71124F3E700BF98E10020ED
:10BAE00029DF704728DF704770B50668B36886B0F5
:10BAF00004460D4673B114220021684607F070F821
:10BB0000A36805932379019533B1012B0ED0B36857
:10BB10006846984706B070BD01238DF80030236950
:10BB20000293E368039363690493F0E702238DF8BB
:10BB30000030E3681B030293F5E7084670470020D6
:10BB400070470000024B187A003818BF0120704778
:10BB500088E30020034B187A0122B0FA80F05A746F
:10BB60004009704788E3002008B510461A4607F0E0
:10BB70000FF8002008BD000008B514220021044879
:10BB800007F02EF80348FFF78CFC002008BD00BF2B
:10BB900088E3002078E3002010B5094C094B43608E
:10BBA0002046FFF768FD48B900F0F8FA064920740E
:10BBB0001C2306484FF4EE72FFF760FC002010BD16
:10BBC00088E30020303E0F009CE1002078E3002055
:10BBD00038B5234D234C2B7A3BB923492348FFF733
:10BBE000BCFC206008B9686038BD022324682B7251
:10BBF000237973B1012B24D020460321FFF774FF72
:10BC000000232B726B6018491848BDE83840FFF7D5
:10BC1000CFBCD4E90523D21AB2F5805FD4E9031072
:10BC200028BF4FF480529208012A38BF01221944DC
:10BC30001844FFF755FF50B11128DDD101232B72B5
:10BC4000D2E7D4E903031844FFF74CFFF3E72B7C5A
:10BC5000002BC9D1BDE83840022000F009B800BF70
:10BC600088E30020A0E300209CE3002078E300208C
:10BC700038B5234C237A002B41D0022B09D103285D
:10BC800030D0204B00221B68E2601A793AB1012AB9
:10BC900022D0637C7BBBBDE83840FFF799BFD3E976
:10BCA00005128D1AB5F5805F94BF521902F58052C6
:10BCB0009A619142EDD102284FF0000308BF194666
:10BCC0002372104B18BF0D211868FFF70DFF0E49A6
:10BCD0000E48FFF76DFCDCE71A6901321A615B69F7
:10BCE0009A42E7E7E3680133082B01D8E360D0E725
:10BCF0000023E360DFE7BDE8384000F03FBA38BD1D
:10BD000088E30020A0E300209CE3002078E30020EB
:10BD1000831E012B01D8FFF7ABBF704700F0FD0376
:10BD2000012B08D1044B00225A74421E504250414C
:10BD30001874FFF74DBF704788E3002010B5064C1C
:10BD4000201DFFF798FC28B9637C1BB9BDE81040A3
:10BD5000FFF73EBF10BD00BF88E300202DE9F3418F
:10BD600080460D460F4801A916461F46FFF7BBFB4C
:10BD70000446A8B11C22002106F032FF2D0B01233E
:10BD8000237101A90748C4F80080A760E5606661D7
:10BD9000FFF7D3FBFFF7D2FF002002B0BDE8F08130
:10BDA0000420FAE778E300202DE9F743814688462E
:10BDB000104801A917461E46FFF795FB0446B0B18F
:10BDC0001C22002106F00CFF00250A9BA36001A99C
:10BDD000C4E9037807482571C4F800906661FFF74D
:10BDE000ACFBFFF7ABFF284603B0BDE8F0830420AF
:10BDF000FAE700BF78E300202DE9F84FB0F806A07D
:10BE00004579D2F800B09DF828900AFB05F5043D6D
:10BE100088460BEB0301A94203F1040488BFA5EB9C
:10BE2000030BB4FBFAF607460AFB1644C2F800B04F
:10BE30004EB9AAEB04055D4528BF5D46BBF1000F76
:10BE400004D1BDE8F88F3F68013EF1E7043408EB08
:10BE500006003C442A46B9F1000F0DD02146ABEB59
:10BE6000050B06F095FEDA452E443F6855464FF027
:10BE7000000428BF5D46E1E701462046EFE7FFF7F3
:10BE800006BCF8B546790146721E0546002393426A
:10BE90002D6803D30024A64202D8F8BD0133F6E78B
:10BEA0000F682846FFF730FC01343946F3E72DE9E7
:10BEB000F843CD1C068A0746FFF700FC043E3544D4
:10BEC0000446B5FBF6F5F0B14FF48073EDB2838014
:10BED000C680013D076081464FF00008A84512D298
:10BEE0003846FFF7EBFB064648B1637901336371CF
:10BEF00008F10108C9F8000007608146EEE7204616
:10BF0000FFF7BFFF34462046BDE8F8830121043027
:10BF1000FFF799BB10B5012104460430FFF79FFBE2
:10BF2000C0B220B92046BDE81040FFF7AABF10BD3F
:10BF30001FB503920022009203AAFFF75DFF05B030
:10BF40005DF804FB1FB503920122009203AAFFF7DC
:10BF500053FF05B05DF804FB01600B6843604A685D
:10BF6000934204BF002343607047436843B10268B3
:10BF700091680B4443605268934204BF00234360BE
:10BF80007047000010B50D49A1F59472914201D897
:10BF900000200FE08C1AE30F03EBE4035B1002EBCD
:10BFA000C30452F83330834205D802D204F10802A8
:10BFB000ECE7606810BD2146E8E700BF54430F007E
:10BFC00008B5FFF7DFFF024B002808BF184608BD81
:10BFD00016420F0010DF704711DF704713B504469B
:10BFE00009496846FFF7B8FF019808B902B010BDCB
:10BFF000D0E900212046904718B16846FFF7B5FF09
:10C00000F2E71120F2E700BFE8430F0013B5044642
:10C0100007496846FFF7A0FF019B0BB902B010BDAE
:10C020002046D3E9002190476846FFF79EFFF3E7DB
:10C0300000440F00084B9A6822B11A6822F480026B
:10C040001A607047054B4FF48002C3F88020BFF39D
:10C050004F8FBFF36F8F70478CE1002000E100E04D
:10C060000C4991F816335A09EC231341DB0706D526
:10C07000094B9A684AB94FF480030B607047074A2E
:10C08000A12142F20200FCF74DB91A6842F4800285
:10C090001A60704700E100E08CE1002054430F007B
:10C0A000F7B5194F3C7864BB184E01252046357012
:10C0B000FFF794FF112821D02046FFF7A7FF144B6C
:10C0C0008DF80340186801900DF10300FFF780F927
:10C0D000104901A8FFF77EFF0446B0FA80F040093E
:10C0E00038709DF80300FFF797F93CB90A4B34709C
:10C0F0001C70FFF7B5FF2846FFF788FF204603B006
:10C10000F0BD0824FAE700BFA5E30020A4E3002067
:10C11000E4430F0051830E00A6E30020F7B5154F4E
:10C120003B781BB3144E01203070FFF757FF1128E6
:10C130004FF000051CD00220FFF768FF0DF107004B
:10C140008DF80750FFF744F9FFF746FF04469DF8C6
:10C1500007003D70FFF760F92CB903203470FFF73A
:10C1600069FFFFF753FF204603B0F0BD0824FAE74C
:10C170002C46F8E7A5E30020A4E30020054B1B783C
:10C1800033B1054B1B780BB1FFF7C8BFFFF788BF72
:10C1900008207047A4E30020A5E30020014B187895
:10C1A000704700BFA5E3002007B508496846FFF7C0
:10C1B000D3FE019B13B903B05DF804FBD3E9002063
:10C1C00090476846FFF7D1FEF3E700BFF4430F0046
:10C1D000FFF7EABF60DF704769DF704761DF7047D4
:10C1E00030B5154DADF5017D4FF4FA740DF1020136
:10C1F00003A8ADF80240FFF7F1FF70B9294601A886
:10C20000FFF7AAFE029B002BF0D003A8D3E9002180
:10C21000904701A8FFF7A9FEF4E7052808D0074AD0
:10C2200040F23B110DF5017DBDE83040FCF77AB8D6
:10C230000DF5017D30BD00BFA4440F000C440F007C
:10C24000024B1B780BB1FFF7CBBF7047A7E3002071
:10C2500018B1034B0360002070470E20704700BFE9
:10C2600090A10020F0B5074685B00D4600295DD0AD
:10C270002F4B0B600C22002101A806F0B1FC012617
:10C2800006232A68ADF8083001A920208DF8047033
:10C290008DF80660FFF7A0FF0C22002101A806F030
:10C2A0009FFC00242A688DF8056001A94020ADF8A4
:10C2B0000640FFF791FF0C22214601A806F090FCF2
:10C2C000F7232A68ADF8063001A923208DF8047001
:10C2D000FFF782FF0C22214601A806F081FC2A68A4
:10C2E0008DF8046001A93046FFF776FF0C22214645
:10C2F00001A806F075FC4FF4B0632A68019301A908
:10C30000A120FFF769FF0C22214601A806F068FC76
:10C310009DF804302A6864F3000301A9A0208DF879
:10C320000430FFF759FF204605B0F0BD0E20FBE7B3
:10C3300090A1002008B5FFF74DFF10B9014B012275
:10C340001A7008BDA7E300204BDF70471FB50F4CE4
:10C3500001A8FFF7F9FF70B9214602A8FFF7FCFD1D
:10C36000039B002BF4D00198D3E90021904702A849
:10C37000FFF7FBFDF4E7052806D0054A6B2104B062
:10C38000BDE81040FBF7CEBF04B010BD48450F001C
:10C39000B0440F00F0B578B371B36BB300241C60E8
:10C3A0008E18DB274FF0DC0C4FF0DD0E1A688E4242
:10C3B00002F1010400EB020504D11C60C0232B70C4
:10C3C0000020F0BD0D78C02D05D0DB2D0CD01C60F9
:10C3D0000C78845406E01C6087541A68541C1C6056
:10C3E00000F802C00131E1E71C6085541A68541C52
:10C3F0001C6000F802E0F5E70E20E2E710B580B31C
:10C40000D0E902239A422ED00378012B0FD0022BC1
:10C4100021D053B9C02928D0DB2902D101230370D0
:10C4200003E04368541C84609954112006E0DC2921
:10C4300005D0DD290AD0022303700B2010BD511C4A
:10C4400043688160C02199540023E8E7511C816052
:10C450004368DB21F7E7C029E7D10023037083603D
:10C46000E3E70E20EAE70420E8E71846E6E742DFC4
:10C47000704743DF7047000038B5074C051E04F1D4
:10C48000080318BF1C4623682BB11A6822605B683A
:10C4900028469847F7E738BDB0E3002020B9054BA0
:10C4A00001225A70FFF7E8BF012802D1014A9070BB
:10C4B000F8E77047A8E3002020B9034B01225A7027
:10C4C000FFF7DABF704700BFA8E3002038B50E4C75
:10C4D0002378B3B90D486360A3602361E36000F083
:10C4E000A1FA0546FFF75AFE08B900F0A7FA0123A2
:10C4F0002370074BD3F800340BB10123A3702846F7
:10C5000038BD8525F5E700BFA8E300209DC40E00D7
:10C510000000014037B50D4C00230DF107008DF8E8
:10C520000730FEF755FFE368013BE360E36833B98A
:10C53000074BD3F8005415B900F096FAA5709DF892
:10C540000700FEF769FF03B030BD00BFA8E300207D
:10C5500000000140012813B50CD0032820D038B9C1
:10C56000134B0122C3F88020BFF34F8FBFF36F8FAF
:10C5700002B010BD0F4C00230DF107008DF80730FD
:10C58000FEF726FF23780BB9FFF7A0FFE3689DF8BD
:10C5900007000133E3600123A370FEF73DFFE7E7E7
:10C5A00000F04CFA02B0BDE81040FFF7B3BF00BF87
:10C5B00000E100E0A8E3002037B51B4C6378054696
:10C5C00003F0FF029BB110B143680020984700239D
:10C5D0000DF107008DF80730FEF7FAFE63689DF84D
:10C5E000070001336360FEF717FF03B030BD0DF1A4
:10C5F00007008DF80720FEF7EBFE25B1A268134671
:10C6000053B92A60A5606368002BE7D1FFF7C6FD28
:10C6100030B1FFF72CFFE1E79D42F4D01B68EFE754
:10C6200000F033FADAE700BFA8E3002073B50F4C3F
:10C6300000230DF107008DF80730FEF7C9FE63688F
:10C64000013B6360666836B9FFF7A8FD054640B157
:10C65000FFF70FFF66709DF80700FEF7DDFE02B0E2
:10C6600070BD00F01FFA6570F5E700BFA8E3002079
:10C6700036DF70474DDF70474EDF70474FDF704742
:10C6800050DF704710B50446FFF7F6FF40B920466B
:10C69000FFF7F0FF20B92046BDE81040FFF7EEBFDE
:10C6A00010BD012810B5044602D100F04BFA8047B6
:10C6B00000F04EFA034668B10A2C07D00B2C07D0C5
:10C6C000092C07D10220BDE8104018470020FAE7E6
:10C6D0000120F8E710BD0000012813B5044603D07F
:10C6E00003281CD002B010BD00230DF107008DF807
:10C6F0000730FEF76DFE00F025FA10B12046FFF777
:10C70000B7FF9DF80700FEF787FE00F021FA00282A
:10C71000E8D0012002B0BDE81040FFF7B3BF0C4BDA
:10C72000C02283F8002301221A6000F00BFA20B126
:10C730004FF080430422C3F8042300F009FA0028D4
:10C74000D0D04FF080434FF46072C3F80423C9E7A0
:10C7500000E100E038B50A4D2B78044663B9FFF7D5
:10C760001DFD58B90748002C18BF204600F0F6F907
:10C7700008B901232B7038BD8520FCE70820FAE7B3
:10C78000BCE300205A450F0013B500240DF107004B
:10C790008DF80740FEF71CFEFFF700FD58B120465C
:10C7A000FFF770FF9DF80700FEF736FE02B0BDE808
:10C7B000104000F009BA00F000FAF3E71FB501904D
:10C7C000FFF7E2FF019800F0EBF9FFF7E7FC044602
:10C7D000A0B10120FFF756FF044660B903A8FFF798
:10C7E0004FFF044638B9039BDB0704D500F0B0F9CE
:10C7F000034620469847204604B010BD00F0D6F905
:10C80000F9E700001FB503788DF800304368019305
:10C8100083688DF80830C368054A0393054B684662
:10C8200053F8213052F82110984705B05DF804FB09
:10C83000C0E30020C8E300201FB503788DF8003066
:10C840004368019383688DF80830C368054A0393F1
:10C85000054B684653F8213052F82110984705B02F
:10C860005DF804FBC0E30020C8E30020F0B5194BDD
:10C8700090F800C0DFF86CE043F82C20164B164609
:10C880000A6943F82C204B7F0EF80C300C46074603
:10C890000FCC89B06D460FC594E80F0085E80F00F6
:10C8A0003B78CDF810C01EF803304BB1002E0B4A78
:10C8B000694608BF3246381D00F0ECFD09B0F0BDF6
:10C8C000002E074A694608BF324607F10C0000F007
:10C8D0000DFBF3E7C8E30020C0E3002005C80E000D
:10C8E00039C80E00D0E30020024AD2F80034002BF1
:10C8F000FBD0704700E001400A4908B50223C1F8A7
:10C900000435BFF36F8FBFF34F8FC1F80805FFF7F2
:10C91000EBFF0023C1F80435BFF36F8FBFF34F8FD8
:10C9200008BD00BF00E0014038B520F00305C0009D
:10C9300000F01800FF2303FA00F22B680B4C23EAE7
:10C9400002030122C4F80425BFF36F8FBFF34F8F9A
:10C9500081400B442B60FFF7C7FF0023C4F8043568
:10C96000BFF36F8FBFF34F8F38BD00BF00E00140B2
:10C9700010B5094C0123C4F80435BFF36F8FBFF322
:10C980004F8F0160FFF7B0FF0023C4F80435BFF3F9
:10C990006F8FBFF34F8F10BD00E0014070B58D1851
:10C9A0000C46461AAC4200D170BD301914F8011B78
:10C9B000FFF7BAFFF6E7000070B50E4E01231546EB
:10C9C000C6F80435BFF36F8FBFF34F8F0024AC421E
:10C9D00007D10023C6F80435BFF36F8FBFF34F8F25
:10C9E00070BD51F8243040F82430FFF77DFF01344A
:10C9F000EDE700BF00E0014010B5034653E8000F2B
:10CA000000EA010243E8002494F0000FF6D110BDC3
:10CA100000F18040002382B0036003680193019B12
:10CA200002B07047044A137923B901211060918044
:10CA30001846704785207047D4E30020084B1A68D9
:10CA4000D20704D4C02283F8002301221A604FF0D9
:10CA500080420123C2F81835024A1370704700BFA4
:10CA600000E100E0DCE300204FF0804208B5022343
:10CA7000C2F808334FF48270FFF7CAFF0123D36076
:10CA8000D2F81834DB03FBD408BD08B54FF480702E
:10CA9000FFF7BEFF4FF080430122C3F804231A6062
:10CAA00008BD00004FF08042012108B54FF48070AE
:10CAB000C2F80813FFF7ACFF5160D2F80C3403F052
:10CAC0000113B3F1011FF8D0014B00225A7108BDC8
:10CAD000D4E3002010B54FF08041D1F8003163B1AC
:10CAE0004FF48070FFF794FF01220D4BC1F808232B
:10CAF000587910B95A711B6898474FF08042D2F8A4
:10CB0000043163B14FF48270FFF782FF0223C2F851
:10CB10000833034BBDE810401B680120184710BDC7
:10CB2000D4E3002000F1804382B01A68002A14BFC9
:10CB30000120002004D000221A601B680193019B91
:10CB400002B07047014B1868704700BFE0E3002057
:10CB5000014B1868704700BFE8E300200E4A1378C5
:10CB6000C3B903784FF08041C3F34003C1F8803567
:10CB7000037803F00103C1F87835084B1968C90739
:10CB800004D4C02183F8001301211960012313701C
:10CB90000020704785207047ECE3002000E100E0B2
:10CBA000014B02681A607047E8E300204FF08043B1
:10CBB0004FF46072C3F8042370474FF080434FF482
:10CBC0006072C3F808237047014B00221A60704757
:10CBD000E8E3002010B54FF08043D3F80443620728
:10CBE00007D54FF48470FFF79DFF10B11E4B1B68F3
:10CBF0009847A30608D54FF48A70FFF793FF18B142
:10CC00001A4B00201B689847600608D54FF48C70BB
:10CC1000FFF788FF18B1154B01201B6898472106C4
:10CC200008D54FF48E70FFF77DFF18B1104B002030
:10CC30001B689847E20508D54FF49070FFF772FF24
:10CC400018B10B4B01201B689847A3050AD54FF478
:10CC50009270FFF767FF28B1054BBDE810401B68D5
:10CC60000220184710BD00BFE0E30020E4E30020ED
:10CC7000E8E3002008B5FFF7ADFFBDE80840FFF787
:10CC800029BF0000014B1B68184700BFF0E30020DC
:10CC90000E4B984237B50C4602D0002003B030BD91
:10CCA00000230DF107008DF80730FEF791FB084BCC
:10CCB0001D7915B901221C601A719DF80700FEF755
:10CCC000ABFB002DE9D01120E8E700BF00200040B9
:10CCD000F0E30020034B984201BF034B00221A608F
:10CCE0001A71704700200040F0E3002000234350F9
:10CCF00082B043580193019B02B070470A4610B5B9
:10CD00004FF48E71FFF7F2FF136A9168C95C136AE2
:10CD100001331362C0F81C1510BD08B502464FF46C
:10CD200092710068FFF7E2FF10684FF48471FFF71B
:10CD3000DDFF136801221A6008BD10B58B690A4631
:10CD40004FF4847123B9FFF7D1FFD0F8183510BD27
:10CD5000FFF7CCFF536AD168D0F81805C854536A5E
:10CD600001335362F3E700001FB501238DF8003053
:10CD7000044BCDE90110D3E900126846904705B095
:10CD80005DF804FBF8E3002030B54E4DD5F80433D0
:10CD90009A0585B051D5D5F82431002B4DD04FF4EC
:10CDA00092712846FFF7A2FF4FF40173C5F80833CC
:10CDB000454B93F829200AB901226A6041490222B1
:10CDC0008DF80020D1F88024C1F8802403929A695C
:10CDD0000292DA6801920022C3E906226846D3E98A
:10CDE000001290473748D0F81C315BB1364A516980
:10CDF000136A99424ED992F82830002B4AD1114635
:10CE0000FFF77CFF2F48D0F84431002B57D04FF468
:10CE1000A271FFF76BFF2C4B93F829200AB1012276
:10CE200002609A69002A4AD0586AD96800229A6139
:10CE300005B0BDE83040FFF797BFD5F804335B0776
:10CE4000D0D5D5F80831002BCCD01F4C1D48214639
:10CE5000FFF773FF636AA2699A42C3D1E36953B1D2
:10CE6000A3612369E168E3600023606AE3616362B0
:10CE7000FFF77AFFB6E794F829300BB901236B600E
:10CE8000104B4FF40172C3F808230023606AE16875
:10CE9000A361EDE70B484FF48E71FFF727FF53694D
:10CEA000002BAFD051690291002391688DF80030BA
:10CEB000019153616846D2E900139847A2E705B093
:10CEC00030BD00BF00200040F8E300201F2886BFCF
:10CED00000F01F00044B4FF0A04300F5E070022269
:10CEE00043F82020704700BF000300502DE9F843AD
:10CEF0006D4E90F804802C2303FB0863054693F8DD
:10CF00002A300C469146002B40F0CA8067490068E1
:10CF1000FFF7BEFE0746002840F0C48023685A1C75
:10CF200019D01F2B4FF001028ABF61494FF0A04179
:10CF300003F01F0302FA03F3C1F8083523681F2B1F
:10CF400086BF03F01F035A4A4FF0A04203F5E07377
:10CF5000032142F823106368581C0BD01F2B86BF97
:10CF600003F01F03524A4FF0A04203F5E073002183
:10CF700042F823102B68A269C3F82425217D637D24
:10CF80002A680B43C2F86C35D4E900122B68C3F849
:10CF90001425C3F80C15237D012B32D1A368591C2D
:10CFA0000BD01F2B86BF03F01F03414A4FF0A04256
:10CFB00003F5E073002142F82310E3685A1C19D0EE
:10CFC0001F2B4FF001028ABF39494FF0A04103F0F7
:10CFD0001F0302FA03F3C1F80835E3681F2B86BF6D
:10CFE00003F01F03324A4FF0A04203F5E073032120
:10CFF00042F82310D4E902122B68C3F80825C3F8BD
:10D0000010152C2303FB08F3F218C2F804902269D0
:10D01000F250B9F1000F30D02868247F254A4FF430
:10D020008E71FFF763FE4FF4A2712868FFF75EFE72
:10D030002B68C3F804232A68110B42F30732002A35
:10D04000AEBF02F160421C4A01F00F014FEA4413E7
:10D05000DBB2AABF02F56142535482F800332A685A
:10D06000130B42F30732002A07DB03F01F010123F1
:10D070008B405209114941F822302B680422C3F831
:10D0800000252C2303FB08630022C3E9062283F852
:10D0900029205A61012283F82A203846BDE8F88306
:10D0A0000827FAE71127F8E7F8E3002089CD0E00FA
:10D0B000000300508000020014ED00E000E100E0F9
:10D0C0002DE9F041036805792A4C0022C3F80025B8
:10D0D0002C2303FB054301465B68B3B10368264A72
:10D0E000C3F8082303681A0B43F30733002B0CDB48
:10D0F00002F01F005B090122824020331F4840F8E4
:10D100002320BFF34F8FBFF36F8F0B684FF0FF32B9
:10D11000D3F80C05D3F81485D3F80865D3F8107547
:10D12000C3F81425C3F80C250B689042C3F80825F2
:10D13000C3F8102501D0FFF7C9FEB8F1FF3F02D0B8
:10D140004046FFF7C3FE7A1C02D03846FFF7BEFE0A
:10D15000731C02D03046FFF7B9FE0868FFF7BAFD2E
:10D160002C2303FB0544002384F82A306360BDE8C8
:10D17000F08100BFF8E300208402020000E100E03B
:10D180000279044B2C2101FB02335869003818BF87
:10D1900001207047F8E300202DE9F84F064690F88B
:10D1A000048089469246FFF7EBFF044600283DD1F4
:10D1B000204F2C2508FB057B4FF48E71CBF814A073
:10D1C000CBF80890CBF820008BF828003068FFF7E8
:10D1D0008DFD336801229A6030685946FFF78EFD55
:10D1E000DBF804305D461BBB3068DBF814402B6A6B
:10D1F0009C4211D83368D3F81C21002AFBD00122AD
:10D20000DA6000202C2303FB087700237B61BDE854
:10D21000F88F95F828303BB9D0F81C31002BF8D0A6
:10D220005946FFF76BFDE2E70F20EBE71120EEE731
:10D230002046ECE7F8E300202DE9F0473A4D077966
:10D240002C2303FB075306465C6824B103684FF4A4
:10D250000170C3F808032C2303FB0753986950B1EE
:10D26000D869002841D024B133684FF40172C3F863
:10D270000423112436E09A61D9605862D8612C23C6
:10D2800003FB075393F829301BB910B93046FFF759
:10D2900044FD4FF02C0808FB075A3068DAF80430D8
:10D2A000002B37D14FF4A271D046FFF71FFD306835
:10D2B000D0F82491D0F80831D0F84441CBB914B952
:10D2C000B9F1000FF3D02C2303FB07550023AB610A
:10D2D000B9F1000F24D12CBB95F829103368012235
:10D2E000B1B11A602046BDE8F0871961DA6101200A
:10D2F000C5E7B9F1000FE6D1002CE4D14146FFF7B4
:10D300001CFDDAF82430DAF818209A42CFD8DAE790
:10D310005A60E7E74FF40173C0F804330024E1E7F3
:10D320000324DFE70F24DDE7F8E300200023435068
:10D3300082B043580193019B02B070471FB501238F
:10D340008DF80030044BCDE90110D3E90012684696
:10D35000904705B05DF804FB24E400207FB5434A04
:10D36000D2F82461002E60D010464FF49271FFF77E
:10D37000DDFF02238DF80030D2F88034C2F880340B
:10D380000393D2F83C350293394BDA6801920022BC
:10D39000C3E906226846D3E9001290473348D0F823
:10D3A000443173B14FF4A271FFF7C0FF304B9A695B
:10D3B0003AB10022C3E90622D968D0F83C05FFF74C
:10D3C000BDFF2A48D0F82031ABB14FF49071FFF780
:10D3D000ADFF0123C360264B5A6962B1D0F84C15EA
:10D3E0000291002299688DF8002001915A616846E7
:10D3F000D3E9001290471D48D0F858319BB14FF443
:10D40000AC71FFF793FF1A4B5A6962B1D0F84C1513
:10D410000291002299688DF8002001915A616846B6
:10D42000D3E90012904704B070BDD2F81031002B40
:10D43000B4D04FF488711046FFF778FF0C4BD2F848
:10D440003C0599698842A9D1DC69D96864B1D2F8F0
:10D45000005225F02005C2F800521A699C61DA607A
:10D46000DE61FFF76BFF99E79C61FAE7002000405F
:10D4700024E400201F2886BF00F01F00044B4FF05B
:10D48000A04300F5E070022243F82020704700BF5F
:10D49000000300502DE9F843744E90F804802423D3
:10D4A00003FB0863054693F820300C469146002B99
:10D4B00040F0D7806E490068FFF7EAFB0746002876
:10D4C00040F0D18023685A1C19D01F2B4FF0010265
:10D4D0008ABF68494FF0A04103F01F0302FA03F32B
:10D4E000C1F8083523681F2B86BF03F01F03614A6C
:10D4F0004FF0A04203F5E073032142F82310636864
:10D50000581C0BD01F2B86BF03F01F03594A4FF046
:10D51000A04203F5E0730C2142F823102B68A269A6
:10D52000C3F82425217D637D2A680B43C2F86C353E
:10D53000D4E900212B68C3F80C25C3F81415237D0A
:10D54000012B32D1A368591C0BD01F2B86BF03F0CF
:10D550001F03484A4FF0A04203F5E073002142F850
:10D560002310E3685A1C19D01F2B4FF001028ABF09
:10D5700040494FF0A04103F01F0302FA03F3C1F842
:10D580000835E3681F2B86BF03F01F03394A4FF0AD
:10D59000A04203F5E073032142F82310D4E90212FC
:10D5A0002B68C3F80825C3F81015242303FB08F3E0
:10D5B000F218C2F804902269F250B9F1000F3FD07E
:10D5C0002868227F4FF48871FFF7B0FE28684FF477
:10D5D0009071FFF7ABFE28684FF49271FFF7A6FE3B
:10D5E00028684FF4A271FFF7A1FE4FF4AC712868D0
:10D5F000FFF79CFE2B682049C3F804132B68190B16
:10D6000043F30733002BAEBF03F160431B4B01F024
:10D610000F014FEA4212D2B2AABF03F561435A5436
:10D6200083F800232B681A0B43F30733002B07DB27
:10D6300002F01F0101228A405B09114941F82320B1
:10D640002B680822C3F80025242303FB0866002367
:10D65000C6E906337361012386F820303846BDE8F9
:10D66000F8830827FAE71127F8E700BF24E4002031
:10D670005DD30E00000300501003420014ED00E0E3
:10D6800000E100E02DE9F843394D067904682423D0
:10D6900003FB065302465B68ABB1364BC4F8083354
:10D6A0000368190B43F30733002B0CDB01F01F0059
:10D6B0005B090121814020332F4840F82310BFF33C
:10D6C0004F8FBFF36F8FD4F80032242723F020034D
:10D6D00007FB0657C4F800320023BB614FF4AC715E
:10D6E0002046FFF723FE0123E360D4F85831002BD6
:10D6F000FBD0BB691BB1D4F84431002BF5D000231B
:10D70000C4F8003513684FF0FF31D3F80C05D3F897
:10D710001495D3F80875D3F81085C3F80C15C3F821
:10D72000141513688842C3F80815C3F8101501D002
:10D73000FFF7A0FEB9F1FF3F02D04846FFF79AFE7F
:10D74000B8F1FF3F02D04046FFF794FE7B1C02D0A9
:10D750003846FFF78FFE2046FFF7BCFA242303FB71
:10D760000655002385F820306B60BDE8F88300BFC4
:10D7700024E400201003420000E100E00279044BA1
:10D78000242101FB02335869003818BF012070477B
:10D7900024E4002001F06043B3F1005F2DE9F0477D
:10D7A0000546884692463ED190F80490FFF7E6FF82
:10D7B0000446002839D11F4F242606FB09764FF472
:10D7C0009071C6F814A0C6F808802868FFF7AEFD6F
:10D7D0004FF4AC712868FFF7A9FD2B687269B16836
:10D7E000C3F84415C3F848252B6801229A60736872
:10D7F000EBB92B68D3F82021D3F858011AB90028C7
:10D80000F8D00F2008E00028FBD10122DA602A6856
:10D81000D2F85831002BFBD0242303FB09770023D7
:10D820007B61BDE8F0871020FBE71120F9E7204677
:10D83000F7E700BF24E40020F8B501F06043B3F13E
:10D84000005F04460F4660D10379314D242101FB6E
:10D850000351496821B100684FF40476C0F80863A9
:10D86000242000FB03539E6956B1D86900283BD0A1
:10D8700021B123684FF40472C3F80423112032E06D
:10D880009A61DF60DE6120684FF48871FFF74EFD1A
:10D8900020684FF4A271FFF749FD2368C3F834757F
:10D8A000C3F8382523681EBB01221A602679236835
:10D8B000242202FB065252680ABBD3F81011D3F897
:10D8C0004421D3F82401114302D10028F5D00A469F
:10D8D000242303FB06550023984218BF03209A42D5
:10D8E000AB6118BF0F20F8BD1F61DA610126CAE7DE
:10D8F000D3F8002242F02002C3F80022D6E74FF40A
:10D900000472C3F804230020EDE71020EBE700BF0A
:10D9100024E40020020713D400F00F0310F0800F5E
:10D92000084A0BBF03F5887303F5847302EB830386
:10D9300052F8230008BF5868431E584258417047A8
:10D94000002070470070024010F0080F074B06D00F
:10D95000D3F8C00410F4803F18BF0020704700F0D7
:10D960000F0000F5947053F82000704700700240DB
:10D970004FF08053D3F83001A0F1080358425841CA
:10D98000704700004FF08053D3F83021082A06D1A9
:10D99000D3F83431032B04D8034AD05C70470020FD
:10D9A00070470120704700BF75450F0030B54C68C7
:10D9B0009C4209D2002545600968016093420CD160
:10D9C000201E18BF012030BD43600D680560086847
:10D9D000E41A18444C600860F0E70020F3E74B6855
:10D9E0009A4228BF1A460B68C0E9003248680B68A3
:10D9F000801A48601A4400380A6018BF0120704736
:10DA00004B689A4228BF1A4662B10B68C0E90032DF
:10DA10004B689B1A4B600B68101E13440B6018BFB9
:10DA2000012070471346F1E7054B10F0800FA3F17A
:10DA3000900208BF134600F00F0003EB0010704780
:10DA4000BCE5002010F0800F14BF0023102300F06D
:10DA50000F0018447047000008B5FFF789FF18B1A0
:10DA6000034B0022C3F81C2C024B00221A7008BD85
:10DA70000070024049E4002007B5094A00231370F2
:10DA8000084AADF8053013708DF8073001238DF882
:10DA90000430054B01A81B68984703B05DF804FBF0
:10DAA00048E4002050E600204CE6002070470000CB
:10DAB000F8B54B680B4F934228BF13460C461D46E2
:10DAC00006461A460968384605F062F8C6E9007548
:10DAD00060682268401B60602A440038226018BFDA
