:02000002F0000C
:1020000009F060BF08B550B9012002F096FA4FF010
:102010008043D3F81824D2035CBF01229A6008BD24
:1020200008B502F04BF908B502F048F908B502F01E
:1020300045F908B509F006FC014608B102F03EF981
:10204000084A094809F032FC02460028F6D1074840
:102050004FF4004109F035FC0028EFD1044B012278
:102060001A7008BD01200F00B4CF0F00D05A002015
:10207000F05A002030B5104D0FCD8BB004AC0FC41A
:1020800095E8030084E8030009F056FF0B4B0C4A67
:1020900000934FF48073CDE902230193094A07238B
:1020A000694604A809F09EFE08B102F007F9012074
:1020B00000F0E2FF0BB030BD9CCF0F00F25A0020C1
:1020C000F25B002011430F0037B5184C184D01A8E2
:1020D00009F0CAFE08B103B030BD2378FBB19DF80A
:1020E00004102878A1F16903DAB20C2A4FF0010339
:1020F00006D8934041F2012213420CBF0123002372
:102100000C4A03EB400352F8233043B198470328AD
:10211000287004D100230848237009F0EAFB9DF8D9
:102120000410012000F03AFFD1E700BFF05A002070
:10213000F15A002078590020D05A0020C36903B119
:102140001847704703680022C3E91E22C3E9202212
:102150001A845A62DA6203F134025A6770474360A4
:10216000CA699A420DD38A690260C8691A448A61B1
:102170000A6FC01A1A44C86100380A6718BF0120E4
:10218000704701F1280202608B67002070474360AE
:10219000CA699A4227BF8A69026001F12802026077
:1021A00026BF0B67CB618B670020704710B50446D4
:1021B00058B90868037B202B09D100F10E010722D2
:1021C00018300AF0EDF9204610BD0320FCE7062088
:1021D000FAE7F0B504680D7A002C00F088806FF4FF
:1021E0005D7634447C2C00F222837C2C00F21F8329
:1021F000DFE814F085008F009D00A900B500C10044
:10220000CD00D9001D031D031D031D031D031D0368
:10221000EF00FB001D031D031D031D031801240116
:1022200032011D031D031D03450151017F011D03E3
:102230001D031D031D03670173017F011D031D03A2
:102240001D031D031D031D038B011D031D031D0322
:102250001D039F01AB01B701C301CF011D031D0386
:10226000DB01E701F301FF010B021D031D031C024B
:102270002802340240021D031D034C02580264026E
:1022800070027C021D031D031D031D031D031D039E
:102290001D031D031D031D031D031D031D031D033E
:1022A0001D031D031D031D031D039B02A7021D0328
:1022B0001D031D03C0021D031D031D031D03DD02BD
:1022C0001D031D031D031D03DD021D031D031D034F
:1022D0001D031D031D03E902F5021D031D031D035C
:1022E0001D0313031D031D031D031D0313030824F6
:1022F000047123B940F2753303600120F0BD0AB1C7
:10230000047914700B24012B04710ED840F276333B
:10231000F2E700240AB10679165501340E7D0671E4
:102320009C4205D340F27733E6E70124F2E700242C
:102330000AB106791655013402269C42067103D370
:102340004FF45E73D8E700240AB1067916550134BC
:1023500002269C42067103D340F27933CCE7002475
:102360000AB106791655013402269C42067103D340
:1023700040F27A33C0E700240AB1067916550134D9
:102380004E7E06719C4203D340F27B33B4E70024B7
:102390000AB106791655013400269C42067103D312
:1023A0004FF45F73A8E700240AB1067916559D4ED5
:1023B0000027013437709B4E3678AE4202D34FF47B
:1023C0007F7399E70926A342067103D840F283334D
:1023D00092E700240AB106791655013404269C427E
:1023E000067103D34FF4617386E700240AB10679BE
:1023F00016558C4E0F7A3678DFF82CC2B74204F1AE
:10240000010440F2188201F1090706EB460607EBCA
:10241000060E9C42BE5DCCF800E0067103D340F28C
:10242000893369E700240AB106791655013400267C
:102430009C42067103D340F28A335DE700240AB15F
:1024400006791655784E36680134767806719C42C6
:1024500003D340F28B334FE700240AB106791655B7
:10246000714E0F7D36683678B74204F101041ED1F3
:1024700002269C42067103D340F28F333CE70024CE
:102480000AB106791655013402269C42067103D31F
:102490004FF4647330E700240AB10679165501340D
:1024A0004E7E06719C4225D340F2913324E78F7D06
:1024B000B74223D10A269C42067103D340F29633D9
:1024C0001AE700240AB106791655013400269C4209
:1024D000067103D340F297330EE700240AB1067960
:1024E0001655013400269C42067103D34FF46673DF
:1024F00002E700240AB10679165501340026A342EA
:10250000067103D840F29F33F6E600240AB106793B
:102510001655454E0F7D36683678B74204F10104F2
:1025200040F0E98005269C42067103D34FF469739D
:10253000E2E600240AB106791655013424269C42AD
:10254000067103D340F2A533D6E600240AB106791A
:102550001655013400269C42067103D340F2A6337F
:10256000CAE600240AB106791655013410269C42A9
:10257000067103D340F2A733BEE600240AB1067900
:102580001655013401269C42067103D34FF46A7339
:10259000B2E600240AB106791655013405269C429C
:1025A000067103D340F2AB33A6E600240AB10679E4
:1025B0001655013424269C42067103D34FF46B73E5
:1025C0009AE600240AB106791655013401269C4288
:1025D000067103D340F2AD338EE600240AB10679CA
:1025E0001655013403269C42067103D340F2AE33E4
:1025F00082E600240AB10679165501348E7D0671F3
:102600009C4203D340F2AF3376E600240AB1067948
:102610001655013404269C42067108D340F2B233A9
:102620006AE600BFEF860020F486002000240AB18D
:1026300006791655013424269C42067103D340F2D4
:10264000B33359E600240AB106791655013402263F
:102650009C42067103D34FF46D734DE600240AB11A
:1026600006791655013402269C42067103D340F2C6
:10267000B53341E600240AB1067916550134052622
:102680009C42067103D34FF46E7335E600240AB101
:1026900006791655013424269C42067103D340F274
:1026A000B93329E600240AB1067916550134062605
:1026B0009C42067103D340F2BA331DE600240AB1EE
:1026C0000679165501340E7D06719C4203D340F203
:1026D000BB3311E600240AB10679165501348E7D0C
:1026E00006719C4203D34FF46F7305E600240AB1D0
:1026F000067916550134534E36687778524E377046
:10270000524E00273770514E37784F4E3678B742C9
:1027100004D34F4F3E7801363E704CE60726A34265
:10272000067103D84FF47473E6E500240AB1067904
:102730001655013405269C42067103D340F2D1336D
:10274000DAE500240AB1067916553E4E3F4F366849
:102750003F7896F801C0BC4504F1010470D996F8A1
:1027600002C03E449C4216F80C60067103D340F24E
:10277000D533C1E500240AB106791655314E0F7DD7
:1027800036683678B74204F1010406D103269C422C
:1027900006710DD340F2DA33AEE58F7DB7420BD12F
:1027A00002269C42067103D340F2DF33A4E50024E5
:1027B0000AB10679165501344026A342067103D8A2
:1027C00040F2E63398E500240AB106791655013443
:1027D00000269C42067103D340F2E7338CE50024C7
:1027E0000AB106791655174E0F7D36683678B7420E
:1027F00004F1010407D10E6A9C42367806710DD3AC
:102800004FF47B7378E58F7DB7420BD100269C4255
:10281000067103D340F2F1336EE500240AB1067964
:1028200016550134094F3E7801363E706BE70023A0
:102830000360184662E50023CCF800301B78FFDE09
:102840000023FBE7F4860020EE860020F0860020BF
:10285000EF860020037A012B08D9427B012A00F180
:102860000C0306D9827B13445878704700235B78A9
:10287000FFDE00231B78FBE72DE9F0470B7888B0DB
:1028800005460E460E2B1AD8DFE813F06000420111
:102890006000600019000F00AD00190019003F0131
:1028A000190060006000600060004A78D1094FEABA
:1028B000521335D013F0030303D0012B21D006248B
:1028C0001BE002F01F02012AF9D1B478062CF6D1E0
:1028D00005A8039303F01AF803AB0093F27831795B
:1028E00003460746284602F051F9052805D0039A09
:1028F0003946701C02F0AEFD0446204608B0BDE823
:10290000F087B378212BDAD1B6F80720072AD6D181
:102910000168701C183108B0BDE8F04702F09ABD9C
:10292000012BCCD1B3780768202B11D0222BC6D134
:10293000B6F80730002BC2D13A8CB6F803303B848E
:1029400002F0010203F001018A4227D10024D4E7FA
:10295000B6F80720072AB2D13B73B6F80730DBB2CE
:102960007B7300240DF10B000E37CDE9057307943E
:102970008DF80B4003F038F8204605A902F0E6FA7E
:10298000044630B9684B03A9CDE9033502F050FD88
:1029900004469DF80B0003F04BF8AEE78CB2C1F192
:1029A0000301C9B2FFF7CAFB002CCFD12B7A012B50
:1029B00040F2B4806B7B05F10C02002B00F0B0807C
:1029C000AB7BD05C05F0D2FE2846FFF743FF05F055
:1029D000CDFE07F13403C7E91E44C7E920447C62F9
:1029E000FC627B6789E7037A002B00F09B80837A87
:1029F00000F10901002B00F09380C27AB3788A5C61
:102A00009A42A3D01B06F77809D527B1032F14BF2C
:102A10000324002471E70121FFF790FB96E707F0FC
:102A2000FD03012B92D0002F76D10668FFF712FF2D
:102A30003E4B059306F10C030693B46A8146C4B974
:102A4000F36FB467C6E91F43F36A63B1D6E90B01BC
:102A500006F1240383E80300F46205A9484602F066
:102A60008BFA044600E0746200212846FFF766FBFB
:102A700043E7D6F884A0706A544528BF544606F14F
:102A800034082246414609F08BFDF36F2344C6E922
:102A90001F73AAEB0403B367F36A444474672BB350
:102AA00006F1240406F12C0898E8030084E80300EA
:102AB000B36F706AF7621BB9736A002BCDD116E051
:102AC000B26A716F9A4214D809F06AFDB36AB26FA4
:102AD000C6F88030D21AB267726F1A44726700214A
:102AE0002846FFF72BFBF36A002BDDD1736200242D
:102AF000BAE71A4609F054FDB26FB36AF2679B1A3F
:102B0000B362736A13447362D6E70321FFF716FBBF
:102B10002846FFF717FB19E70324EEE66378FFDE8C
:102B20001B78FCE75B78FAE7AD210F005F210F000F
:102B30001FB503681B8CDC0714D5037A012B13D94E
:102B4000437B00F10C0493B1837BE05C9306CDE9F9
:102B500001120CBF0123002301A9039302F0F6F92F
:102B600004B010BD0820FBE700235B78FFDE1B7874
:102B7000FCE70368D3F8800070470368986F7047DC
:102B80002DE9FF410468238CDB0780460F4616467B
:102B90004BD500230DF107008DF8073002F024FF1C
:102BA000656A002D39D1A16FB14214D3616F3246ED
:102BB000384609F0F5FCA36FC4F880609B1BA3673F
:102BC000636F334463679DF8070002F031FF2846C6
:102BD00004B0BDE8F081C4E909764046FFF73AFE4B
:102BE000134B029304F10C030646039369B10A46A2
:102BF0003846616F09F0D4FCA36FA26AD21AA262B0
:102C0000626AC4E91E531A44626202A9304602F0A5
:102C1000B3F9051E08BF9225D5E7E36A1BB9C4E9DD
:102C20000B769225CFE71125CDE70825CFE700BF2A
:102C30005F210F002DE9F0430468238CDB0785B08A
:102C400007468946904634D500250DF107008DF8DA
:102C5000075002F0C9FEA66FBEB1464528BF4646E2
:102C6000616F3246484609F09BFCA36FC4F8806050
:102C70009B1BA367636F334463679DF8070002F0F3
:102C8000D7FE284605B0BDE8F083636A7BB9C4E986
:102C900009983846FFF7DEFD0C34074B029302A972
:102CA000039402F069F9051E08BF9225E5E7112596
:102CB000E3E70825E5E700BF8F210F00F0B585B0F9
:102CC00006680C46002305460DF1030017468DF8F3
:102CD000033002F089FE202C36D8032C2AD8631E3C
:102CE000012B2FD8718CA4B2002F30D00C4342F2AC
:102CF000A103F38102220023748433827382B2829F
:102D0000F482297A2A6829B3A97A05F1090419B34A
:102D1000E87A0E32205C019201A90A22CDE9022351
:102D200002F014F904469DF8030002F081FE2046EB
:102D300005B0F0BD221FD3B201229A40074B1340C9
:102D4000002BCFD10624EEE7402CFBD1CAE721EAC5
:102D50000404CCE74B78FFDE0B78FCE71110001081
:102D6000F7B50D46076800240DF1070016468DF8EB
:102D7000074002F039FE6B1E012B0CD83B8C2B4216
:102D800014BF0123234633609DF8070002F050FE74
:102D9000204603B0F0BD0624F6E700BF014809F065
:102DA00019B900BFA8D40F00F8B505460C46164661
:102DB00009F07EFC0746284609F07AFC38B3012367
:102DC000002E63664FF0000308BF192625601846E1
:102DD000626EB24219DAEA1814E01146013291F833
:102DE00000C0BCF12C0F0CD108705A1CA918AA5CA9
:102DF0005AB1626E02F1010CC4F864C044F82210AA
:102E0000E6E70133BB42E8DBEFD10020F8BD02204A
:102E1000FCE7062070472DE9F04F2DED028BA5B0A1
:102E2000144608EE100A0E46682200210AA809F08E
:102E3000DFFB012C06D133780D2B01D00A2B0ED1EC
:102E4000002406E05CB94A4B4A48996809F0C2F888
:102E50000224204625B0BDEC028BBDE8F08F33463E
:102E600000241D4613F8012B12F0DF0F01D03D2A7C
:102E70005ED12246314602A809F092FB24AB2344DE
:102E8000002295F800A003F8882C24AB013C1C44D8
:102E90004FF0000B14F8883C374F3F2B08BF04F865
:102EA00088BC4FF0000508BF4FF0010B4FEA051931
:102EB00002A959F80780404609F0D6FB04460028CD
:102EC00050D1BAF1000F0AD0404609F0F1FB07EBF0
:102ED00009020130127A0AA93044FFF765FFBBF1FD
:102EE000000F32D055BB2548234E254F09F072F80C
:102EF000244809F06FF80624F2680192104609F0A0
:102F0000D7FB019A18B13168384609F063F8013CE3
:102F100006F11006F0D1164B53F82410154809F0AD
:102F200059F8062D95D1184802A909F053F890E7F1
:102F30000134202C95D14FF0000AA6E74F441048E9
:102F4000FA68414609F046F8E5E74F4418EE100AE2
:102F50007C680AAA4146A04708280446DBD9044BEE
:102F60005968DBE70135062DA0D10124D3E700BF66
:102F7000F4590020AFD40F0080D60F00B6D40F0054
:102F800024D50F0046D50F002DD50F0010B50446EF
:102F9000204608F079FF0028FAD110BD1B2910B592
:102FA000304B04460FD00CD80A2922D00D2920D04E
:102FB00008290BD01A78012A3DD15B2943D102227E
:102FC00002E07F29F5E701221A7033E0264900224A
:102FD0001A700B6873B3013B0B6024490820CA5474
:102FE000FFF7D4FF2020FFF7D1FF0820BDE81040F5
:102FF000CCE700221D481A7009F05AFB68B10A207C
:10300000FFF7C4FF0D20FFF7C1FF184809F050FB80
:10301000164902462046FFF7FEFE1549154809F0FD
:1030200077F840F601021148002109F0E1FA0E4B51
:1030300000221A6010BD022A05D1A1F14102012A25
:1030400001D80022C0E7084800241C70036840F241
:10305000FE729342EED85A1C02600448C154845454
:103060000846C3E767B10020BCB90020B8B1002012
:10307000F5D60F00F0D60F0008B50949094809F048
:1030800047F814220021084809F0B2FA40F601027C
:103090000648002109F0ACFA054B00221A6008BD71
:1030A000F5D60F00F0D60F0068B10020B8B10020AF
:0830B000BCB90020704700BF0D
:104000000000042051C10F0079C10F007BC10F00D7
:104010007DC10F007FC10F0081C10F0000000000B3
:10402000000000000000000000000000B98C0F003C
:1040300085C10F000000000087C10F0089C10F007B
:10404000D56D0F008BC10F00E56D0F008BC10F0008
:104050008BC10F008BC10F008BC10F008BC10F00F4
:104060008BC10F008BC10F008BC10F008BC10F00E4
:104070008BC10F008BC10F008BC10F008BC10F00D4
:104080008BC10F0045BD0F008BC10F008BC10F000E
:104090008BC10F008BC10F00A9630F008BC10F00F4
:1040A0008BC10F008BC10F008BC10F008BC10F00A4
:1040B0008BC10F008BC10F0000000000000000004A
:1040C0008BC10F008BC10F008BC10F008BC10F0084
:1040D000B5900F008BC10F008BC10F00E9870F0057
:1040E000D9740F008BC10F00EDC40F000000000059
:1040F000000000008BC10F00000000008BC10F000A
:1041000000000000000000000000000000000000AF
:10411000000000000000000000000000000000009F
:10412000000000000000000000000000000000008F
:10413000000000000000000000000000000000007F
:10414000000000000000000000000000000000006F
:10415000000000000000000000000000000000005F
:10416000000000000000000000000000000000004F
:10417000000000000000000000000000000000003F
:10418000000000000000000000000000000000002F
:10419000000000000000000000000000000000001F
:1041A000000000000000000000000000000000000F
:1041B00000000000000000000000000000000000FF
:1041C00000000000000000000000000000000000EF
:1041D00000000000000000000000000000000000DF
:1041E00000000000000000000000000000000000CF
:1041F00000000000000000000000000000000000BF
:1042000010B5054C237833B9044B13B10448AFF310
:1042100000800123237010BDB05A00200000000070
:1042200060D80F0008B5034B1BB103490348AFF337
:10423000008008BD00000000B45A002060D80F00C4
:10424000A3F5803A704700BF174B002B08BF134BF4
:104250009D46FFF7F5FF00218B460F461348144A91
:10426000121A08F0C5F90E4B002B00D098470D4BE1
:10427000002B00D098470020002104000D000D48BD
:10428000002802D00C48AFF3008008F055F9200058
:10429000290000F045F808F03BF900BF00000800D5
:1042A000000000000000000000000420B05A0020C0
:1042B000D8B900200000000000000000BFF34F8FBD
:1042C0000549064BCA6802F4E0621343CB60BFF3B2
:1042D0004F8F00BFFDE700BF00ED00E00400FA05CE
:1042E000012807D002280AD070B9A1F17203584200
:1042F00058417047752914BF002002207047692972
:1043000014BF002003207047002070470020704732
:1043100008B50378013B012B01D8FFF7CFFF08BD9B
:1043200008B505F01DF84FF48051002004F004FE9C
:1043300008B1FFF7C3FF0548C0F57E2104F0FCFD7E
:104340000028F6D1024804F011FDF2E700400F000A
:1043500005200F000020704710B504461A4801F0F0
:104360007BFC1A4B18481C6001F08DFC48B3184BBD
:10437000002140F603020330C3E9021258601970AD
:10438000144B154959601549C3E90212144A1A61C0
:10439000144A5A6102F07CF9852800D090B90020B7
:1043A00002F0BAFA70B901F0B9FA0F4800F076FCE1
:1043B00040B90E4800F014FD20B9BDE8104000F0EF
:1043C000D9BC032010BD00BF88D80F007C5D002041
:1043D0002076002008760020FD430F00F1430F00F7
:1043E000B07500206CD80F00DCCF0F00B8CF0F00E5
:1043F000011F014801F06DBC88D80F0013B5074CB0
:104400000A4601AB0146204602F0A6F8019A04488C
:104410002146FEF78DFB02B010BD00BF977500204E
:10442000B8CF0F0000F03ABE083810B5062820D8E3
:10443000DFE800F008141B1F1F1F0400BDE8104038
:1044400000F0B2BC03F0E2FE08B900F0ABFC094B8F
:104450001B6873B10120BDE81040184700F0B6FC9E
:10446000044B1B682BB10220F5E7BDE8104000F0BB
:104470009DBC10BD7C5D002003780BB900F00EBE22
:10448000014A042100F080BA25440F00F8B5E9B9CB
:10449000134E144C144F3178124802F091F805462F
:1044A00060B93846D4E9011207F008F90F4801F065
:1044B000EAFB18B10330C4E9010525700C4801225C
:1044C0003146FEF75DFB0028E5D0F8BD0229FCD19E
:1044D000BDE8F840024906480122FEF751BB00BF83
:1044E000C8750020207600200876002088D80F00AC
:1044F000B8CF0F00074B1B5C1F2B86BF064903F08C
:104500001F034FF0A041012202FA03F3C1F808355E
:10451000704700BFE8CF0F000003005008B500202F
:10452000FFF7E8FF0120FFF7E5FF0220FFF7E2FFBA
:10453000BDE808400320FFF7DDBFC20710B5044601
:104540000CD54FF0A0430322C3F83427C3F8382713
:10455000C3F83C27C3F84027FFF7E0FFA3070AD5BD
:104560004FF0A0430C22C3F82C27C3F83027C3F820
:104570006027C3F8642710BD4FF08053D3F8300193
:10458000A0F1080358425841704700004FF0805393
:10459000D3F83021082A06D1D3F83431032B02D8BE
:1045A000024AD05C70470020704700BFECCF0F007C
:1045B00008B5FFF7E1FF40B14FF080430022C3F898
:1045C0000C21C3F81021C3F83825FFF7D5FF0028C8
:1045D00046D04FF08052614BD2F80414C3F8201536
:1045E000D2F80814C3F82415D2F80C14C3F828150F
:1045F000D2F81014C3F82C15D2F81414C3F83015DF
:10460000D2F81814C3F83415D2F81C14C3F84015A6
:10461000D2F82014C3F84415D2F82414C3F848156E
:10462000D2F82814C3F84C15D2F82C14C3F850153E
:10463000D2F83014C3F85415D2F83414C3F8601506
:10464000D2F83814C3F86415D2F83C14C3F86815CE
:10465000D2F84014C3F86C15D2F84424C3F870257E
:10466000FFF794FF18B13E4B3E4AC3F88C26FFF784
:104670008DFF18B13C4BFB22C3F81825FFF786FFCE
:1046800070B14FF080414FF08053D1F8E42ED3F851
:10469000583222F00F0203F00F031343C1F8E43E37
:1046A000FFF774FF20B1314B4FF40072C3F840267E
:1046B000FFF762FF48B14FF08043D3F80024D207E0
:1046C00044BF6FF00102C3F80024294AD2F88830B1
:1046D00043F47003C2F88830BFF34F8FBFF36F8F7E
:1046E0004FF01023D3F80022002A03DBD3F8043262
:1046F000002B2EDA1F4B0122C3F80425D3F8002427
:10470000002AFBD04FF010221221C2F80012D3F879
:104710000024002AFBD04FF010231222C3F80422F9
:10472000144BD3F80024002AFBD00022C3F8042540
:10473000D3F80024002AFBD0BFF34F8F0C490E4B57
:10474000CA6802F4E0621343CB60BFF34F8F00BF2F
:10475000FDE70A4B0A4A1A6008BD00BF00C00040CE
:10476000005000404881030000F0004000900240EB
:1047700000ED00E000E001400400FA059C59002033
:104780000090D0030E4B984214D00AD8B8B10D490E
:1047900048F2165248F20153884214BF1046184698
:1047A0007047094B984208D0084948F2165248F21F
:1047B0000353F1E748F20350704748F20250704744
:1047C0000102F0000002F0000202F0000F02F0000F
:1047D00008B5083007F030FDBDE80840FFF7D2BF4C
:1047E00013681F2B2DE9F34106460F46144620D9C6
:1047F000DFF84C800121404601F0F6F90546BFF391
:104800005F8FC8B900F07CF8394606F1080007F060
:104810007FFD019000F082F8BFF35F8F0198C8F828
:104820000050FFF7AFFF08B92023236002B0BDE8B6
:10483000F08148F21450F9E748F20450F6E700BF5F
:10484000308600202DE9F04105460E461948012129
:10485000144601F0C9F9BFF35F8F38BB00F050F880
:10486000DFF854800835B4F5805F274628BF4FF441
:10487000805731463A46404607F092FE3A46414656
:10488000284607F0F3FCE41B3E4468B9002CEAD14B
:1048900000F044F8BFF35F8F064B00221A602046F9
:1048A000BDE8F041FFF76EBF0446F1E748F204505F
:1048B000BDE8F0813086002030760020024B0020D9
:1048C000C3F80005704700BF00A0025038B50A4B7E
:1048D00000251D60BFF35F8F084C0123C4F800352D
:1048E00007F046FDC4F8005520B1052848F20350F2
:1048F00018BF032038BD00BF3086002000A0025042
:10490000044B0122C3F80025034B4FF480625A6028
:10491000704700BF00A0025000E100E0064B0022FB
:10492000C3F80025054B4FF48062C3F88420BFF321
:104930004F8FBFF36F8F704700A0025000E100E07F
:104940004B1C30B5DB00044612F003009BB20DD1C6
:10495000074D2A601A44074B1A60074B1870074B23
:104960001870074B1C80074B198030BD0720FCE7EF
:104970003C860020388600203486002044860020B3
:1049800040860020428600202DE9F347DFF8C080F2
:10499000B8F800308B4206460D4617464CD300242B
:1049A0000DF107008DF8074001F01EF8244B254A51
:1049B00025481B78008892F800C084455FFA8CF186
:1049C00038BF4C1CDBB238BFE4B2A3422ED01478FF
:1049D0001178CBB2884286BF0133DBB2002313705B
:1049E0009DF8070001F024F84FF6FF739C4225D094
:1049F000DFF86090D9F800204FEAC40A42F834701A
:104A000002EBC403AEB1A5B1104BB8F800001B68AF
:104A10002A4604FB0030314607F0C2FDD9F80030C9
:104A2000534400209D8002B0BDE8F0874FF6FF742C
:104A3000D6E700209880F6E70920F4E70420F2E7A3
:104A400044860020348600204286002038860020DC
:104A5000408600203C86002070B5104C104D227816
:104A60002B789A4200D170BD0E480F4A2378126805
:104A700006880E4802EBC301006852F8332089888B
:104A800003FB060090470A4922780988D3B2914275
:104A900086BF0133DBB200232370E0E744860020A9
:104AA00034860020408600203C8600203886002086
:104AB0004286002043681B6818470000024B5B6871
:104AC00003B11847704700BF48860020020600F077
:104AD0000F034CBF02480348DB001844704700BF77
:104AE000548600209C86002008B5FFF7EFFF016088
:104AF00009B14B681968416008BD0000024B0146CE
:104B0000D3E90002104700BF9C86002038B5831E01
:104B1000DBB2062B98BF1A4A1A4D98BFD25C2B788D
:104B2000A3F10203DBB288BF0022062B9ABF14490F
:104B3000CB5C00239342044603D0B2B1124801F08B
:104B40001DFE022C14D0A4F10800424242412B78F1
:104B5000022B0FD0A3F108014B424B41934202D0EC
:104B600052B103F09DFB2C7038BD01F041FEE8E727
:104B70000122ECE70123F1E703F088FBF3E700BF34
:104B800008D00F00ED860020A05900202DE9F04F3D
:104B900087B000260546884691461F4602966B68F8
:104BA00000225C682946012302A8A047044638B9C0
:104BB0008DF8060004908246564503D8052028E06B
:104BC0000136ECE76B680DF10602D3F804B0294614
:104BD000012304A8D8476B680DF10702D3F804B08D
:104BE0002946012304A8D8479DF8073043459DF87E
:104BF000063013D14C450FD1109A13603B7087F8E3
:104C000001806A68023B54682946BA1C04A8A04780
:104C1000002007B0BDE8F08F0134E4B26A68023BBF
:104C2000D2F804B02946002204A8D8479DF80630DF
:104C30009A44C1E70378052B0BD1074AD2F8843494
:104C4000D2F88024D2B222B9044ADBB2052B08BFC5
:104C50001046034B1B6818470070024020D00F001D
:104C600048860020FFF7E6BF012805D0022805D0BE
:104C700030B90448FFF7DEBF0348FBE70348F9E714
:104C8000704700BF1CD00F0018D00F0014D00F00C9
:104C90000148FFF7CFBF00BF24D00F002DE9F74335
:104CA00005462B4803F012FB044600284CD1294B43
:104CB0001870294B1860294B014618604822284873
:104CC00007F096FC27484822214607F091FC264B26
:104CD00095B9264A1D72C3E90025002001F01CFE8B
:104CE00018B1852801D0FDF7A1F9214F002697F8CA
:104CF000089007F1090814E095E8070083E8070029
:104D00000028EAD1194A1A60E7E7A3782344394614
:104D1000985CFFF7E9FE01356378EAB29342F4D874
:104D20000136F4B2A14504D904EB440444440025FF
:104D3000F2E70B230E488DF8043001A9FFF7BAFE05
:104D4000044608B103F08AF9204603B0BDE8F083B9
:104D5000654C0F00ED860020E4860020E8860020E8
:104D6000548600209C860020488600209D500F001D
:104D700040D00F0010B503F041FA10B908231846CF
:104D800010BD03F043FA04460028F7D1044801F0AF
:104D9000F7FD03460028F2D0FDF748F92346EEE779
:104DA00010D00F0003F064B903F0ACBD4FF08043A6
:104DB000D3F83824920702D50348FFF73BBFD3F856
:104DC0003824D107F4D4704729D00F0007B58223C7
:104DD00001A88DF80430FFF72DFF03B05DF804FB48
:104DE0002DE9F74300F1090190F8089005460027E6
:104DF0000E46FBB24B452AD291F801800024E3B263
:104E000098450AD98B780A190134D05CFFF75EFE09
:104E10000368002BF3D0112028E001370331E8E7C5
:104E2000A27823442946985CFFF75EFE013762783A
:104E3000FBB29A42F4D808F101082B7A5FFA88F4A1
:104E4000A34216D904EB440434440027EFE74FF0A3
:104E50000008F2E713681A68002AFBD11D6001A957
:104E60000B2328468DF80430FFF724FE03B0BDE87D
:104E7000F083014BEFE700BFE4860020024B187877
:104E8000003818BF01207047EC860020030710B5DA
:104E9000044604D403F03EFB204603F001FE204606
:104EA000BDE8104003F0A6BD03F072BD014B1868C9
:104EB000704700BFE4860020F0B50A4B0246186830
:104EC00078B1057A0023861DDCB2A54201D80368BB
:104ED000F5E7013303EB4307F75D9742F4D101B1E6
:104EE0000C70F0BDE48600201146FFF7E3BD08B565
:104EF00000F00F03082B07D8FFF7E8FD006818B192
:104F0000BDE80840FFF7D6BD102008BD38B5054BF9
:104F100005461C6804B938BD29462046FFF7CAFD7E
:104F20002368F6E7E486002038B5074B05461C6881
:104F30000CB9062038BD29462046FFF7BBFD0628E0
:104F4000F8D12368F3E700BFE486002013B50446D8
:104F5000019103F001FA50B1064B1B78022B06D1E8
:104F60000199204602B0BDE8104003F005BA0820C0
:104F700002B010BDED86002013B50446019103F088
:104F8000EBF950B1064B1B78022B06D10199204654
:104F900002B0BDE8104003F069BA082002B010BDAD
:104FA000ED860020F8B543689B6805460C4616461A
:104FB00013B92EB1072002E098470628F9D0F8BDB2
:104FC0002B7AA34213D9093504EB44042C446778A7
:104FD000F3B29F4201D80020F1E762789A4208D9E3
:104FE000A219A378D05CFFF751FF0136F0E7737880
:104FF000FFDE00231B78FBE770B54368DB680546DE
:105000000C4603B198472B7AA34213D9093504EB18
:1050100044042C4400256678EBB29E4200D870BD53
:1050200062789A4209D96219A378D05C03F0B0FC87
:105030000135F1E700235B78FFDE00231B78FBE7F7
:1050400043681B6903B118471846704770B5084B91
:105050001C6804B970BD267A0025E9B28E4201D8D9
:105060002368F5E700222046FFF79CFF0135F4E7AF
:10507000E486002070B5084B1C6804B970BD267A20
:105080000025E9B28E4201D82368F5E72046FFF7F4
:10509000B3FF0135F5E700BFE486002038B503789B
:1050A0000F2B044610D9A3F1800283F08003052B57
:1050B00000D938BD052AFCD8DFE812F067002C00C3
:1050C000490073007E00E0000F2BF2D801A252F8D5
:1050D00023F000BFDB510F000B520F006B520F008B
:1050E0002F520F004D520F007D520F008F520F00B4
:1050F000B3500F00B9520F00BD520F00C1520F0044
:10510000B3500F00B3500F00B3500F00B3500F0057
:1051100087520F006B48FFF7F1FC6A48FFF7F6FE75
:105120000D20FFF7CBFCFFF7A5FF00F078F9664BE9
:105130001B6853B9654B187A00F0010003F03AF888
:105140000120BDE83840FFF7E1BC0120F4E7FFF79C
:1051500091FF03F0B5FB0020FFF7D8FC5C48FFF798
:10516000D5FE5B48FFF7CAFC0E20FFF7A7FC594BA2
:105170001B78023BDBB2062B9BD8574AD35C002B33
:1051800097D0BDE8384001F033BB524B1B78062B5B
:1051900005D003F0FD03052B8BD10220D1E70820B9
:1051A000CFE74C4B1B78032B83D103F0C5FB0028C2
:1051B0003FF47FAF0420C4E7464B1B78032B05D197
:1051C00003F0BAFB10B10420FFF7A0FC03F028F8AD
:1051D00000283FF46EAF0620B3E73E4B1B78032B4D
:1051E00001D0082B02D13D48FFF758FF0020FFF700
:1051F00065FC354B1D68002D3FF45BAF284621460A
:10520000FFF758FC2B685D68F5E7FFF733FF00F008
:10521000FDF80220FFF77AFC0120FFF74FFC204643
:10522000FFF76CFC2046BDE83840FFF76FBE294B06
:105230001B78082B06D10220FFF768FC03F03AF830
:105240000320EAE70520FFF761FCF9E70320FFF7F9
:1052500035FC2348FFF752FC2148FFF757FE1D4B52
:105260001B78062B99D107206BE70320FFF74EFC34
:105270000220FFF723FC2046FFF748FE2046BDE84A
:105280003840FFF73BBC0F20FFF718FCCAE78078D7
:10529000FFF71CFC214643680068984700283FF44C
:1052A00008AFA07802073FF404AF03073FF501AF52
:1052B000BDE8384003F020B90820E5E70920E3E71E
:1052C0000A20E1E728D00F00E88600204886002069
:1052D00027D00F00ED86002008D00F0026D00F0049
:1052E00025D00F00002070472DE9F04F2DED028BE7
:1052F00085B04B68019280460C466BB90B681B6801
:105300001B684BB98D683DB9C0E90055284605B00A
:10531000BDEC028BBDE8F08F03F0EAF8019BE76873
:105320009F4228BF1F4604F110034FF0000A08EE09
:10533000103A8146564601254FB3A3686168BB42C7
:105340009B4628BFBB4629B35A4609EB060007F027
:1053500027F900236360A268E368A2EB0B02A3EBCA
:105360000B03A260E360A7EB0B075E440ABBBAF134
:10537000000F03D02268126812682260DBB1236834
:10538000DBB963601EB1019BB34288BF0025C8E949
:105390000096BBE7002BDED021684B6818EE100AA0
:1053A000D3F804A009EB06025B46D0474FF0010A90
:1053B000D1E7002BC0D10025BEE70023029321686E
:1053C0004B680022D3F804B002A80123D84708B9DB
:1053D0002061B1E7A3680133A360F0E7084B1A78B6
:1053E00082420CD0052818BF064A187018BF1378DF
:1053F00005481CBF23F002031370FFF74FBE704730
:10540000048700202087002050D00F0008B500201E
:10541000FFF73CFDBDE808408020FFF737BD08B529
:105420000020FFF741FDBDE808408020FFF73CBDAC
:1054300038B505460C4603F0EDF8A84203BFD4E9A1
:105440000001034BC3E90001102008BF002038BD54
:10545000248700207FB5C38893421E4628BF164686
:1054600093420D46144625D9802002F06FFFB4FB0D
:10547000F0F202FB1044B4FA84F4640900230DF145
:10548000030003948DF80330CDE9015600F0ACFA27
:1054900001A98020FFF75AFD044620B90649802063
:1054A000FFF7C6FF04469DF8030000F0C1FA20464E
:1054B00004B070BD0024E1E784D00F002DE9F04F67
:1054C0000B780E2B89B00D4613D8A3B1013B0D2BE1
:1054D00011D8DFE813F012001A00160010002A009D
:1054E000FA0110001000100010001A00E401E80199
:1054F000F801852B13D00624E1E10320FFF76EFFAE
:10550000F9E7A84800F0A2FB08B90024D7E1A64BB0
:105510000122DA65BFF36F8FBFF34F8FF5E7A34B1F
:105520001B78032BE7D10420E8E70523A04D8DF875
:1055300014300DF1150002F0FDFF00232B609DF8E3
:10554000153003F01F07032F00F26281DFE817F028
:105550000400FB0057013E0013F0600FC3F3411835
:1055600034D1DB099DF8161000F0A680062916D06C
:10557000082900F0938049BB8E4C0222204607F098
:1055800037F8237843F0010222708B4A1278920791
:1055900044BF43F003032370022286490EE09DF8C6
:1055A0001830022B16D0032B68D0012B0ED1BDF87A
:1055B0001B30002B00F07081804912220DF1150084
:1055C000FFF748FF0446062C40F02A8105A8FFF7A4
:1055D000ABFC12E1BDF81B60002E00F05D81092ECE
:1055E00028BF0926FFF762FC4FF00909044674BB87
:1055F000704C73493246204606F0D2FF2771A4F85A
:105600000290FFF73BFC18B1E37943F02003E3710C
:10561000FFF74CFC6B4BC3E900049E60BDF81B20F8
:10562000DA6003A800238DF80C3000F0DDF966493C
:105630008020FFF7A1FC044620B964498020FFF7D1
:10564000F7FE04469DF80C0000F0F2F9BBE7CDF838
:105650000C804FF0000A63680022D3F804B02146A2
:10566000012303A8D84730B9237A1F442368D144C3
:105670001C68FFB2BBE70AF1010AECE7BDF81B307A
:10568000002B00F00981BDF819109DF8170000F0FB
:105690008DF90146002899D002788FE7434A1278A5
:1056A000052A03D1434A1370012276E7042A8DD1DB
:1056B000404B83F80080F7E7032910D009292CD04C
:1056C000012983D1BDF81730012B7FF47FAFFFF79D
:1056D000D5FB60B1384A137823F002030FE0BDF820
:1056E0001730012B7FF472AFFFF7C8FB18B90F24F6
:1056F00002F086FFE3E0304A137843F002031370B0
:105700002B68002B00F0C88002F084FF04460028BC
:105710007FF4FBAE02F034FFD1E0244B1B78043B56
:10572000012B01D90824E3E79DF817302BB9FFF7C7
:10573000A1FC0420FFF752FEE2E7012B56D1FFF750
:1057400085FC0520F6E79DF8190003A9FFF7B4FBD7
:10575000064608B91024CBE79DF80C1005AAFFF700
:10576000C3FB062804465BD19DF8152012F0600F9C
:10577000BED10E4B9DF80C1018789DF81630D2094A
:105780002CD02BB30A2BB3D10528CBD130460192B4
:10579000FFF756FC0749019A08700DF11500FFF755
:1057A00059FE2AE02C870020007002400487002068
:1057B00024870020308700202087002070D00F0031
:1057C00051D00F00088700208CD00F0084D00F002C
:1057D0000528A7D14A490B800222DEE70B2B87D18F
:1057E00005289FD1BDF81730FF2B01D907247FE78B
:1057F0009DF817203046FFF7D5FB044610E09DF8D2
:105800001900070706D19DF8153013F0600F0BD073
:1058100006246DE705A9FFF76AFB06280446F2D0C7
:10582000002C3FF46DAF63E79DF81620354B9DF8D3
:1058300019401B78012A1DD0032A0CD0002AE7D179
:10584000052B02D026077FF46DAF204602F060FEE4
:105850002B490880C0E72007DAD4BDF81720002ABA
:10586000D6D1052B02D021077FF45CAF204602F091
:1058700043FE45E72207CBD4BDF81720002AC7D145
:10588000052B02D023077FF44DAF204602F042FEE5
:10589000204603F005F933E702F0A8FE35E60020C4
:1058A000FFF79CFD31E64FF08043D3F8384414F005
:1058B000010401D00220F3E70120FFF78FFD20460D
:1058C00009B0BDE8F08F0120EAE7C87803283FF46B
:1058D00012AE0D4E33688BB100227168326098476A
:1058E000044600287FF404AF336823B1AB78002B63
:1058F0007FF40BAE0EE702F079FEE0E70E24F7E648
:1059000030870020048700202487002008B140232E
:1059100003600148704700BF3087002070B54FF02A
:10592000805286B0D2F8A830D2F8A42000926FEA54
:1059300083436FEA93430B4A0B4E9BB20D2102A89F
:1059400006F05EFE02AD002402A806F0B1FE84421D
:1059500001D306B070BD15F8013B06F8013B0134D8
:10596000F2E700BF94D00F007087002010B50E4BF7
:1059700053F8204023780BB9A01C10BD0020FFF77E
:10598000C5FF013C00235A1CA15C39B9DBB20133CD
:105990005B00DBB243F440730380EEE7D3B220F840
:1059A00013101346EFE700BFECD00F00034608B911
:1059B000FFF7DCBF012807D0022805D0032803D059
:1059C000042801D0052809D1054800EB4303587885
:1059D00020B1044B53F82030002BE9D10020704750
:1059E00004D10F00ECD00F0070B5EFF3108672B643
:1059F0000C4A946801239CB993600B4B0B4DD3F870
:105A0000801029401160C3F88050D3F88410516091
:105A10004FF0FF32C3F88420047006B962B670BD3F
:105A20000370FAE78087002000E100E0FC06FFBD7C
:105A300010B5084B9A685AB150B9EFF3108172B69D
:105A4000054A1C6814605C685460986001B962B6CD
:105A500010BD00BF8087002000E100E030B53AB102
:105A60001368DB430A4D0144814204D1D84330BD61
:105A70004FF0FF33F6E710F8012B5340082213F0E4
:105A8000010418BF2C46013A84EA5303F7D1EBE72F
:105A90002083B8ED10B561B1B2FBF3F403FB14241D
:105AA000A4B244B9C0E9001484608281C381204655
:105AB00010BD0E20FCE70920FAE782B050E8022F63
:105AC000C188B2EB324F4FF0000317BF92B241EAE8
:105AD000014142EA014104E04268B2EB324F08BFA3
:105AE000012340E80212002AE8D18DF807309DF822
:105AF0000730002B0CBF1120002002B0704737B5D3
:105B000050E8013F9DB2C48925448489A54228BF3D
:105B10002D1B0489A54202BFBFF32F8F002207E08F
:105B2000C5EA030540E80154002CE9D14FF0010219
:105B30008DF803200193019A0A609DF8031001F08B
:105B4000FF0321B1006810FA82F003B030BD18469F
:105B5000FBE70A884B889A4209D150E8012FC2EA34
:105B6000024240E80123002BF7D1012070470020BA
:105B7000704737B550E8023F1FFAA3F5C488A54225
:105B800002BFBFF32F8F00220DE0C4892544848912
:105B9000A54228BF2D1BC3EA054540E80254002C4E
:105BA000E8D14FF001028DF803200193019A0A60B9
:105BB0009DF8031001F0FF0321B1006800EB1240D3
:105BC00003B030BD1846FBE70A884B889A4209D1DA
:105BD00050E8022FC2EA224240E80223002BF7D10C
:105BE000012070470020704710B5034653E8000FAE
:105BF0000A4643E8002494F0000FF7D110BD10B519
:105C0000034653E8000F40EA010243E8002494F001
:105C1000000FF6D110BD10B5034653E8000F00EA9F
:105C2000010243E8002494F0000FF6D110BD10B536
:105C3000034653E8002F02EA010043E8000494F011
:105C4000000FF6D110BD0121FFF7D9BF0021FFF7EA
:105C5000E2BF0021FFF7EBBF10B590B1D0E90123FF
:105C600001689B1ADBB20A60013BDBB2FF2B0268C2
:105C700002D10020107110BD11684C1C14600B7013
:105C8000F2E70E20F7E737B5044600250DF10700CF
:105C90008DF80750FFF7A8FE2268616813688B42F1
:105CA00010D9591E116013F8013C228AE56802FBE5
:105CB00003552268A36811685B1A1179DBB2994217
:105CC00038BF13719DF80700FFF7B2FE284603B0F6
:105CD00030BD37B5054600230DF107000C468DF8A1
:105CE0000730FFF781FE2A681368591C1160E968C4
:105CF000641A298AB4FBF1F41C709DF80700FFF7C1
:105D000097FE03B030BD01600B681146184710B410
:105D10000468A468A4465DF8044B604710B40468A6
:105D2000E468A4465DF8044B604710B40468246935
:105D3000A4465DF8044B604770B550B90E4D0F4C4A
:105D40000026641B1423B4FBF3F4B44208D10020F2
:105D500010E00368002BF1D0BDE87040DB69184704
:105D60002B6813B901361435EFE7DB6928469847ED
:105D70000028F7D070BD00BF845A0020AC5A002024
:105D8000014B43600020704710D10F000846704758
:105D900000207047024B1868003818BF0120704778
:105DA0008C87002008B50248FFF753FF002008BD8C
:105DB0008C87002008B510461A4606F0F1FB00203B
:105DC00008BD00002DE9F041804686B011480F461D
:105DD00016461D46FFF737FF0446C8B9AA083146E4
:105DE000384600F099FE0B48FFF733FFD8F808302B
:105DF00053B101228DF800200C9A0592CDE901479C
:105E0000CDE9036568469847204606B0BDE8F081B5
:105E10001124F9E78C8700202DE9F043814687B0F3
:105E200014480E4615469846FFF70DFF0446F0B994
:105E30000746BD4215D10F48FFF70BFFD9F80830D0
:105E40005BB102228DF800200022CDE90126CDE9C8
:105E50000325CDF8148068469847204607B0BDE872
:105E6000F08306EB073000F029FE0137E1E711244B
:105E7000F3E700BF8C87002029DF704728DF7047D9
:105E800070B50668B36886B004460D4673B1142237
:105E90000021684606F0ACFBA368059323790195C1
:105EA00033B1012B0ED0B3686846984706B070BD79
:105EB00001238DF8003023690293E368039363693B
:105EC0000493F0E702238DF80030E3681B0302938C
:105ED000F5E708467047002070470000024B187A2B
:105EE000003818BF012070477C890020034B187AC6
:105EF0000122B0FA80F05A74400970477C89002072
:105F000008B510461A4606F04BFB002008BD0000FD
:105F100008B514220021044806F06AFB0348FFF785
:105F2000CCFD002008BD00BF7C8900206C890020CA
:105F300010B5094C094B43602046FFF784FE48B971
:105F400000F018FA064920741C2306484FF4EE723C
:105F5000FFF7A0FD002010BD7C8900203CD10F0080
:105F6000908700206C89002038B5224D224C2B7A76
:105F70003BB922492248FFF7FCFD206008B9686060
:105F800038BD022324682B72237973B1012B22D0F0
:105F900020460321FFF774FF00232B726B60174923
:105FA0001748BDE83840FFF70FBED4E90523D21AE1
:105FB000142AD4E9031028BF14229208012A38BFFA
:105FC000012219441844FFF757FF50B11128DFD1BF
:105FD00001232B72D4E7D4E903031844FFF74EFFE3
:105FE000F3E72B7C002BCBD1BDE83840022000F03A
:105FF00009B800BF7C890020948900209089002086
:106000006C89002038B5224C237A002B3FD0022B1C
:1060100009D103282ED01F4B00221B68E2601A7999
:106020003AB1012A20D0637C6BBBBDE83840FFF752
:106030009BBFD3E905128D1A142D94BF5219143247
:106040009A619142EFD102284FF0000308BF194630
:106050002372104B18BF0D211868FFF711FF0E496E
:106060000E48FFF7B1FDDEE71A6901321A615B697C
:106070009A42E7E7E3680133082B01D8E360D2E7EF
:106080000023E360DFE7BDE8384000F063B938BDC6
:106090007C89002094890020908900206C89002050
:1060A000831E012B01D8FFF7ADBF704700F0FD0341
:1060B000012B08D1044B00225A74421E5042504119
:1060C0001874FFF751BF70477C89002010B5064C4B
:1060D000201DFFF7B8FD28B9637C1BB9BDE810404F
:1060E000FFF742BF10BD00BF7C8900202DE9F341BE
:1060F00080460D460F4801A916461F46FFF7FFFCD4
:106100000446A8B11C22002106F072FA2D0B0123CF
:10611000237101A90748C4F80080A760E5606661A3
:10612000FFF717FDFFF7D2FF002002B0BDE8F081B6
:106130000420FAE76C8900202DE9F7438146884660
:10614000104801A917461E46FFF7D9FC0446B0B116
:106150001C22002106F04CFA00250A9BA36001A92D
:10616000C4E9037807482571C4F800906661FFF719
:10617000F0FCFFF7ABFF284603B0BDE8F083042036
:10618000FAE700BF6C89002001600B6843604A6831
:10619000934204BF002343607047436843B10268E1
:1061A00091680B4443605268934204BF00234360EC
:1061B000704710DF704711DF7047000013B50446C9
:1061C00009496846FFF7E0FF019808B902B010BD21
:1061D000D0E900212046904718B16846FFF7DDFF5F
:1061E000F2E71120F2E700BF6CD10F0013B50446AF
:1061F00007496846FFF7C8FF019B0BB902B010BD05
:106200002046D3E9002190476846FFF7C6FFF3E731
:1062100084D10F00084B9A6822B11A6822F48002D8
:106220001A607047054B4FF48002C3F88020BFF31B
:106230004F8FBFF36F8F70478087002000E100E031
:106240000B4991F816335A09EC231341DB0706D5A5
:10625000084B9A683AB94FF480030B60704742F2DA
:106260000200FBF7E3BE1A6842F480021A6070472E
:1062700000E100E080870020F7B5194F3C7864BB4F
:10628000184E012520463570FFF798FF112821D0C0
:106290002046FFF7ABFF144B8DF8034018680190C0
:1062A0000DF10300FFF7A0FB104901A8FFF781FFE4
:1062B0000446B0FA80F0400938709DF80300FFF7FB
:1062C000B7FB3CB90A4B34701C70FFF7B9FF284686
:1062D000FFF78CFF204603B0F0BD0824FAE700BFAB
:1062E000998900209889002068D10F0027200F008D
:1062F0009A890020F7B5154F3B781BB3144E012047
:106300003070FFF75BFF11284FF000051CD0022012
:10631000FFF76CFF0DF107008DF80750FFF764FBE6
:10632000FFF749FF04469DF807003D70FFF780FB2B
:106330002CB903203470FFF76DFFFFF757FF20469D
:1063400003B0F0BD0824FAE72C46F8E7998900204D
:1063500098890020054B1B7833B1054B1B780BB196
:10636000FFF7C8BFFFF788BF082070479889002053
:1063700099890020014B1878704700BF9989002047
:1063800007B508496846FFF7FFFE019B13B903B044
:106390005DF804FBD3E9002090476846FFF7FDFE57
:1063A000F3E700BF78D10F00FFF7EABF60DF704767
:1063B00069DF704761DF704730B5134DADF5017D82
:1063C0004FF4FA740DF1020103A8ADF80240FFF793
:1063D000F1FF70B9294601A8FFF7D6FE029B002BFA
:1063E000F0D003A8D3E90021904701A8FFF7D5FE1C
:1063F000F4E7052805D00DF5017DBDE83040FBF739
:1064000015BE0DF5017D30BD90D10F00024B1B78FC
:106410000BB1FFF7D1BF70479B89002018B1034B28
:106420000360002070470E20704700BF785900209D
:10643000F0B5074685B00D4600295DD02F4B0B60A7
:106440000C22002101A806F0D3F8012606232A68B1
:10645000ADF8083001A920208DF804708DF8066091
:10646000FFF7A6FF0C22002101A806F0C1F80024C6
:106470002A688DF8056001A94020ADF80640FFF7B5
:1064800097FF0C22214601A806F0B2F8F7232A68EC
:10649000ADF8063001A923208DF80470FFF788FFBE
:1064A0000C22214601A806F0A3F82A688DF80460A2
:1064B00001A93046FFF77CFF0C22214601A806F017
:1064C00097F84FF4B0632A68019301A9A120FFF760
:1064D0006FFF0C22214601A806F08AF89DF80430CF
:1064E0002A6864F3000301A9A0208DF80430FFF7A7
:1064F0005FFF204605B0F0BD0E20FBE77859002075
:1065000008B5FFF753FF10B9014B01221A7008BDFF
:106510009B8900204BDF70471FB50E4C01A8FFF789
:10652000F9FF70B9214602A8FFF72EFE039B002B4E
:10653000F4D00198D3E90021904702A8FFF72DFE7F
:10654000F4E7052804D004B0BDE81040FBF76EBDA9
:1065500004B010BD9CD10F00F0B578B371B36BB32C
:1065600000241C608E18DB274FF0DC0C4FF0DD0E92
:106570001A688E4202F1010400EB020504D11C608E
:10658000C0232B700020F0BD0D78C02D05D0DB2D71
:106590000CD01C600C78845406E01C6087541A6888
:1065A000541C1C6000F802C00131E1E71C608554F6
:1065B0001A68541C1C6000F802E0F5E70E20E2E7C0
:1065C00010B580B3D0E902239A422ED00378012B74
:1065D0000FD0022B21D053B9C02928D0DB2902D1FA
:1065E0000123037003E04368541C84609954112014
:1065F00006E0DC2905D0DD290AD0022303700B2038
:1066000010BD511C43688160C02199540023E8E704
:10661000511C81604368DB21F7E7C029E7D10023E3
:1066200003708360E3E70E20EAE70420E8E71846FA
:10663000E6E742DF704743DF7047000038B5074C9C
:10664000051E04F1080318BF1C4623682BB11A6805
:1066500022605B6828469847F7E738BDA489002088
:1066600020B9054B01225A70FFF7E8BF012802D17B
:10667000014A9070F8E770479C89002020B9034BCD
:1066800001225A70FFF7DABF704700BF9C890020D3
:1066900038B50E4C2378B3B90D486360A36023610D
:1066A000E36000F06FFA0546FFF764FE08B900F0FA
:1066B00075FA01232370074BD3F800340BB1012383
:1066C000A370284638BD8525F5E700BF9C890020CA
:1066D00061660F000000014037B50D4C00230DF13D
:1066E00007008DF80730FFF77FF9E368013BE360AF
:1066F000E36833B9074BD3F8005415B900F064FAD6
:10670000A5709DF80700FFF793F903B030BD00BFF7
:106710009C89002000000140012813B50CD00328FB
:1067200020D038B9134B0122C3F88020BFF34F8F1C
:10673000BFF36F8F02B010BD0F4C00230DF10700A7
:106740008DF80730FFF750F923780BB9FFF7A0FF5A
:10675000E3689DF807000133E3600123A370FFF7AE
:1067600067F9E7E700F01AFA02B0BDE81040FFF75A
:10677000B3BF00BF00E100E09C89002037B51B4C8F
:106780006378054603F0FF029BB110B14368002017
:10679000984700230DF107008DF80730FFF724F923
:1067A00063689DF8070001336360FFF741F903B0A8
:1067B00030BD0DF107008DF80720FFF715F925B161
:1067C000A268134653B92A60A5606368002BE7D11D
:1067D000FFF7D0FD30B1FFF72CFFE1E79D42F4D089
:1067E0001B68EFE700F001FADAE700BF9C890020A0
:1067F00073B50F4C00230DF107008DF80730FFF73C
:10680000F3F86368013B6360666836B9FFF7B2FD71
:10681000054640B1FFF70FFF66709DF80700FFF7D0
:1068200007F902B070BD00F0EDF96570F5E700BF43
:106830009C89002036DF70474DDF70474EDF704780
:106840004FDF704750DF704710B50446FFF7F6FF83
:1068500040B92046FFF7F0FF20B92046BDE81040C0
:10686000FFF7EEBF10BD012810B5044602D100F0BD
:1068700019FA804700F01CFA034668B10A2C07D0C9
:106880000B2C07D0092C07D10220BDE81040184777
:106890000020FAE70120F8E710BD0000012813B539
:1068A000044603D003281CD002B010BD00230DF114
:1068B00007008DF80730FFF797F800F0F3F910B1F3
:1068C0002046FFF7B7FF9DF80700FFF7B1F800F08B
:1068D000EFF90028E8D0012002B0BDE81040FFF732
:1068E000B3BF0C4BC02283F8002301221A6000F0D2
:1068F000D9F920B14FF080430422C3F8042300F0FB
:10690000D7F90028D0D04FF080434FF46072C3F81D
:106910000423C9E700E100E038B50A4D2B780446AE
:1069200063B9FFF727FD58B90748002C18BF204668
:1069300000F0C4F908B901232B7038BD8520FCE7AD
:106940000820FAE7B0890020A8D10F0013B5002471
:106950000DF107008DF80740FFF746F8FFF70AFD35
:1069600058B12046FFF770FF9DF80700FFF760F869
:1069700002B0BDE8104000F0D7B900F0CEF9F3E75F
:106980001FB50190FFF7E2FF019800F0B9F9FFF79A
:10699000F1FC0446A0B10120FFF756FF044660B9A0
:1069A00003A8FFF74FFF044638B9039BDB0704D564
:1069B00000F07EF9034620469847204604B010BDFB
:1069C00000F0A4F9F9E700001FB503788DF8003056
:1069D0004368019383688DF80830C368054A0393C0
:1069E000054B684653F8213052F82110984705B0FE
:1069F0005DF804FBB4890020BC8900201FB5037832
:106A00008DF800304368019383688DF80830C368BF
:106A1000054A0393054B684653F8213052F821107C
:106A2000984705B05DF804FBB4890020BC890020BC
:106A3000F0B5194B90F800C0DFF86CE043F82C205B
:106A4000164B16460A6943F82C204B7F0EF80C3083
:106A50000C4607460FCC89B06D460FC594E80F0071
:106A600085E80F003B78CDF810C01EF803304BB11D
:106A7000002E0B4A694608BF3246381D00F034FD2F
:106A800009B0F0BD002E074A694608BF324607F13B
:106A90000C0000F0BFFAF3E7BC890020B4890020A5
:106AA000C9690F00FD690F00C4890020024AD2F8AD
:106AB0000034002BFBD0704700E001400A4908B5C4
:106AC0000223C1F80435BFF36F8FBFF34F8FC1F8B6
:106AD0000805FFF7EBFF0023C1F80435BFF36F8F04
:106AE000BFF34F8F08BD00BF00E0014010B5094C57
:106AF0000123C4F80435BFF36F8FBFF34F8F0160DC
:106B0000FFF7D4FF0023C4F80435BFF36F8FBFF342
:106B10004F8F10BD00E0014070B50E4E01231546A9
:106B2000C6F80435BFF36F8FBFF34F8F0024AC421C
:106B300007D10023C6F80435BFF36F8FBFF34F8F23
:106B400070BD51F8243040F82430FFF7AFFF013416
:106B5000EDE700BF00E0014010B5034653E8000F29
:106B600000EA010243E8002494F0000FF6D110BDC2
:106B700000F18040002382B0036003680193019B11
:106B800002B07047044A137923B901211060918043
:106B90001846704785207047C8890020084B1A683E
:106BA000D20704D4C02283F8002301221A604FF0D8
:106BB00080420123C2F81835024A1370704700BFA3
:106BC00000E100E0D08900204FF0804208B50223A8
:106BD000C2F808334FF48270FFF7CAFF0123D36075
:106BE000D2F81834DB03FBD408BD08B54FF480702D
:106BF000FFF7BEFF4FF080430122C3F804231A6061
:106C000008BD00004FF08042012108B54FF48070AC
:106C1000C2F80813FFF7ACFF5160D2F80C3403F050
:106C20000113B3F1011FF8D0014B00225A7108BDC6
:106C3000C889002010B54FF08041D1F8003163B110
:106C40004FF48070FFF794FF01220D4BC1F8082329
:106C5000587910B95A711B6898474FF08042D2F8A2
:106C6000043163B14FF48270FFF782FF0223C2F850
:106C70000833034BBDE810401B680120184710BDC6
:106C8000C889002000F1804382B01A68002A14BF2E
:106C90000120002004D000221A601B680193019B90
:106CA00002B07047014B1868704700BFD4890020BC
:106CB000014B1868704700BFDC8900200E4A13782A
:106CC000C3B903784FF08041C3F34003C1F8803566
:106CD000037803F00103C1F87835084B1968C90738
:106CE00004D4C02183F8001301211960012313701B
:106CF0000020704785207047E089002000E100E017
:106D0000014B02681A607047DC8900204FF0804315
:106D10004FF46072C3F8042370474FF080434FF480
:106D20006072C3F808237047014B00221A60704755
:106D3000DC89002010B54FF08043D3F8044362078C
:106D400007D54FF48470FFF79DFF10B11E4B1B68F1
:106D50009847A30608D54FF48A70FFF793FF18B140
:106D60001A4B00201B689847600608D54FF48C70BA
:106D7000FFF788FF18B1154B01201B6898472106C3
:106D800008D54FF48E70FFF77DFF18B1104B00202F
:106D90001B689847E20508D54FF49070FFF772FF23
:106DA00018B10B4B01201B689847A3050AD54FF477
:106DB0009270FFF767FF28B1054BBDE810401B68D4
:106DC0000220184710BD00BFD4890020D8890020B8
:106DD000DC89002008B5FFF7ADFFBDE80840FFF7EC
:106DE00029BF0000014B1B68184700BFE489002041
:106DF0000E4B984237B50C4602D0002003B030BD90
:106E000000230DF107008DF80730FEF7EDFD084B6C
:106E10001D7915B901221C601A719DF80700FEF753
:106E200007FE002DE9D01120E8E700BF0020004058
:106E3000E48900200023435082B043580193019B12
:106E400002B070470A4610B54FF48E71FFF7F2FF9B
:106E5000136A9168C95C136A01331362C0F81C1588
:106E600010BD08B502464FF492710068FFF7E2FFCB
:106E700010684FF48471FFF7DDFF136801221A6078
:106E800008BD10B58B690A464FF4847123B9FFF72A
:106E9000D1FFD0F8183510BDFFF7CCFF536AD16889
:106EA000D0F81805C854536A01335362F3E7000061
:106EB0001FB501238DF80030044BCDE90110D3E953
:106EC00000126846904705B05DF804FBEC8900208D
:106ED00030B54E4DD5F804339A0585B051D5D5F867
:106EE0002431002B4DD04FF492712846FFF7A2FFBA
:106EF0004FF40173C5F80833454B93F829200AB9BC
:106F000001226A60414902228DF80020D1F88024D4
:106F1000C1F8802403929A690292DA6801920022F1
:106F2000C3E906226846D3E9001290473748D0F8F3
:106F30001C315BB1364A5169136A99424ED992F8B5
:106F40002830002B4AD11146FFF77CFF2F48D0F89C
:106F50004431002B57D04FF4A271FFF76BFF2C4B3D
:106F600093F829200AB1012202609A69002A4AD0C6
:106F7000586AD96800229A6105B0BDE83040FFF731
:106F800097BFD5F804335B07D0D5D5F80831002B6F
:106F9000CCD01F4C1D482146FFF773FF636AA269DE
:106FA0009A42C3D1E36953B1A3612369E168E36005
:106FB0000023606AE3616362FFF77AFFB6E794F843
:106FC00029300BB901236B60104B4FF40172C3F8E9
:106FD00008230023606AE168A361EDE70B484FF4E2
:106FE0008E71FFF727FF5369002BAFD051690291D3
:106FF000002391688DF80030019153616846D2E911
:1070000000139847A2E705B030BD00BF0020004044
:10701000EC8900202DE9F8436D4E90F804802C2374
:1070200003FB0863054693F82A300C469146002B73
:1070300040F0CA8067490068FFF7DAFE074600287B
:1070400040F0C48023685A1C19D01F2B4FF0010256
:107050008ABF61494FF0A04103F01F0302FA03F316
:10706000C1F8083523681F2B86BF03F01F035A4A57
:107070004FF0A04203F5E073032142F82310636848
:10708000581C0BD01F2B86BF03F01F03524A4FF032
:10709000A04203F5E073002142F823102B68A26997
:1070A000C3F82425217D637D2A680B43C2F86C3523
:1070B000D4E900122B68C3F81425C3F80C15237DFE
:1070C000012B32D1A368591C0BD01F2B86BF03F0B4
:1070D0001F03414A4FF0A04203F5E073002142F83C
:1070E0002310E3685A1C19D01F2B4FF001028ABFEE
:1070F00039494FF0A04103F01F0302FA03F3C1F82E
:107100000835E3681F2B86BF03F01F03324A4FF098
:10711000A04203F5E073032142F82310D4E90212E0
:107120002B68C3F80825C3F810152C2303FB08F3BC
:10713000F218C2F804902269F250B9F1000F30D071
:107140002868247F254A4FF48E71FFF773FE4FF4B1
:10715000A2712868FFF76EFE2B68C3F804232A6823
:10716000110B42F30732002AAEBF02F160421C4A03
:1071700001F00F014FEA4413DBB2AABF02F56142EE
:10718000535482F800332A68130B42F30732002A63
:1071900007DB03F01F0101238B405209114941F81D
:1071A00022302B680422C3F800252C2303FB08633C
:1071B0000022C3E9062283F829205A61012283F8BC
:1071C0002A203846BDE8F8830827FAE71127F8E7B0
:1071D000EC890020D16E0F000003005080000200F7
:1071E00014ED00E000E100E00279044B2C2101FBEA
:1071F00002335869003818BF01207047EC8900201D
:107200002DE9F84F064690F8048089469246FFF72C
:10721000EBFF044600283DD1204F2C2508FB057BC1
:107220004FF48E71CBF814A0CBF80890CBF8200067
:107230008BF828003068FFF7FDFD336801229A6063
:1072400030685946FFF7FEFDDBF804305D461BBB96
:107250003068DBF814402B6A9C4211D83368D3F8AD
:107260001C21002AFBD00122DA6000202C2303FB22
:10727000087700237B61BDE8F88F95F828303BB98B
:10728000D0F81C31002BF8D05946FFF7DBFDE2E7C0
:107290000F20EBE71120EEE72046ECE7EC89002019
:1072A0002DE9F0473A4D07792C2303FB0753064697
:1072B0005C6824B103684FF40170C3F808032C2301
:1072C00003FB0753986950B1D869002841D024B115
:1072D00033684FF40172C3F80423112436E09A6135
:1072E000D9605862D8612C2303FB075393F82930E7
:1072F0001BB910B93046FFF7B4FD4FF02C0808FB5E
:10730000075A3068DAF80430002B37D14FF4A271F5
:10731000D046FFF78FFD3068D0F82491D0F80831BF
:10732000D0F84441CBB914B9B9F1000FF3D02C23F4
:1073300003FB07550023AB61B9F1000F24D12CBB2F
:1073400095F8291033680122B1B11A602046BDE8D2
:10735000F0871961DA610120C5E7B9F1000FE6D1C4
:10736000002CE4D14146FFF78CFDDAF82430DAF83E
:1073700018209A42CFD8DAE75A60E7E74FF4017352
:10738000C0F804330024E1E70324DFE70F24DDE73E
:10739000EC8900200023435082B043580193019BA5
:1073A00002B070471FB50123CDE901218DF80030EF
:1073B000D0E900136846984705B05DF804FB7FB537
:1073C000D0F8246105460C46002E5CD04FF4927133
:1073D000FFF7E0FF02238DF80030D0F88034C0F8CA
:1073E00080340393D0F83C350293E3680193002383
:1073F000C4E906336846D4E900139847D5F8443108
:107400007BB14FF4A2712846FFF7C4FFA36943B1D3
:107410000023C4E90633E268D5F83C152046FFF79F
:10742000C1FFD5F82031ABB14FF490712846FFF77A
:10743000B1FF0123EB60636963B1D5F84C2502927B
:107440000023A2688DF8003063610192D4E9001333
:1074500068469847D5F858319BB14FF4AC7128462F
:10746000FFF798FF636963B1D5F84C2502920023BA
:10747000A2688DF8003063610192D4E90013684678
:10748000984704B070BDD0F81031002BB6D04FF43F
:107490008871FFF77FFFD0F83C35A1699942ADD1E3
:1074A000E369E26873B1D0F8003223F02003C0F83A
:1074B0000032E369A3612369E360E6612046FFF7D8
:1074C00071FF9BE7A361F9E701490248FFF777BF26
:1074D000188A00200020004001490248FFF76FBFD2
:1074E0003C8A0020008002402DE9F843754E90F858
:1074F0000480242303FB0863054693F820300C46E0
:107500009146002B40F0D9806F4B006853F828104B
:10751000FFF76EFC0746002840F0D18023685A1C14
:1075200019D01F2B4FF001028ABF68494FF0A041CC
:1075300003F01F0302FA03F3C1F8083523681F2B79
:1075400086BF03F01F03614A4FF0A04203F5E073CA
:10755000032142F823106368581C0BD01F2B86BFF1
:1075600003F01F03594A4FF0A04203F5E0730021D6
:1075700042F823102B68A269C3F82425217D637D7E
:107580002A680B43C2F86C35D4E900212B68C3F894
:107590000C25C3F81415237D012B32D1A368591C87
:1075A0000BD01F2B86BF03F01F03484A4FF0A042A9
:1075B00003F5E073002142F82310E3685A1C19D048
:1075C0001F2B4FF001028ABF40494FF0A04103F04A
:1075D0001F0302FA03F3C1F80835E3681F2B86BFC7
:1075E00003F01F03394A4FF0A04203F5E073032173
:1075F00042F82310D4E902122B68C3F80825C3F817
:107600001015242303FB08F3F218C2F80490226932
:10761000F250B9F1000F3FD02868227F4FF48871F3
:10762000FFF7B8FE28684FF49071FFF7B3FE2868A3
:107630004FF49271FFF7AEFE28684FF4A271FFF786
:10764000A9FE4FF4AC712868FFF7A4FE2B6820490F
:10765000C3F804132B68190B43F30733002BAEBF99
:1076600003F160431B4B01F00F014FEA4212D2B20B
:10767000AABF03F561435A5483F800232B681A0B01
:1076800043F30733002B07DB02F01F0101228A407E
:107690005B09114941F823202B680822C3F8002513
:1076A000242303FB08660023C6E906337361012324
:1076B00086F820303846BDE8F8830827FAE7112716
:1076C000F8E700BF188A0020ACD10F00000300507B
:1076D0001003420014ED00E000E100E00279044BE9
:1076E000242101FB02335869003818BF012070477C
:1076F000188A002001F06043B3F1005F2DE9F047E4
:107700000546884692463ED190F80490FFF7E6FF82
:107710000446002839D11F4F242606FB09764FF472
:107720009071C6F814A0C6F808802868FFF732FEEA
:107730004FF4AC712868FFF72DFE2B687269B168B1
:10774000C3F84415C3F848252B6801229A60736872
:10775000EBB92B68D3F82021D3F858011AB90028C7
:10776000F8D00F2008E00028FBD10122DA602A6857
:10777000D2F85831002BFBD0242303FB09770023D8
:107780007B61BDE8F0871020FBE71120F9E7204678
:10779000F7E700BF188A0020F8B501F06043B3F1A5
:1077A000005F04460F4660D10379314D242101FB6F
:1077B0000351496821B100684FF40476C0F80863AA
:1077C000242000FB03539E6956B1D86900283BD0A2
:1077D00021B123684FF40472C3F80423112032E06E
:1077E0009A61DF60DE6120684FF48871FFF7D2FD97
:1077F00020684FF4A271FFF7CDFD2368C3F83475FC
:10780000C3F8382523681EBB01221A602679236835
:10781000242202FB065252680ABBD3F81011D3F897
:107820004421D3F82401114302D10028F5D00A469F
:10783000242303FB06550023984218BF03209A42D5
:10784000AB6118BF0F20F8BD1F61DA610126CAE7DE
:10785000D3F8002242F02002C3F80022D6E74FF40A
:107860000472C3F804230020EDE71020EBE700BF0B
:10787000188A0020020713D400F00F0310F0800FC5
:10788000084A0BBF03F5887303F5847302EB830387
:1078900052F8230008BF5868431E584258417047A9
:1078A000002070470070024010F0080F074B06D010
:1078B000D3F8C00410F4803F18BF0020704700F0D8
:1078C0000F0000F5947053F82000704700700240DC
:1078D0004FF08053D3F83001A0F1080358425841CB
:1078E000704700004FF08053D3F83021082A06D1AA
:1078F000D3F83431032B04D8034AD05C70470020FE
:1079000070470120704700BFB4D10F0030B54C68FC
:107910009C4209D2002545600968016093420CD160
:10792000201E18BF012030BD43600D680560086847
:10793000E41A18444C600860F0E70020F3E74B6855
:107940009A4228BF1A460B68C0E9003248680B68A3
:10795000801A48601A4400380A6018BF0120704736
:107960004B689A4228BF1A4662B10B68C0E90032E0
:107970004B689B1A4B600B68101E13440B6018BFBA
:10798000012070471346F1E7054B10F0800FA3F17B
:10799000900208BF134600F00F0003EB0010704781
:1079A000D48B002010F0800F14BF0023102300F0B0
:1079B0000F0018447047000008B5FFF789FF18B1A1
:1079C000034B0022C3F81C2C024B00221A7008BD86
:1079D00000700240618A002007B5094A0023137035
:1079E000084AADF8053013708DF8073001238DF883
:1079F0000430054B01A81B68984703B05DF804FBF1
:107A0000608A0020688C0020648C00207047000091
:107A1000F8B54B680B4F934228BF13460C461D46E2
:107A200006461A460968384604F0BAFDC6E90075EC
:107A300060682268401B60602A440038226018BFDA
:107A40000120F8BD6C8C0020F8B54B68934228BF2C
:107A5000134606460D461C468BB10A4F09681A4666
:107A6000384604F09DFD376074606B681B1B6B60CB
:107A70002B68201E23442B6018BF0120F8BD036033
:107A8000F2E700BF6C8C002007B500230DF1070062
:107A90008DF80730FDF7A8FF0B4BD3F8001C03222D
:107AA00071B949F27531C3F8001CC3F8142DC3F83D
:107AB000001C9DF80700FDF7BBFF03B05DF804FB59
:107AC000C3F8142DF5E700BF00E0064013B500240D
:107AD0000DF107008DF80740FDF786FF0A4BD3F83C
:107AE000001C69B949F27532C3F8002CC3F8141DA3
:107AF000C3F8002C9DF80700FDF79AFF02B010BDF7
:107B0000C3F8144DF6E700BF00E0064008B5014693
:107B1000FFF752FF0846FFF737FF827B032A0AD19F
:107B20000846FFF73FFF01218140BDE808400448B7
:107B3000C943FFF711B80368002BF1D008BD00BF9F
:107B4000D08A00208720FFF7E1BF8620FFF7DEBF45
:107B50008520FFF7DBBF8420FFF7D8BF8320FFF726
:107B6000D5BF8220FFF7D2BF8120FFF7CFBF000033
:107B700008B5FFF721FF084B93F89E20032A06D192
:107B8000BDE8084005486FF00101FEF7E5BFD3F8F6
:107B90009030002BF4D008BD448B0020D08A002008
:107BA00073B5012202FA01F51E491F4E0B6810F051
:107BB000800F43EA050304460B6027D000F00F0254
:107BC0001A4B33F8123003F1804303F51C331A6863
:107BD0004AB100221A60BFF36F8FBFF34F8F802826
:107BE00011D0FFF793FF316829400AD106238DF8A1
:107BF00004308DF806408DF807100D4B01A81B6866
:107C0000984702B070BDFFF7B3FFECE733681D4241
:107C1000F7D106238DF804308DF806008DF8072083
:107C2000EBE700BF408B0020D08A0020C2D10F00BC
:107C3000648C002008B5054B1A781046FFF7B2FE99
:107C4000BDE8084001461046FFF7AABF688C002037
:107C5000FFF78EBF07B500238DF804300B4BD3F828
:107C60002025ADF80620D3F8C034094A002B13684C
:107C70000CBF4FF480714FF001210B431360054B93
:107C800001A81B68984703B05DF804FB0070024030
:107C9000408B0020648C002007B5FFF78DFE0D4B54
:107CA00093F88E20032A11D0D3F8803073B90A4894
:107CB0006FF08071FEF750FF06238DF80430082323
:107CC000ADF80630054B01A81B68984703B05DF876
:107CD00004FB00BF448B0020D08A0020648C00206D
:107CE00007B5FFF769FE114B93F81E21032A07D150
:107CF0000F486FF4807103B05DF804EBFEF72CBF02
:107D0000D3F8103173B90A486FF48071FEF724FF7D
:107D100006238DF804308823ADF80630054B01A802
:107D20001B68984703B05DF804FB00BF448B00203C
:107D3000D08A0020648C00202DE9F04F5D4E33780E
:107D400085B0002B6DD15C4C5C4B196823681940E1
:107D500067D011F0012367D093FAA3F1002966D010
:107D6000B1FA81F10F2964D9A1F110085FFA88F8FE
:107D70004046FFF709FE4FF0010B4FFA88FA0BFA65
:107D800001F1BAF1000F81466FEA010B54DA036882
:107D90008289416802A8984708B9C9F80000FFF72E
:107DA00097FD18B1464B8222C3F81C2C0123216891
:107DB000039A3370D9F8083001EA0B011344BAF181
:107DC000000F2160C9F8083008F0080002993C4B08
:107DD00008F00F085EDA002854D0C3F8A016C3F8E4
:107DE000A426042303EB880303F1804303F51C332B
:107DF00001221A60BFF36F8FBFF34F8F314B324AAE
:107E00002F4913EA2A0338BF134633F8183003F119
:107E1000804303F51C331A681AB9D1F80021002AEF
:107E2000F9D005B0BDE8F08F91FAA1F196E72021D5
:107E30009AE741F080089BE74046FFF735FDB9F827
:107E40000C20D9F80410D9F800500346074602A8C0
:107E5000A847029A002A9FD0039A97429CD90227EA
:107E600089F80E7059461548FEF776FE06238DF800
:107E70000430164B8DF806801B688DF8077001A83A
:107E8000984761E7142000FB0833C3F80016C3F8D5
:107E90000426A6E728B1C3F8A017C3F8A42728230F
:107EA000A0E7142000FB0833C3F80017C3F8042729
:107EB000F5E700BF618A0020408B0020D08A0020B7
:107EC00000700240C2D10F00DED10F00648C002090
:107ED00037B50446FFF770FD2046FFF755FD837B5D
:107EE000032B0DD12046FFF75DFD01218140C943E1
:107EF0000F48FEF731FE03B0BDE83040FFF71CBF6E
:107F00000568002DF7D12046FFF74CFD0121814087
:107F1000C9430748FEF720FE06238DF80430054BC1
:107F20008DF806401B688DF8075001A89847E2E7D6
:107F3000D08A0020648C00200720FFF7C9BF0620EC
:107F4000FFF7C6BF0520FFF7C3BF0420FFF7C0BF80
:107F50000320FFF7BDBF0220FFF7BABF0120FFF7E4
:107F6000B7BF000038B5134BD3F86C44C3F86C446A
:107F7000BFF36F8FBFF34F8F01251CB9BDE83840A9
:107F8000FFF7DABE94FAA4F171B1B1FA81F30F2BC5
:107F900019460BDDA1F11000C0B205FA01F324EA85
:107FA0000304FFF7FDFDE8E72021F3E743F080003D
:107FB000F3E700BF0070024013B5254BD3F800442F
:107FC000C3F80044BFF36F8FBFF34F8FBFF36F8FC2
:107FD000BFF34F8FE1050ED51E4B01221A7000230F
:107FE000ADF805308DF8073002238DF804301A4BB8
:107FF00001A81B689847A2050DD5164A00231370E7
:10800000ADF805308DF8073003238DF80430124B9E
:1080100001A81B689847630518D50E4A1378ABB1C1
:10802000002313700A4A0121C2F808159165BFF3B5
:108030006F8FBFF34F8FADF805308DF807300423F5
:108040008DF80430044B01A81B68984702B010BD9E
:1080500000700240608A0020648C0020024A0023E5
:108060001360024A13707047648C0020628A0020FB
:108070004A4B4FF4006213B5C3F80024BFF36F8F6F
:10808000BFF34F8FFFF72EFC08B1FFF7FDFCFFF7A2
:108090001FFCC0B100230DF107008DF80730FDF77C
:1080A000A3FC3F4BD3F8001CC02200296ED149F23B
:1080B0007531C3F8001CC3F8142CC3F8001C9DF8DC
:1080C0000700FDF7B5FC354B0122C3F80025BFF3CF
:1080D0006F8FBFF34F8FD3F800241205FBD54FF4F9
:1080E0000062C3F80024BFF36F8FBFF34F8FFFF719
:1080F000EFFBB8B100240DF107008DF80740FDF744
:1081000073FC274BD3F8001C002942D149F2753289
:10811000C3F8002CC3F8141CC3F8002C9DF807000A
:10812000FDF786FCFFF7DEFB30B1FFF7CFFCFFF772
:10813000D9FB08B1FFF7A8FCFFF7CAFB174B50B1FA
:1081400040F2E372C3F800284022C3F80428BFF3CA
:108150006F8FBFF34F8F00218022C3F81C25C3F817
:108160003015104B40F2FF121A600F4B1960FFF7E9
:1081700023FC0E4B19700E4B02221A70FFF7B2FB54
:1081800050B102B0BDE81040FFF7A0BCC3F8142CFA
:1081900095E7C3F8144CC1E702B010BD007002406F
:1081A00000E00640408B0020D08A0020688C002030
:1081B000628A00200C4B00221A700C4A0C4B0028DB
:1081C00018BF13460B4AC2F804330B4BC02183F887
:1081D0002713802159600123C2F80435BFF36F8F44
:1081E000BFF34F8F704700BF608A00200714E00183
:1081F0000714C0010070024000E100E0024B187853
:10820000003818BF01207047628A0020034B18789D
:10821000012894BF00200120704700BF628A00201F
:1082200037B500250DF107008DF80750FDF7DCFB91
:10823000134B1B7803F0FF04B3B1124AD2F82C356C
:10824000E3B1C2F82C55FFF743FB68B10E4BD3F8EE
:10825000001CC02279B949F27531C3F8001CC3F87B
:10826000142CC3F8001C04469DF80700FDF7E0FB42
:10827000204603B030BDC3F8142CF4E71C46F3E7E6
:10828000608A00200070024000E00640024B034A72
:10829000C3F80823704700BF007002400414800137
:1082A000024B034AC3F80423704700BF007002402A
:1082B00004148001014B00221A707047608A00206C
:1082C00008B5FFF761FB818108BD000073B51D4B48
:1082D0001C78002C33D11C4A106001221A702546EC
:1082E000264615F0080F65F07F00C0B20CBF402194
:1082F0004FF400710190FFF7E3FF0198FFF744FB93
:108300000135092D867306608660EAD1402100257B
:108310002046FFF7D5FF2046FFF736FB0134E4B2D5
:10832000092C85730560856002D1002002B070BD04
:1083300014F0080F14BF4FF400714021E8E7082043
:10834000F4E700BF628A0020648C002008B5FFF7C4
:108350001BFB808908BD0000064A10F0800F00F06A
:108360000F0314BFD2F81005D2F81405D84000F05E
:1083700001007047007002402DE9F74300230646D4
:108380000DF107000F468DF80730FDF72DFB16F0B5
:108390000F0503D12A4B1B78B3424DD1294BDFF88F
:1083A000C8801C68D8F80030E443A4B230461C43AF
:1083B000FFF7F8FA4FF0010909FA00F914EA090485
:1083C0003CD13046FFF7E0FA0C2255433206034613
:1083D0002ED51D4A3968154401F06041BA68B1F1E3
:1083E000005F02F001021ED1DAB9184A1A6097E85C
:1083F000070085E80700D8F800005D6000229A6059
:108400009A73134B40EA09008022C8F80000C3F8B1
:1084100004219DF80700FDF70BFB204603B0BDE8E3
:10842000F0830C4AE2E70AB90B4ADFE70B4ADDE7C3
:108430000B4A15440B4AD9E71024EAE71124E8E770
:10844000688C0020408B0020D48A00203F790F00E8
:1084500000E100E061790F00117A0F00497A0F0006
:10846000648A00200D790F00D08A0020F7B5002320
:1084700006460DF107008DF807300D46FDF7B4FAFA
:10848000330703D1164B1B78B34225D1154B164F3A
:108490001C683B68E443A4B230461C43FFF782FAF1
:1084A000012303FA00F10C4018D13046FFF76CFAB3
:1084B00084602B6803606B684360847338680B4B7F
:1084C000084380223860C3F804219DF80700FDF7B7
:1084D000AFFA204603B0F0BD1024F6E71124F4E70C
:1084E000688C0020408B0020D08A002000E100E052
:1084F000004870476C8C0020044B40F48070C3F837
:108500001805BFF36F8FBFF34F8F704700700240A5
:10851000FFF7B0B9064BC3F80C05BFF34F8F40F41B
:108520008070C3F80C05BFF36F8FBFF34F8F704798
:108530000070024010B508220021044604F058F8EB
:108540000E4BD3F880242270D3F884246270D3F8C1
:108550008824D3F88C1442EA01226280D3F8902454
:10856000D3F8941442EA0122A280D3F89824D3F8D5
:108570009C3442EA0323E38010BD00BF0070024038
:10858000034B0122DA64BFF36F8FBFF34F8F704745
:108590000070024013B5FFF70FFA114B9A7B032AC4
:1085A00007D110486FF4803102B0BDE81040FEF7EB
:1085B000D3BA1C687CB96FF480310A48FEF7CCFA54
:1085C00006238DF80430084BADF806401B6801A85F
:1085D000984702B010BD02B0BDE81040FFF7D0BF11
:1085E000448B0020D08A0020648C0020034B0122A1
:1085F0001A65BFF36F8FBFF34F8F70470070024053
:10860000034B01225A65BFF36F8FBFF34F8F704743
:1086100000700240014B1878704700BF688C002042
:1086200013B5002304460DF107008DF80730FDF760
:10863000DBF92046FFF7B6F90D4901220B6802FA73
:1086400000F023EA000314F008020B600AD104F0E2
:108650000F04084B04F5947443F82420BFF36F8F84
:10866000BFF34F8F9DF80700FDF7E2F902B010BD90
:10867000408B002000700240F7B5002304460DF146
:1086800003008DF80330FDF7AFF92046FFF77CF9C2
:1086900005462046FFF786F9012214F0800F02FA02
:1086A00000F22E4819D1036832EA03030AD02046AB
:1086B000FFF7B6FF0323AB739DF80300FDF7B8F98E
:1086C00003B0F0BD2B60036823EA02030360244B70
:1086D000186820EA02001860ECE7230715D4802C04
:1086E000204B2ED004F00F0101F2DA314900C3F81B
:1086F0000018D3F80418D3F80468C9B241F0020195
:108700003143C3F80418D3F80438154E01683368B0
:1087100061EA03071742CFD0134321EA0201336015
:10872000002301602B600323AB738DF807300E4BE1
:108730008DF8064006221B688DF8042001A8984792
:10874000BAE740F2B471C3F80018D3F80418D3F8AC
:108750000468C9B241F00401D2E700BFD08A00200A
:10876000408B002000700240648C0020FFF784BF23
:1087700073B5184B184CD3F880542368174EDA435E
:10878000174B31781B6892B208461A43FFF70AF973
:10879000012303FA00F0104202D00846FFF76CFFF5
:1087A0006FF0011105F080050D483570FEF7D4F922
:1087B000236843F0010323600023ADF805308DF8F2
:1087C000073005238DF80430064B01A81B68984735
:1087D00002B070BD00700240408B0020688C002009
:1087E000D08A0020648C00202DE9F0411B4BD3F887
:1087F0000413002301241D4671B9194F03F4000628
:1088000023F400044FF00108D4B9FFF795FA1EB322
:10881000BDE8F041FFF7ACBF91FAA1F21148B2FAFE
:1088200082F29600304404FA02F206682EB1056026
:10883000BFF36F8FBFF34F8F134321EA0201DBE7D2
:1088400094FAA4F5B5FA85F557F8253008FA05F538
:10885000984724EA0504D7E7BDE8F081007002409C
:10886000F0D10F0000710240F8B5134E134B34687D
:108870001B68240C24041C4301271CB940F2FF137D
:108880003360F8BD94FAA4F585B1B5FA85F30F2BE2
:108890001D460DDDA5F11000C0B2030701D4FFF79E
:1088A000EBFE07FA05F524EA0504E6E72025F1E7E3
:1088B00043F08000F1E700BF408B0020D08A002009
:1088C00038B50E4C8025C4F8845163681B0613D557
:1088D000FFF7CAFF0A4B0022C3F80425BFF36F8FCE
:1088E000BFF34F8FC4F88450BFF34F8FBFF36F8F28
:1088F0004FF0FF32C3F8082338BD00BF00E100E0AD
:108900000070024008B5FFF7DBFF094BD3F80423E2
:10891000C3F808230022C3F80025BFF36F8FBFF30D
:108920004F8FFFF749F8034B01221A7008BD00BFB3
:1089300000700240628A002013B500230DF1070089
:108940008DF80730FDF750F80F4B1B7803F0FF044C
:108950003BB900249DF80700FDF76AF8204602B0F5
:1089600010BDFFF781FF094AD2F8003413F40073F9
:10897000EFD10121C2F82C15D2F80014890544BFAB
:10898000C2F82C351C46E5E7608A002000700240E2
:1089900010B50446FFF770FE134A04F00F0064B2EE
:1089A000002C4FF00103B4BFD2F81015D2F8141503
:1089B00003FA00F36FEA0303B5BF0B400B40C2F8A4
:1089C0001035C2F81435BFF36F8FBFF34F8F074ACE
:1089D000074B13EA240338BF13461A5C0123934064
:1089E000014AC2F8083310BD00700240D4D10F0014
:1089F000B8D10F0037B5264A264B45B2002DA8BF87
:108A0000134600F00F010446585C234A4FF001035F
:108A100003FA00F0C2F804032EDAD2F81005C840B9
